{
  "_format": "hh-sol-artifact-1",
  "contractName": "CommunitasNFTL1",
  "sourceName": "contracts/l1/CommunitasNFTL1.sol",
  "abi": [
    {
      "inputs": [
        {
          "internalType": "address",
          "name": "_l2Target",
          "type": "address"
        },
        {
          "internalType": "address",
          "name": "_inbox",
          "type": "address"
        }
      ],
      "stateMutability": "nonpayable",
      "type": "constructor"
    },
    {
      "inputs": [],
      "name": "ERC721EnumerableForbiddenBatchMint",
      "type": "error"
    },
    {
      "inputs": [
        {
          "internalType": "address",
          "name": "sender",
          "type": "address"
        },
        {
          "internalType": "uint256",
          "name": "tokenId",
          "type": "uint256"
        },
        {
          "internalType": "address",
          "name": "owner",
          "type": "address"
        }
      ],
      "name": "ERC721IncorrectOwner",
      "type": "error"
    },
    {
      "inputs": [
        {
          "internalType": "address",
          "name": "operator",
          "type": "address"
        },
        {
          "internalType": "uint256",
          "name": "tokenId",
          "type": "uint256"
        }
      ],
      "name": "ERC721InsufficientApproval",
      "type": "error"
    },
    {
      "inputs": [
        {
          "internalType": "address",
          "name": "approver",
          "type": "address"
        }
      ],
      "name": "ERC721InvalidApprover",
      "type": "error"
    },
    {
      "inputs": [
        {
          "internalType": "address",
          "name": "operator",
          "type": "address"
        }
      ],
      "name": "ERC721InvalidOperator",
      "type": "error"
    },
    {
      "inputs": [
        {
          "internalType": "address",
          "name": "owner",
          "type": "address"
        }
      ],
      "name": "ERC721InvalidOwner",
      "type": "error"
    },
    {
      "inputs": [
        {
          "internalType": "address",
          "name": "receiver",
          "type": "address"
        }
      ],
      "name": "ERC721InvalidReceiver",
      "type": "error"
    },
    {
      "inputs": [
        {
          "internalType": "address",
          "name": "sender",
          "type": "address"
        }
      ],
      "name": "ERC721InvalidSender",
      "type": "error"
    },
    {
      "inputs": [
        {
          "internalType": "uint256",
          "name": "tokenId",
          "type": "uint256"
        }
      ],
      "name": "ERC721NonexistentToken",
      "type": "error"
    },
    {
      "inputs": [
        {
          "internalType": "address",
          "name": "owner",
          "type": "address"
        },
        {
          "internalType": "uint256",
          "name": "index",
          "type": "uint256"
        }
      ],
      "name": "ERC721OutOfBoundsIndex",
      "type": "error"
    },
    {
      "inputs": [
        {
          "internalType": "address",
          "name": "owner",
          "type": "address"
        }
      ],
      "name": "OwnableInvalidOwner",
      "type": "error"
    },
    {
      "inputs": [
        {
          "internalType": "address",
          "name": "account",
          "type": "address"
        }
      ],
      "name": "OwnableUnauthorizedAccount",
      "type": "error"
    },
    {
      "anonymous": false,
      "inputs": [
        {
          "indexed": true,
          "internalType": "address",
          "name": "owner",
          "type": "address"
        },
        {
          "indexed": true,
          "internalType": "address",
          "name": "approved",
          "type": "address"
        },
        {
          "indexed": true,
          "internalType": "uint256",
          "name": "tokenId",
          "type": "uint256"
        }
      ],
      "name": "Approval",
      "type": "event"
    },
    {
      "anonymous": false,
      "inputs": [
        {
          "indexed": true,
          "internalType": "address",
          "name": "owner",
          "type": "address"
        },
        {
          "indexed": true,
          "internalType": "address",
          "name": "operator",
          "type": "address"
        },
        {
          "indexed": false,
          "internalType": "bool",
          "name": "approved",
          "type": "bool"
        }
      ],
      "name": "ApprovalForAll",
      "type": "event"
    },
    {
      "anonymous": false,
      "inputs": [
        {
          "indexed": true,
          "internalType": "address",
          "name": "previousOwner",
          "type": "address"
        },
        {
          "indexed": true,
          "internalType": "address",
          "name": "newOwner",
          "type": "address"
        }
      ],
      "name": "OwnershipTransferred",
      "type": "event"
    },
    {
      "anonymous": false,
      "inputs": [
        {
          "indexed": true,
          "internalType": "uint256",
          "name": "ticketId",
          "type": "uint256"
        }
      ],
      "name": "RetryableTicketCreated",
      "type": "event"
    },
    {
      "anonymous": false,
      "inputs": [
        {
          "indexed": true,
          "internalType": "address",
          "name": "from",
          "type": "address"
        },
        {
          "indexed": true,
          "internalType": "address",
          "name": "to",
          "type": "address"
        },
        {
          "indexed": true,
          "internalType": "uint256",
          "name": "tokenId",
          "type": "uint256"
        }
      ],
      "name": "Transfer",
      "type": "event"
    },
    {
      "inputs": [
        {
          "internalType": "address",
          "name": "to",
          "type": "address"
        },
        {
          "internalType": "uint256",
          "name": "tokenId",
          "type": "uint256"
        }
      ],
      "name": "approve",
      "outputs": [],
      "stateMutability": "nonpayable",
      "type": "function"
    },
    {
      "inputs": [
        {
          "internalType": "address",
          "name": "owner",
          "type": "address"
        }
      ],
      "name": "balanceOf",
      "outputs": [
        {
          "internalType": "uint256",
          "name": "",
          "type": "uint256"
        }
      ],
      "stateMutability": "view",
      "type": "function"
    },
    {
      "inputs": [
        {
          "internalType": "uint256",
          "name": "tokenId",
          "type": "uint256"
        },
        {
          "internalType": "uint256",
          "name": "maxSubmissionCost",
          "type": "uint256"
        },
        {
          "internalType": "uint256",
          "name": "maxGas",
          "type": "uint256"
        },
        {
          "internalType": "uint256",
          "name": "gasPriceBid",
          "type": "uint256"
        }
      ],
      "name": "bridgeToL2",
      "outputs": [
        {
          "internalType": "uint256",
          "name": "",
          "type": "uint256"
        }
      ],
      "stateMutability": "payable",
      "type": "function"
    },
    {
      "inputs": [
        {
          "internalType": "uint256",
          "name": "tokenId",
          "type": "uint256"
        }
      ],
      "name": "getApproved",
      "outputs": [
        {
          "internalType": "address",
          "name": "",
          "type": "address"
        }
      ],
      "stateMutability": "view",
      "type": "function"
    },
    {
      "inputs": [],
      "name": "inbox",
      "outputs": [
        {
          "internalType": "contract IInbox",
          "name": "",
          "type": "address"
        }
      ],
      "stateMutability": "view",
      "type": "function"
    },
    {
      "inputs": [
        {
          "internalType": "address",
          "name": "owner",
          "type": "address"
        },
        {
          "internalType": "address",
          "name": "operator",
          "type": "address"
        }
      ],
      "name": "isApprovedForAll",
      "outputs": [
        {
          "internalType": "bool",
          "name": "",
          "type": "bool"
        }
      ],
      "stateMutability": "view",
      "type": "function"
    },
    {
      "inputs": [],
      "name": "l2Target",
      "outputs": [
        {
          "internalType": "address",
          "name": "",
          "type": "address"
        }
      ],
      "stateMutability": "view",
      "type": "function"
    },
    {
      "inputs": [],
      "name": "mint",
      "outputs": [
        {
          "internalType": "uint256",
          "name": "",
          "type": "uint256"
        }
      ],
      "stateMutability": "nonpayable",
      "type": "function"
    },
    {
      "inputs": [
        {
          "internalType": "address",
          "name": "receiver",
          "type": "address"
        },
        {
          "internalType": "uint256",
          "name": "tokenId",
          "type": "uint256"
        }
      ],
      "name": "mintFromBridge",
      "outputs": [],
      "stateMutability": "nonpayable",
      "type": "function"
    },
    {
      "inputs": [],
      "name": "name",
      "outputs": [
        {
          "internalType": "string",
          "name": "",
          "type": "string"
        }
      ],
      "stateMutability": "view",
      "type": "function"
    },
    {
      "inputs": [],
      "name": "owner",
      "outputs": [
        {
          "internalType": "address",
          "name": "",
          "type": "address"
        }
      ],
      "stateMutability": "view",
      "type": "function"
    },
    {
      "inputs": [
        {
          "internalType": "uint256",
          "name": "tokenId",
          "type": "uint256"
        }
      ],
      "name": "ownerOf",
      "outputs": [
        {
          "internalType": "address",
          "name": "",
          "type": "address"
        }
      ],
      "stateMutability": "view",
      "type": "function"
    },
    {
      "inputs": [],
      "name": "renounceOwnership",
      "outputs": [],
      "stateMutability": "nonpayable",
      "type": "function"
    },
    {
      "inputs": [
        {
          "internalType": "address",
          "name": "from",
          "type": "address"
        },
        {
          "internalType": "address",
          "name": "to",
          "type": "address"
        },
        {
          "internalType": "uint256",
          "name": "tokenId",
          "type": "uint256"
        }
      ],
      "name": "safeTransferFrom",
      "outputs": [],
      "stateMutability": "nonpayable",
      "type": "function"
    },
    {
      "inputs": [
        {
          "internalType": "address",
          "name": "from",
          "type": "address"
        },
        {
          "internalType": "address",
          "name": "to",
          "type": "address"
        },
        {
          "internalType": "uint256",
          "name": "tokenId",
          "type": "uint256"
        },
        {
          "internalType": "bytes",
          "name": "data",
          "type": "bytes"
        }
      ],
      "name": "safeTransferFrom",
      "outputs": [],
      "stateMutability": "nonpayable",
      "type": "function"
    },
    {
      "inputs": [
        {
          "internalType": "address",
          "name": "operator",
          "type": "address"
        },
        {
          "internalType": "bool",
          "name": "approved",
          "type": "bool"
        }
      ],
      "name": "setApprovalForAll",
      "outputs": [],
      "stateMutability": "nonpayable",
      "type": "function"
    },
    {
      "inputs": [
        {
          "internalType": "bytes4",
          "name": "interfaceId",
          "type": "bytes4"
        }
      ],
      "name": "supportsInterface",
      "outputs": [
        {
          "internalType": "bool",
          "name": "",
          "type": "bool"
        }
      ],
      "stateMutability": "view",
      "type": "function"
    },
    {
      "inputs": [],
      "name": "symbol",
      "outputs": [
        {
          "internalType": "string",
          "name": "",
          "type": "string"
        }
      ],
      "stateMutability": "view",
      "type": "function"
    },
    {
      "inputs": [
        {
          "internalType": "uint256",
          "name": "index",
          "type": "uint256"
        }
      ],
      "name": "tokenByIndex",
      "outputs": [
        {
          "internalType": "uint256",
          "name": "",
          "type": "uint256"
        }
      ],
      "stateMutability": "view",
      "type": "function"
    },
    {
      "inputs": [],
      "name": "tokenCounter",
      "outputs": [
        {
          "internalType": "uint256",
          "name": "",
          "type": "uint256"
        }
      ],
      "stateMutability": "view",
      "type": "function"
    },
    {
      "inputs": [
        {
          "internalType": "address",
          "name": "owner",
          "type": "address"
        },
        {
          "internalType": "uint256",
          "name": "index",
          "type": "uint256"
        }
      ],
      "name": "tokenOfOwnerByIndex",
      "outputs": [
        {
          "internalType": "uint256",
          "name": "",
          "type": "uint256"
        }
      ],
      "stateMutability": "view",
      "type": "function"
    },
    {
      "inputs": [
        {
          "internalType": "uint256",
          "name": "tokenId",
          "type": "uint256"
        }
      ],
      "name": "tokenURI",
      "outputs": [
        {
          "internalType": "string",
          "name": "",
          "type": "string"
        }
      ],
      "stateMutability": "view",
      "type": "function"
    },
    {
      "inputs": [],
      "name": "totalSupply",
      "outputs": [
        {
          "internalType": "uint256",
          "name": "",
          "type": "uint256"
        }
      ],
      "stateMutability": "view",
      "type": "function"
    },
    {
      "inputs": [
        {
          "internalType": "address",
          "name": "from",
          "type": "address"
        },
        {
          "internalType": "address",
          "name": "to",
          "type": "address"
        },
        {
          "internalType": "uint256",
          "name": "tokenId",
          "type": "uint256"
        }
      ],
      "name": "transferFrom",
      "outputs": [],
      "stateMutability": "nonpayable",
      "type": "function"
    },
    {
      "inputs": [
        {
          "internalType": "address",
          "name": "newOwner",
          "type": "address"
        }
      ],
      "name": "transferOwnership",
      "outputs": [],
      "stateMutability": "nonpayable",
      "type": "function"
    },
    {
      "inputs": [
        {
          "internalType": "address",
          "name": "_l2Target",
          "type": "address"
        }
      ],
      "name": "updatel2Target",
      "outputs": [],
      "stateMutability": "nonpayable",
      "type": "function"
    }
  ],
  "bytecode": "0x60806040523480156200001157600080fd5b50604051620037d4380380620037d483398181016040528101906200003791906200030b565b336040518060400160405280600d81526020017f436f6d6d756e697461734e4654000000000000000000000000000000000000008152506040518060400160405280600481526020017f434e4654000000000000000000000000000000000000000000000000000000008152508160009081620000b59190620005cc565b508060019081620000c79190620005cc565b505050600073ffffffffffffffffffffffffffffffffffffffff168173ffffffffffffffffffffffffffffffffffffffff16036200013f5760006040517f1e4fbdf7000000000000000000000000000000000000000000000000000000008152600401620001369190620006c4565b60405180910390fd5b6200015081620001db60201b60201c565b5081600c60006101000a81548173ffffffffffffffffffffffffffffffffffffffff021916908373ffffffffffffffffffffffffffffffffffffffff16021790555080600d60006101000a81548173ffffffffffffffffffffffffffffffffffffffff021916908373ffffffffffffffffffffffffffffffffffffffff1602179055505050620006e1565b6000600a60009054906101000a900473ffffffffffffffffffffffffffffffffffffffff16905081600a60006101000a81548173ffffffffffffffffffffffffffffffffffffffff021916908373ffffffffffffffffffffffffffffffffffffffff1602179055508173ffffffffffffffffffffffffffffffffffffffff168173ffffffffffffffffffffffffffffffffffffffff167f8be0079c531659141344cd1fd0a4f28419497f9722a3daafe3b4186f6b6457e060405160405180910390a35050565b600080fd5b600073ffffffffffffffffffffffffffffffffffffffff82169050919050565b6000620002d382620002a6565b9050919050565b620002e581620002c6565b8114620002f157600080fd5b50565b6000815190506200030581620002da565b92915050565b60008060408385031215620003255762000324620002a1565b5b60006200033585828601620002f4565b92505060206200034885828601620002f4565b9150509250929050565b600081519050919050565b7f4e487b7100000000000000000000000000000000000000000000000000000000600052604160045260246000fd5b7f4e487b7100000000000000000000000000000000000000000000000000000000600052602260045260246000fd5b60006002820490506001821680620003d457607f821691505b602082108103620003ea57620003e96200038c565b5b50919050565b60008190508160005260206000209050919050565b60006020601f8301049050919050565b600082821b905092915050565b600060088302620004547fffffffffffffffffffffffffffffffffffffffffffffffffffffffffffffffff8262000415565b62000460868362000415565b95508019841693508086168417925050509392505050565b6000819050919050565b6000819050919050565b6000620004ad620004a7620004a18462000478565b62000482565b62000478565b9050919050565b6000819050919050565b620004c9836200048c565b620004e1620004d882620004b4565b84845462000422565b825550505050565b600090565b620004f8620004e9565b62000505818484620004be565b505050565b5b818110156200052d5762000521600082620004ee565b6001810190506200050b565b5050565b601f8211156200057c576200054681620003f0565b620005518462000405565b8101602085101562000561578190505b62000579620005708562000405565b8301826200050a565b50505b505050565b600082821c905092915050565b6000620005a16000198460080262000581565b1980831691505092915050565b6000620005bc83836200058e565b9150826002028217905092915050565b620005d78262000352565b67ffffffffffffffff811115620005f357620005f26200035d565b5b620005ff8254620003bb565b6200060c82828562000531565b600060209050601f8311600181146200064457600084156200062f578287015190505b6200063b8582620005ae565b865550620006ab565b601f1984166200065486620003f0565b60005b828110156200067e5784890151825560018201915060208501945060208101905062000657565b868310156200069e57848901516200069a601f8916826200058e565b8355505b6001600288020188555050505b505050505050565b620006be81620002c6565b82525050565b6000602082019050620006db6000830184620006b3565b92915050565b6130e380620006f16000396000f3fe6080604052600436106101815760003560e01c806370a08231116100d1578063b88d4fde1161008a578063d082e38111610064578063d082e38114610599578063e985e9c5146105c4578063f2fde38b14610601578063fb0e722b1461062a57610181565b8063b88d4fde14610508578063c2b530d614610531578063c87b56dd1461055c57610181565b806370a082311461040c578063715018a6146104495780638da5cb5b1461046057806395d89b411461048b578063a22cb465146104b6578063ae584918146104df57610181565b806318160ddd1161013e57806342842e0e1161011857806342842e0e146103395780634f6ccce7146103625780636352211e1461039f5780636fddc31a146103dc57610181565b806318160ddd146102a857806323b872dd146102d35780632f745c59146102fc57610181565b806301ffc9a71461018657806306fdde03146101c3578063081812fc146101ee578063095ea7b31461022b5780631249c58b14610254578063158f39251461027f575b600080fd5b34801561019257600080fd5b506101ad60048036038101906101a8919061245b565b610655565b6040516101ba91906124a3565b60405180910390f35b3480156101cf57600080fd5b506101d86106cf565b6040516101e5919061254e565b60405180910390f35b3480156101fa57600080fd5b50610215600480360381019061021091906125a6565b610761565b6040516102229190612614565b60405180910390f35b34801561023757600080fd5b50610252600480360381019061024d919061265b565b61077d565b005b34801561026057600080fd5b50610269610793565b60405161027691906126aa565b60405180910390f35b34801561028b57600080fd5b506102a660048036038101906102a191906126c5565b6107c4565b005b3480156102b457600080fd5b506102bd610810565b6040516102ca91906126aa565b60405180910390f35b3480156102df57600080fd5b506102fa60048036038101906102f591906126f2565b61081d565b005b34801561030857600080fd5b50610323600480360381019061031e919061265b565b61091f565b60405161033091906126aa565b60405180910390f35b34801561034557600080fd5b50610360600480360381019061035b91906126f2565b6109c8565b005b34801561036e57600080fd5b50610389600480360381019061038491906125a6565b6109e8565b60405161039691906126aa565b60405180910390f35b3480156103ab57600080fd5b506103c660048036038101906103c191906125a6565b610a5e565b6040516103d39190612614565b60405180910390f35b6103f660048036038101906103f19190612745565b610a70565b60405161040391906126aa565b60405180910390f35b34801561041857600080fd5b50610433600480360381019061042e91906126c5565b610c7b565b60405161044091906126aa565b60405180910390f35b34801561045557600080fd5b5061045e610d35565b005b34801561046c57600080fd5b50610475610d49565b6040516104829190612614565b60405180910390f35b34801561049757600080fd5b506104a0610d73565b6040516104ad919061254e565b60405180910390f35b3480156104c257600080fd5b506104dd60048036038101906104d891906127d8565b610e05565b005b3480156104eb57600080fd5b506105066004803603810190610501919061265b565b610e1b565b005b34801561051457600080fd5b5061052f600480360381019061052a919061294d565b6110b8565b005b34801561053d57600080fd5b506105466110dd565b6040516105539190612614565b60405180910390f35b34801561056857600080fd5b50610583600480360381019061057e91906125a6565b611103565b604051610590919061254e565b60405180910390f35b3480156105a557600080fd5b506105ae611124565b6040516105bb91906126aa565b60405180910390f35b3480156105d057600080fd5b506105eb60048036038101906105e691906129d0565b61112a565b6040516105f891906124a3565b60405180910390f35b34801561060d57600080fd5b50610628600480360381019061062391906126c5565b6111be565b005b34801561063657600080fd5b5061063f611244565b60405161064c9190612a6f565b60405180910390f35b60007f780e9d63000000000000000000000000000000000000000000000000000000007bffffffffffffffffffffffffffffffffffffffffffffffffffffffff1916827bffffffffffffffffffffffffffffffffffffffffffffffffffffffff191614806106c857506106c78261126a565b5b9050919050565b6060600080546106de90612ab9565b80601f016020809104026020016040519081016040528092919081815260200182805461070a90612ab9565b80156107575780601f1061072c57610100808354040283529160200191610757565b820191906000526020600020905b81548152906001019060200180831161073a57829003601f168201915b5050505050905090565b600061076c8261134c565b50610776826113d4565b9050919050565b61078f828261078a611411565b611419565b5050565b600080600b5490506107a5338261142b565b600b60008154809291906107b890612b19565b91905055508091505090565b6107cc611524565b80600c60006101000a81548173ffffffffffffffffffffffffffffffffffffffff021916908373ffffffffffffffffffffffffffffffffffffffff16021790555050565b6000600880549050905090565b600073ffffffffffffffffffffffffffffffffffffffff168273ffffffffffffffffffffffffffffffffffffffff160361088f5760006040517f64a0ae920000000000000000000000000000000000000000000000000000000081526004016108869190612614565b60405180910390fd5b60006108a3838361089e611411565b6115ab565b90508373ffffffffffffffffffffffffffffffffffffffff168173ffffffffffffffffffffffffffffffffffffffff1614610919578382826040517f64283d7b00000000000000000000000000000000000000000000000000000000815260040161091093929190612b61565b60405180910390fd5b50505050565b600061092a83610c7b565b821061096f5782826040517fa57d13dc000000000000000000000000000000000000000000000000000000008152600401610966929190612b98565b60405180910390fd5b600660008473ffffffffffffffffffffffffffffffffffffffff1673ffffffffffffffffffffffffffffffffffffffff168152602001908152602001600020600083815260200190815260200160002054905092915050565b6109e3838383604051806020016040528060008152506110b8565b505050565b60006109f2610810565b8210610a38576000826040517fa57d13dc000000000000000000000000000000000000000000000000000000008152600401610a2f929190612b98565b60405180910390fd5b60088281548110610a4c57610a4b612bc1565b5b90600052602060002001549050919050565b6000610a698261134c565b9050919050565b60003373ffffffffffffffffffffffffffffffffffffffff16610a92866116c8565b73ffffffffffffffffffffffffffffffffffffffff1614610ae8576040517f08c379a0000000000000000000000000000000000000000000000000000000008152600401610adf90612c3c565b60405180910390fd5b610af185611705565b600063ae58491860e01b3387604051602401610b0e929190612b98565b604051602081830303815290604052907bffffffffffffffffffffffffffffffffffffffffffffffffffffffff19166020820180517bffffffffffffffffffffffffffffffffffffffffffffffffffffffff838183161783525050505090506000600d60009054906101000a900473ffffffffffffffffffffffffffffffffffffffff1673ffffffffffffffffffffffffffffffffffffffff1663679b6ded34600c60009054906101000a900473ffffffffffffffffffffffffffffffffffffffff1660008a33338c8c8b6040518a63ffffffff1660e01b8152600401610bfc989796959493929190612cec565b60206040518083038185885af1158015610c1a573d6000803e3d6000fd5b50505050506040513d601f19601f82011682018060405250810190610c3f9190612d86565b9050807fde92b5b7839f4a2c640f5e3bbb66d415458dadc57a487b0c7fa562ed7c9c896f60405160405180910390a28092505050949350505050565b60008073ffffffffffffffffffffffffffffffffffffffff168273ffffffffffffffffffffffffffffffffffffffff1603610cee5760006040517f89c62b64000000000000000000000000000000000000000000000000000000008152600401610ce59190612614565b60405180910390fd5b600360008373ffffffffffffffffffffffffffffffffffffffff1673ffffffffffffffffffffffffffffffffffffffff168152602001908152602001600020549050919050565b610d3d611524565b610d47600061178b565b565b6000600a60009054906101000a900473ffffffffffffffffffffffffffffffffffffffff16905090565b606060018054610d8290612ab9565b80601f0160208091040260200160405190810160405280929190818152602001828054610dae90612ab9565b8015610dfb5780601f10610dd057610100808354040283529160200191610dfb565b820191906000526020600020905b815481529060010190602001808311610dde57829003601f168201915b5050505050905090565b610e17610e10611411565b8383611851565b5050565b6000600d60009054906101000a900473ffffffffffffffffffffffffffffffffffffffff1673ffffffffffffffffffffffffffffffffffffffff1663e78cea926040518163ffffffff1660e01b8152600401602060405180830381865afa158015610e8a573d6000803e3d6000fd5b505050506040513d601f19601f82011682018060405250810190610eae9190612df1565b90508073ffffffffffffffffffffffffffffffffffffffff163373ffffffffffffffffffffffffffffffffffffffff1614610f1e576040517f08c379a0000000000000000000000000000000000000000000000000000000008152600401610f1590612e6a565b60405180910390fd5b60008173ffffffffffffffffffffffffffffffffffffffff1663ab5d89436040518163ffffffff1660e01b8152600401602060405180830381865afa158015610f6b573d6000803e3d6000fd5b505050506040513d601f19601f82011682018060405250810190610f8f9190612e9f565b905060008173ffffffffffffffffffffffffffffffffffffffff166380648b026040518163ffffffff1660e01b8152600401602060405180830381865afa158015610fde573d6000803e3d6000fd5b505050506040513d601f19601f820116820180604052508101906110029190612e9f565b9050600c60009054906101000a900473ffffffffffffffffffffffffffffffffffffffff1673ffffffffffffffffffffffffffffffffffffffff168173ffffffffffffffffffffffffffffffffffffffff1614611094576040517f08c379a000000000000000000000000000000000000000000000000000000000815260040161108b90612f18565b60405180910390fd5b6001846110a19190612f38565b600b819055506110b1858561142b565b5050505050565b6110c384848461081d565b6110d76110ce611411565b858585856119c0565b50505050565b600c60009054906101000a900473ffffffffffffffffffffffffffffffffffffffff1681565b606061110e8261134c565b506000611119611b71565b905080915050919050565b600b5481565b6000600560008473ffffffffffffffffffffffffffffffffffffffff1673ffffffffffffffffffffffffffffffffffffffff16815260200190815260200160002060008373ffffffffffffffffffffffffffffffffffffffff1673ffffffffffffffffffffffffffffffffffffffff16815260200190815260200160002060009054906101000a900460ff16905092915050565b6111c6611524565b600073ffffffffffffffffffffffffffffffffffffffff168173ffffffffffffffffffffffffffffffffffffffff16036112385760006040517f1e4fbdf700000000000000000000000000000000000000000000000000000000815260040161122f9190612614565b60405180910390fd5b6112418161178b565b50565b600d60009054906101000a900473ffffffffffffffffffffffffffffffffffffffff1681565b60007f80ac58cd000000000000000000000000000000000000000000000000000000007bffffffffffffffffffffffffffffffffffffffffffffffffffffffff1916827bffffffffffffffffffffffffffffffffffffffffffffffffffffffff1916148061133557507f5b5e139f000000000000000000000000000000000000000000000000000000007bffffffffffffffffffffffffffffffffffffffffffffffffffffffff1916827bffffffffffffffffffffffffffffffffffffffffffffffffffffffff1916145b80611345575061134482611b91565b5b9050919050565b600080611358836116c8565b9050600073ffffffffffffffffffffffffffffffffffffffff168173ffffffffffffffffffffffffffffffffffffffff16036113cb57826040517f7e2732890000000000000000000000000000000000000000000000000000000081526004016113c291906126aa565b60405180910390fd5b80915050919050565b60006004600083815260200190815260200160002060009054906101000a900473ffffffffffffffffffffffffffffffffffffffff169050919050565b600033905090565b6114268383836001611bfb565b505050565b600073ffffffffffffffffffffffffffffffffffffffff168273ffffffffffffffffffffffffffffffffffffffff160361149d5760006040517f64a0ae920000000000000000000000000000000000000000000000000000000081526004016114949190612614565b60405180910390fd5b60006114ab838360006115ab565b9050600073ffffffffffffffffffffffffffffffffffffffff168173ffffffffffffffffffffffffffffffffffffffff161461151f5760006040517f73c6ac6e0000000000000000000000000000000000000000000000000000000081526004016115169190612614565b60405180910390fd5b505050565b61152c611411565b73ffffffffffffffffffffffffffffffffffffffff1661154a610d49565b73ffffffffffffffffffffffffffffffffffffffff16146115a95761156d611411565b6040517f118cdaa70000000000000000000000000000000000000000000000000000000081526004016115a09190612614565b60405180910390fd5b565b6000806115b9858585611dc0565b9050600073ffffffffffffffffffffffffffffffffffffffff168173ffffffffffffffffffffffffffffffffffffffff16036115fd576115f884611fda565b61163c565b8473ffffffffffffffffffffffffffffffffffffffff168173ffffffffffffffffffffffffffffffffffffffff161461163b5761163a8185612023565b5b5b600073ffffffffffffffffffffffffffffffffffffffff168573ffffffffffffffffffffffffffffffffffffffff160361167e576116798461210e565b6116bd565b8473ffffffffffffffffffffffffffffffffffffffff168173ffffffffffffffffffffffffffffffffffffffff16146116bc576116bb85856121df565b5b5b809150509392505050565b60006002600083815260200190815260200160002060009054906101000a900473ffffffffffffffffffffffffffffffffffffffff169050919050565b600061171460008360006115ab565b9050600073ffffffffffffffffffffffffffffffffffffffff168173ffffffffffffffffffffffffffffffffffffffff160361178757816040517f7e27328900000000000000000000000000000000000000000000000000000000815260040161177e91906126aa565b60405180910390fd5b5050565b6000600a60009054906101000a900473ffffffffffffffffffffffffffffffffffffffff16905081600a60006101000a81548173ffffffffffffffffffffffffffffffffffffffff021916908373ffffffffffffffffffffffffffffffffffffffff1602179055508173ffffffffffffffffffffffffffffffffffffffff168173ffffffffffffffffffffffffffffffffffffffff167f8be0079c531659141344cd1fd0a4f28419497f9722a3daafe3b4186f6b6457e060405160405180910390a35050565b600073ffffffffffffffffffffffffffffffffffffffff168273ffffffffffffffffffffffffffffffffffffffff16036118c257816040517f5b08ba180000000000000000000000000000000000000000000000000000000081526004016118b99190612614565b60405180910390fd5b80600560008573ffffffffffffffffffffffffffffffffffffffff1673ffffffffffffffffffffffffffffffffffffffff16815260200190815260200160002060008473ffffffffffffffffffffffffffffffffffffffff1673ffffffffffffffffffffffffffffffffffffffff16815260200190815260200160002060006101000a81548160ff0219169083151502179055508173ffffffffffffffffffffffffffffffffffffffff168373ffffffffffffffffffffffffffffffffffffffff167f17307eab39ab6107e8899845ad3d59bd9653f200f220920489ca2b5937696c31836040516119b391906124a3565b60405180910390a3505050565b60008373ffffffffffffffffffffffffffffffffffffffff163b1115611b6a578273ffffffffffffffffffffffffffffffffffffffff1663150b7a02868685856040518563ffffffff1660e01b8152600401611a1f9493929190612f6c565b6020604051808303816000875af1925050508015611a5b57506040513d601f19601f82011682018060405250810190611a589190612fcd565b60015b611adf573d8060008114611a8b576040519150601f19603f3d011682016040523d82523d6000602084013e611a90565b606091505b506000815103611ad757836040517f64a0ae92000000000000000000000000000000000000000000000000000000008152600401611ace9190612614565b60405180910390fd5b805181602001fd5b63150b7a0260e01b7bffffffffffffffffffffffffffffffffffffffffffffffffffffffff1916817bffffffffffffffffffffffffffffffffffffffffffffffffffffffff191614611b6857836040517f64a0ae92000000000000000000000000000000000000000000000000000000008152600401611b5f9190612614565b60405180910390fd5b505b5050505050565b606060405180608001604052806050815260200161305e60509139905090565b60007f01ffc9a7000000000000000000000000000000000000000000000000000000007bffffffffffffffffffffffffffffffffffffffffffffffffffffffff1916827bffffffffffffffffffffffffffffffffffffffffffffffffffffffff1916149050919050565b8080611c345750600073ffffffffffffffffffffffffffffffffffffffff168273ffffffffffffffffffffffffffffffffffffffff1614155b15611d68576000611c448461134c565b9050600073ffffffffffffffffffffffffffffffffffffffff168373ffffffffffffffffffffffffffffffffffffffff1614158015611caf57508273ffffffffffffffffffffffffffffffffffffffff168173ffffffffffffffffffffffffffffffffffffffff1614155b8015611cc25750611cc0818461112a565b155b15611d0457826040517fa9fbf51f000000000000000000000000000000000000000000000000000000008152600401611cfb9190612614565b60405180910390fd5b8115611d6657838573ffffffffffffffffffffffffffffffffffffffff168273ffffffffffffffffffffffffffffffffffffffff167f8c5be1e5ebec7d5bd14f71427d1e84f3dd0314c0f7b2291e5b200ac8c7c3b92560405160405180910390a45b505b836004600085815260200190815260200160002060006101000a81548173ffffffffffffffffffffffffffffffffffffffff021916908373ffffffffffffffffffffffffffffffffffffffff16021790555050505050565b600080611dcc846116c8565b9050600073ffffffffffffffffffffffffffffffffffffffff168373ffffffffffffffffffffffffffffffffffffffff1614611e0e57611e0d81848661226a565b5b600073ffffffffffffffffffffffffffffffffffffffff168173ffffffffffffffffffffffffffffffffffffffff1614611e9f57611e50600085600080611bfb565b6001600360008373ffffffffffffffffffffffffffffffffffffffff1673ffffffffffffffffffffffffffffffffffffffff168152602001908152602001600020600082825403925050819055505b600073ffffffffffffffffffffffffffffffffffffffff168573ffffffffffffffffffffffffffffffffffffffff1614611f22576001600360008773ffffffffffffffffffffffffffffffffffffffff1673ffffffffffffffffffffffffffffffffffffffff168152602001908152602001600020600082825401925050819055505b846002600086815260200190815260200160002060006101000a81548173ffffffffffffffffffffffffffffffffffffffff021916908373ffffffffffffffffffffffffffffffffffffffff160217905550838573ffffffffffffffffffffffffffffffffffffffff168273ffffffffffffffffffffffffffffffffffffffff167fddf252ad1be2c89b69c2b068fc378daa952ba7f163c4a11628f55a4df523b3ef60405160405180910390a4809150509392505050565b6008805490506009600083815260200190815260200160002081905550600881908060018154018082558091505060019003906000526020600020016000909190919091505550565b600061202e83610c7b565b90506000600760008481526020019081526020016000205490506000600660008673ffffffffffffffffffffffffffffffffffffffff1673ffffffffffffffffffffffffffffffffffffffff16815260200190815260200160002090508282146120da5760008160008581526020019081526020016000205490508082600085815260200190815260200160002081905550826007600083815260200190815260200160002081905550505b6007600085815260200190815260200160002060009055806000848152602001908152602001600020600090555050505050565b600060016008805490506121229190612ffa565b905060006009600084815260200190815260200160002054905060006008838154811061215257612151612bc1565b5b90600052602060002001549050806008838154811061217457612173612bc1565b5b9060005260206000200181905550816009600083815260200190815260200160002081905550600960008581526020019081526020016000206000905560088054806121c3576121c261302e565b5b6001900381819060005260206000200160009055905550505050565b600060016121ec84610c7b565b6121f69190612ffa565b905081600660008573ffffffffffffffffffffffffffffffffffffffff1673ffffffffffffffffffffffffffffffffffffffff168152602001908152602001600020600083815260200190815260200160002081905550806007600084815260200190815260200160002081905550505050565b61227583838361232e565b61232957600073ffffffffffffffffffffffffffffffffffffffff168373ffffffffffffffffffffffffffffffffffffffff16036122ea57806040517f7e2732890000000000000000000000000000000000000000000000000000000081526004016122e191906126aa565b60405180910390fd5b81816040517f177e802f000000000000000000000000000000000000000000000000000000008152600401612320929190612b98565b60405180910390fd5b505050565b60008073ffffffffffffffffffffffffffffffffffffffff168373ffffffffffffffffffffffffffffffffffffffff16141580156123e657508273ffffffffffffffffffffffffffffffffffffffff168473ffffffffffffffffffffffffffffffffffffffff1614806123a757506123a6848461112a565b5b806123e557508273ffffffffffffffffffffffffffffffffffffffff166123cd836113d4565b73ffffffffffffffffffffffffffffffffffffffff16145b5b90509392505050565b6000604051905090565b600080fd5b600080fd5b60007fffffffff0000000000000000000000000000000000000000000000000000000082169050919050565b61243881612403565b811461244357600080fd5b50565b6000813590506124558161242f565b92915050565b600060208284031215612471576124706123f9565b5b600061247f84828501612446565b91505092915050565b60008115159050919050565b61249d81612488565b82525050565b60006020820190506124b86000830184612494565b92915050565b600081519050919050565b600082825260208201905092915050565b60005b838110156124f85780820151818401526020810190506124dd565b60008484015250505050565b6000601f19601f8301169050919050565b6000612520826124be565b61252a81856124c9565b935061253a8185602086016124da565b61254381612504565b840191505092915050565b600060208201905081810360008301526125688184612515565b905092915050565b6000819050919050565b61258381612570565b811461258e57600080fd5b50565b6000813590506125a08161257a565b92915050565b6000602082840312156125bc576125bb6123f9565b5b60006125ca84828501612591565b91505092915050565b600073ffffffffffffffffffffffffffffffffffffffff82169050919050565b60006125fe826125d3565b9050919050565b61260e816125f3565b82525050565b60006020820190506126296000830184612605565b92915050565b612638816125f3565b811461264357600080fd5b50565b6000813590506126558161262f565b92915050565b60008060408385031215612672576126716123f9565b5b600061268085828601612646565b925050602061269185828601612591565b9150509250929050565b6126a481612570565b82525050565b60006020820190506126bf600083018461269b565b92915050565b6000602082840312156126db576126da6123f9565b5b60006126e984828501612646565b91505092915050565b60008060006060848603121561270b5761270a6123f9565b5b600061271986828701612646565b935050602061272a86828701612646565b925050604061273b86828701612591565b9150509250925092565b6000806000806080858703121561275f5761275e6123f9565b5b600061276d87828801612591565b945050602061277e87828801612591565b935050604061278f87828801612591565b92505060606127a087828801612591565b91505092959194509250565b6127b581612488565b81146127c057600080fd5b50565b6000813590506127d2816127ac565b92915050565b600080604083850312156127ef576127ee6123f9565b5b60006127fd85828601612646565b925050602061280e858286016127c3565b9150509250929050565b600080fd5b600080fd5b7f4e487b7100000000000000000000000000000000000000000000000000000000600052604160045260246000fd5b61285a82612504565b810181811067ffffffffffffffff8211171561287957612878612822565b5b80604052505050565b600061288c6123ef565b90506128988282612851565b919050565b600067ffffffffffffffff8211156128b8576128b7612822565b5b6128c182612504565b9050602081019050919050565b82818337600083830152505050565b60006128f06128eb8461289d565b612882565b90508281526020810184848401111561290c5761290b61281d565b5b6129178482856128ce565b509392505050565b600082601f83011261293457612933612818565b5b81356129448482602086016128dd565b91505092915050565b60008060008060808587031215612967576129666123f9565b5b600061297587828801612646565b945050602061298687828801612646565b935050604061299787828801612591565b925050606085013567ffffffffffffffff8111156129b8576129b76123fe565b5b6129c48782880161291f565b91505092959194509250565b600080604083850312156129e7576129e66123f9565b5b60006129f585828601612646565b9250506020612a0685828601612646565b9150509250929050565b6000819050919050565b6000612a35612a30612a2b846125d3565b612a10565b6125d3565b9050919050565b6000612a4782612a1a565b9050919050565b6000612a5982612a3c565b9050919050565b612a6981612a4e565b82525050565b6000602082019050612a846000830184612a60565b92915050565b7f4e487b7100000000000000000000000000000000000000000000000000000000600052602260045260246000fd5b60006002820490506001821680612ad157607f821691505b602082108103612ae457612ae3612a8a565b5b50919050565b7f4e487b7100000000000000000000000000000000000000000000000000000000600052601160045260246000fd5b6000612b2482612570565b91507fffffffffffffffffffffffffffffffffffffffffffffffffffffffffffffffff8203612b5657612b55612aea565b5b600182019050919050565b6000606082019050612b766000830186612605565b612b83602083018561269b565b612b906040830184612605565b949350505050565b6000604082019050612bad6000830185612605565b612bba602083018461269b565b9392505050565b7f4e487b7100000000000000000000000000000000000000000000000000000000600052603260045260246000fd5b7f4e4654206e6f74206f776e65642062792073656e646572000000000000000000600082015250565b6000612c266017836124c9565b9150612c3182612bf0565b602082019050919050565b60006020820190508181036000830152612c5581612c19565b9050919050565b6000819050919050565b6000612c81612c7c612c7784612c5c565b612a10565b612570565b9050919050565b612c9181612c66565b82525050565b600081519050919050565b600082825260208201905092915050565b6000612cbe82612c97565b612cc88185612ca2565b9350612cd88185602086016124da565b612ce181612504565b840191505092915050565b600061010082019050612d02600083018b612605565b612d0f602083018a612c88565b612d1c604083018961269b565b612d296060830188612605565b612d366080830187612605565b612d4360a083018661269b565b612d5060c083018561269b565b81810360e0830152612d628184612cb3565b90509998505050505050505050565b600081519050612d808161257a565b92915050565b600060208284031215612d9c57612d9b6123f9565b5b6000612daa84828501612d71565b91505092915050565b6000612dbe826125f3565b9050919050565b612dce81612db3565b8114612dd957600080fd5b50565b600081519050612deb81612dc5565b92915050565b600060208284031215612e0757612e066123f9565b5b6000612e1584828501612ddc565b91505092915050565b7f4e4f545f42524944474500000000000000000000000000000000000000000000600082015250565b6000612e54600a836124c9565b9150612e5f82612e1e565b602082019050919050565b60006020820190508181036000830152612e8381612e47565b9050919050565b600081519050612e998161262f565b92915050565b600060208284031215612eb557612eb46123f9565b5b6000612ec384828501612e8a565b91505092915050565b7f4772656574696e67206f6e6c792075706461746561626c65206279204c320000600082015250565b6000612f02601e836124c9565b9150612f0d82612ecc565b602082019050919050565b60006020820190508181036000830152612f3181612ef5565b9050919050565b6000612f4382612570565b9150612f4e83612570565b9250828201905080821115612f6657612f65612aea565b5b92915050565b6000608082019050612f816000830187612605565b612f8e6020830186612605565b612f9b604083018561269b565b8181036060830152612fad8184612cb3565b905095945050505050565b600081519050612fc78161242f565b92915050565b600060208284031215612fe357612fe26123f9565b5b6000612ff184828501612fb8565b91505092915050565b600061300582612570565b915061301083612570565b925082820390508181111561302857613027612aea565b5b92915050565b7f4e487b7100000000000000000000000000000000000000000000000000000000600052603160045260246000fdfe68747470733a2f2f676174657761792e70696e6174612e636c6f75642f697066732f516d66336d716b6931664d5a355335666e73704846394c4d69657a424564435162756b6e59686344414c6e693361a2646970667358221220312c15e1bd178ddc3e1bddde3a4f0a88711ef72295ca2ce877f8e65ada9a994364736f6c63430008180033",
  "linkReferences": {},
  "deployedLinkReferences": {}
}