{
  "_format": "hh-sol-artifact-1",
  "contractName": "CommunitasNFTL2",
  "sourceName": "contracts/l2/CommunitasNFTL2.sol",
  "abi": [
    {
      "inputs": [
        {
          "internalType": "address",
          "name": "_l1Target",
          "type": "address"
        }
      ],
      "stateMutability": "nonpayable",
      "type": "constructor"
    },
    {
      "inputs": [],
      "name": "ERC721EnumerableForbiddenBatchMint",
      "type": "error"
    },
    {
      "inputs": [
        {
          "internalType": "address",
          "name": "sender",
          "type": "address"
        },
        {
          "internalType": "uint256",
          "name": "tokenId",
          "type": "uint256"
        },
        {
          "internalType": "address",
          "name": "owner",
          "type": "address"
        }
      ],
      "name": "ERC721IncorrectOwner",
      "type": "error"
    },
    {
      "inputs": [
        {
          "internalType": "address",
          "name": "operator",
          "type": "address"
        },
        {
          "internalType": "uint256",
          "name": "tokenId",
          "type": "uint256"
        }
      ],
      "name": "ERC721InsufficientApproval",
      "type": "error"
    },
    {
      "inputs": [
        {
          "internalType": "address",
          "name": "approver",
          "type": "address"
        }
      ],
      "name": "ERC721InvalidApprover",
      "type": "error"
    },
    {
      "inputs": [
        {
          "internalType": "address",
          "name": "operator",
          "type": "address"
        }
      ],
      "name": "ERC721InvalidOperator",
      "type": "error"
    },
    {
      "inputs": [
        {
          "internalType": "address",
          "name": "owner",
          "type": "address"
        }
      ],
      "name": "ERC721InvalidOwner",
      "type": "error"
    },
    {
      "inputs": [
        {
          "internalType": "address",
          "name": "receiver",
          "type": "address"
        }
      ],
      "name": "ERC721InvalidReceiver",
      "type": "error"
    },
    {
      "inputs": [
        {
          "internalType": "address",
          "name": "sender",
          "type": "address"
        }
      ],
      "name": "ERC721InvalidSender",
      "type": "error"
    },
    {
      "inputs": [
        {
          "internalType": "uint256",
          "name": "tokenId",
          "type": "uint256"
        }
      ],
      "name": "ERC721NonexistentToken",
      "type": "error"
    },
    {
      "inputs": [
        {
          "internalType": "address",
          "name": "owner",
          "type": "address"
        },
        {
          "internalType": "uint256",
          "name": "index",
          "type": "uint256"
        }
      ],
      "name": "ERC721OutOfBoundsIndex",
      "type": "error"
    },
    {
      "inputs": [
        {
          "internalType": "address",
          "name": "owner",
          "type": "address"
        }
      ],
      "name": "OwnableInvalidOwner",
      "type": "error"
    },
    {
      "inputs": [
        {
          "internalType": "address",
          "name": "account",
          "type": "address"
        }
      ],
      "name": "OwnableUnauthorizedAccount",
      "type": "error"
    },
    {
      "anonymous": false,
      "inputs": [
        {
          "indexed": true,
          "internalType": "address",
          "name": "owner",
          "type": "address"
        },
        {
          "indexed": true,
          "internalType": "address",
          "name": "approved",
          "type": "address"
        },
        {
          "indexed": true,
          "internalType": "uint256",
          "name": "tokenId",
          "type": "uint256"
        }
      ],
      "name": "Approval",
      "type": "event"
    },
    {
      "anonymous": false,
      "inputs": [
        {
          "indexed": true,
          "internalType": "address",
          "name": "owner",
          "type": "address"
        },
        {
          "indexed": true,
          "internalType": "address",
          "name": "operator",
          "type": "address"
        },
        {
          "indexed": false,
          "internalType": "bool",
          "name": "approved",
          "type": "bool"
        }
      ],
      "name": "ApprovalForAll",
      "type": "event"
    },
    {
      "anonymous": false,
      "inputs": [
        {
          "indexed": true,
          "internalType": "uint256",
          "name": "withdrawalId",
          "type": "uint256"
        },
        {
          "indexed": true,
          "internalType": "address",
          "name": "from",
          "type": "address"
        },
        {
          "indexed": true,
          "internalType": "uint256",
          "name": "tokenId",
          "type": "uint256"
        },
        {
          "indexed": false,
          "internalType": "string",
          "name": "tokenURI",
          "type": "string"
        }
      ],
      "name": "L2ToL1TxCreated",
      "type": "event"
    },
    {
      "anonymous": false,
      "inputs": [
        {
          "indexed": true,
          "internalType": "address",
          "name": "previousOwner",
          "type": "address"
        },
        {
          "indexed": true,
          "internalType": "address",
          "name": "newOwner",
          "type": "address"
        }
      ],
      "name": "OwnershipTransferred",
      "type": "event"
    },
    {
      "anonymous": false,
      "inputs": [
        {
          "indexed": true,
          "internalType": "address",
          "name": "from",
          "type": "address"
        },
        {
          "indexed": true,
          "internalType": "address",
          "name": "to",
          "type": "address"
        },
        {
          "indexed": true,
          "internalType": "uint256",
          "name": "tokenId",
          "type": "uint256"
        }
      ],
      "name": "Transfer",
      "type": "event"
    },
    {
      "inputs": [
        {
          "internalType": "address",
          "name": "to",
          "type": "address"
        },
        {
          "internalType": "uint256",
          "name": "tokenId",
          "type": "uint256"
        }
      ],
      "name": "approve",
      "outputs": [],
      "stateMutability": "nonpayable",
      "type": "function"
    },
    {
      "inputs": [
        {
          "internalType": "address",
          "name": "owner",
          "type": "address"
        }
      ],
      "name": "balanceOf",
      "outputs": [
        {
          "internalType": "uint256",
          "name": "",
          "type": "uint256"
        }
      ],
      "stateMutability": "view",
      "type": "function"
    },
    {
      "inputs": [
        {
          "internalType": "uint256",
          "name": "tokenId",
          "type": "uint256"
        }
      ],
      "name": "bridgeToL1",
      "outputs": [
        {
          "internalType": "uint256",
          "name": "",
          "type": "uint256"
        }
      ],
      "stateMutability": "nonpayable",
      "type": "function"
    },
    {
      "inputs": [
        {
          "internalType": "uint256",
          "name": "tokenId",
          "type": "uint256"
        }
      ],
      "name": "burn",
      "outputs": [],
      "stateMutability": "nonpayable",
      "type": "function"
    },
    {
      "inputs": [
        {
          "internalType": "uint256",
          "name": "tokenId",
          "type": "uint256"
        }
      ],
      "name": "getApproved",
      "outputs": [
        {
          "internalType": "address",
          "name": "",
          "type": "address"
        }
      ],
      "stateMutability": "view",
      "type": "function"
    },
    {
      "inputs": [
        {
          "internalType": "address",
          "name": "owner",
          "type": "address"
        },
        {
          "internalType": "address",
          "name": "operator",
          "type": "address"
        }
      ],
      "name": "isApprovedForAll",
      "outputs": [
        {
          "internalType": "bool",
          "name": "",
          "type": "bool"
        }
      ],
      "stateMutability": "view",
      "type": "function"
    },
    {
      "inputs": [],
      "name": "l1Target",
      "outputs": [
        {
          "internalType": "address",
          "name": "",
          "type": "address"
        }
      ],
      "stateMutability": "view",
      "type": "function"
    },
    {
      "inputs": [],
      "name": "mint",
      "outputs": [
        {
          "internalType": "uint256",
          "name": "",
          "type": "uint256"
        }
      ],
      "stateMutability": "nonpayable",
      "type": "function"
    },
    {
      "inputs": [
        {
          "internalType": "address",
          "name": "receiver",
          "type": "address"
        },
        {
          "internalType": "uint256",
          "name": "tokenId",
          "type": "uint256"
        }
      ],
      "name": "mintFromBridge",
      "outputs": [],
      "stateMutability": "nonpayable",
      "type": "function"
    },
    {
      "inputs": [],
      "name": "name",
      "outputs": [
        {
          "internalType": "string",
          "name": "",
          "type": "string"
        }
      ],
      "stateMutability": "view",
      "type": "function"
    },
    {
      "inputs": [],
      "name": "owner",
      "outputs": [
        {
          "internalType": "address",
          "name": "",
          "type": "address"
        }
      ],
      "stateMutability": "view",
      "type": "function"
    },
    {
      "inputs": [
        {
          "internalType": "uint256",
          "name": "tokenId",
          "type": "uint256"
        }
      ],
      "name": "ownerOf",
      "outputs": [
        {
          "internalType": "address",
          "name": "",
          "type": "address"
        }
      ],
      "stateMutability": "view",
      "type": "function"
    },
    {
      "inputs": [],
      "name": "renounceOwnership",
      "outputs": [],
      "stateMutability": "nonpayable",
      "type": "function"
    },
    {
      "inputs": [
        {
          "internalType": "address",
          "name": "from",
          "type": "address"
        },
        {
          "internalType": "address",
          "name": "to",
          "type": "address"
        },
        {
          "internalType": "uint256",
          "name": "tokenId",
          "type": "uint256"
        }
      ],
      "name": "safeTransferFrom",
      "outputs": [],
      "stateMutability": "nonpayable",
      "type": "function"
    },
    {
      "inputs": [
        {
          "internalType": "address",
          "name": "from",
          "type": "address"
        },
        {
          "internalType": "address",
          "name": "to",
          "type": "address"
        },
        {
          "internalType": "uint256",
          "name": "tokenId",
          "type": "uint256"
        },
        {
          "internalType": "bytes",
          "name": "data",
          "type": "bytes"
        }
      ],
      "name": "safeTransferFrom",
      "outputs": [],
      "stateMutability": "nonpayable",
      "type": "function"
    },
    {
      "inputs": [
        {
          "internalType": "address",
          "name": "operator",
          "type": "address"
        },
        {
          "internalType": "bool",
          "name": "approved",
          "type": "bool"
        }
      ],
      "name": "setApprovalForAll",
      "outputs": [],
      "stateMutability": "nonpayable",
      "type": "function"
    },
    {
      "inputs": [
        {
          "internalType": "bytes4",
          "name": "interfaceId",
          "type": "bytes4"
        }
      ],
      "name": "supportsInterface",
      "outputs": [
        {
          "internalType": "bool",
          "name": "",
          "type": "bool"
        }
      ],
      "stateMutability": "view",
      "type": "function"
    },
    {
      "inputs": [],
      "name": "symbol",
      "outputs": [
        {
          "internalType": "string",
          "name": "",
          "type": "string"
        }
      ],
      "stateMutability": "view",
      "type": "function"
    },
    {
      "inputs": [
        {
          "internalType": "uint256",
          "name": "index",
          "type": "uint256"
        }
      ],
      "name": "tokenByIndex",
      "outputs": [
        {
          "internalType": "uint256",
          "name": "",
          "type": "uint256"
        }
      ],
      "stateMutability": "view",
      "type": "function"
    },
    {
      "inputs": [],
      "name": "tokenCounter",
      "outputs": [
        {
          "internalType": "uint256",
          "name": "",
          "type": "uint256"
        }
      ],
      "stateMutability": "view",
      "type": "function"
    },
    {
      "inputs": [
        {
          "internalType": "address",
          "name": "owner",
          "type": "address"
        },
        {
          "internalType": "uint256",
          "name": "index",
          "type": "uint256"
        }
      ],
      "name": "tokenOfOwnerByIndex",
      "outputs": [
        {
          "internalType": "uint256",
          "name": "",
          "type": "uint256"
        }
      ],
      "stateMutability": "view",
      "type": "function"
    },
    {
      "inputs": [
        {
          "internalType": "uint256",
          "name": "tokenId",
          "type": "uint256"
        }
      ],
      "name": "tokenURI",
      "outputs": [
        {
          "internalType": "string",
          "name": "",
          "type": "string"
        }
      ],
      "stateMutability": "view",
      "type": "function"
    },
    {
      "inputs": [],
      "name": "totalSupply",
      "outputs": [
        {
          "internalType": "uint256",
          "name": "",
          "type": "uint256"
        }
      ],
      "stateMutability": "view",
      "type": "function"
    },
    {
      "inputs": [
        {
          "internalType": "address",
          "name": "from",
          "type": "address"
        },
        {
          "internalType": "address",
          "name": "to",
          "type": "address"
        },
        {
          "internalType": "uint256",
          "name": "tokenId",
          "type": "uint256"
        }
      ],
      "name": "transferFrom",
      "outputs": [],
      "stateMutability": "nonpayable",
      "type": "function"
    },
    {
      "inputs": [
        {
          "internalType": "address",
          "name": "newOwner",
          "type": "address"
        }
      ],
      "name": "transferOwnership",
      "outputs": [],
      "stateMutability": "nonpayable",
      "type": "function"
    },
    {
      "inputs": [
        {
          "internalType": "address",
          "name": "_l1Target",
          "type": "address"
        }
      ],
      "name": "updatel1Target",
      "outputs": [],
      "stateMutability": "nonpayable",
      "type": "function"
    }
  ],
  "bytecode": "0x60806040523480156200001157600080fd5b50604051620031da380380620031da8339818101604052810190620000379190620002c9565b336040518060400160405280600d81526020017f436f6d6d756e697461734e4654000000000000000000000000000000000000008152506040518060400160405280600481526020017f434e4654000000000000000000000000000000000000000000000000000000008152508160009081620000b5919062000575565b508060019081620000c7919062000575565b505050600073ffffffffffffffffffffffffffffffffffffffff168173ffffffffffffffffffffffffffffffffffffffff16036200013f5760006040517f1e4fbdf70000000000000000000000000000000000000000000000000000000081526004016200013691906200066d565b60405180910390fd5b62000150816200019960201b60201c565b5080600c60006101000a81548173ffffffffffffffffffffffffffffffffffffffff021916908373ffffffffffffffffffffffffffffffffffffffff160217905550506200068a565b6000600a60009054906101000a900473ffffffffffffffffffffffffffffffffffffffff16905081600a60006101000a81548173ffffffffffffffffffffffffffffffffffffffff021916908373ffffffffffffffffffffffffffffffffffffffff1602179055508173ffffffffffffffffffffffffffffffffffffffff168173ffffffffffffffffffffffffffffffffffffffff167f8be0079c531659141344cd1fd0a4f28419497f9722a3daafe3b4186f6b6457e060405160405180910390a35050565b600080fd5b600073ffffffffffffffffffffffffffffffffffffffff82169050919050565b6000620002918262000264565b9050919050565b620002a38162000284565b8114620002af57600080fd5b50565b600081519050620002c38162000298565b92915050565b600060208284031215620002e257620002e16200025f565b5b6000620002f284828501620002b2565b91505092915050565b600081519050919050565b7f4e487b7100000000000000000000000000000000000000000000000000000000600052604160045260246000fd5b7f4e487b7100000000000000000000000000000000000000000000000000000000600052602260045260246000fd5b600060028204905060018216806200037d57607f821691505b60208210810362000393576200039262000335565b5b50919050565b60008190508160005260206000209050919050565b60006020601f8301049050919050565b600082821b905092915050565b600060088302620003fd7fffffffffffffffffffffffffffffffffffffffffffffffffffffffffffffffff82620003be565b620004098683620003be565b95508019841693508086168417925050509392505050565b6000819050919050565b6000819050919050565b600062000456620004506200044a8462000421565b6200042b565b62000421565b9050919050565b6000819050919050565b620004728362000435565b6200048a62000481826200045d565b848454620003cb565b825550505050565b600090565b620004a162000492565b620004ae81848462000467565b505050565b5b81811015620004d657620004ca60008262000497565b600181019050620004b4565b5050565b601f8211156200052557620004ef8162000399565b620004fa84620003ae565b810160208510156200050a578190505b620005226200051985620003ae565b830182620004b3565b50505b505050565b600082821c905092915050565b60006200054a600019846008026200052a565b1980831691505092915050565b600062000565838362000537565b9150826002028217905092915050565b6200058082620002fb565b67ffffffffffffffff8111156200059c576200059b62000306565b5b620005a8825462000364565b620005b5828285620004da565b600060209050601f831160018114620005ed5760008415620005d8578287015190505b620005e4858262000557565b86555062000654565b601f198416620005fd8662000399565b60005b82811015620006275784890151825560018201915060208501945060208101905062000600565b8683101562000647578489015162000643601f89168262000537565b8355505b6001600288020188555050505b505050505050565b620006678162000284565b82525050565b60006020820190506200068460008301846200065c565b92915050565b612b40806200069a6000396000f3fe608060405234801561001057600080fd5b506004361061018e5760003560e01c80636352211e116100de578063a22cb46511610097578063c87b56dd11610071578063c87b56dd14610481578063d082e381146104b1578063e985e9c5146104cf578063f2fde38b146104ff5761018e565b8063a22cb4651461042d578063ae58491814610449578063b88d4fde146104655761018e565b80636352211e146103575780636704f4fb1461038757806370a08231146103b7578063715018a6146103e75780638da5cb5b146103f157806395d89b411461040f5761018e565b806323b872dd1161014b57806342842e0e1161012557806342842e0e146102d157806342966c68146102ed5780634f6ccce7146103095780635325e4a6146103395761018e565b806323b872dd146102695780632f745c59146102855780633901da86146102b55761018e565b806301ffc9a71461019357806306fdde03146101c3578063081812fc146101e1578063095ea7b3146102115780631249c58b1461022d57806318160ddd1461024b575b600080fd5b6101ad60048036038101906101a89190612142565b61051b565b6040516101ba919061218a565b60405180910390f35b6101cb610595565b6040516101d89190612235565b60405180910390f35b6101fb60048036038101906101f6919061228d565b610627565b60405161020891906122fb565b60405180910390f35b61022b60048036038101906102269190612342565b610643565b005b610235610659565b6040516102429190612391565b60405180910390f35b61025361068a565b6040516102609190612391565b60405180910390f35b610283600480360381019061027e91906123ac565b610697565b005b61029f600480360381019061029a9190612342565b610799565b6040516102ac9190612391565b60405180910390f35b6102cf60048036038101906102ca91906123ff565b610842565b005b6102eb60048036038101906102e691906123ac565b61088e565b005b6103076004803603810190610302919061228d565b6108ae565b005b610323600480360381019061031e919061228d565b6108ba565b6040516103309190612391565b60405180910390f35b610341610930565b60405161034e91906122fb565b60405180910390f35b610371600480360381019061036c919061228d565b610956565b60405161037e91906122fb565b60405180910390f35b6103a1600480360381019061039c919061228d565b610968565b6040516103ae9190612391565b60405180910390f35b6103d160048036038101906103cc91906123ff565b610b72565b6040516103de9190612391565b60405180910390f35b6103ef610c2c565b005b6103f9610c40565b60405161040691906122fb565b60405180910390f35b610417610c6a565b6040516104249190612235565b60405180910390f35b61044760048036038101906104429190612458565b610cfc565b005b610463600480360381019061045e9190612342565b610d12565b005b61047f600480360381019061047a91906125cd565b610dcb565b005b61049b6004803603810190610496919061228d565b610df0565b6040516104a89190612235565b60405180910390f35b6104b9610e11565b6040516104c69190612391565b60405180910390f35b6104e960048036038101906104e49190612650565b610e17565b6040516104f6919061218a565b60405180910390f35b610519600480360381019061051491906123ff565b610eab565b005b60007f780e9d63000000000000000000000000000000000000000000000000000000007bffffffffffffffffffffffffffffffffffffffffffffffffffffffff1916827bffffffffffffffffffffffffffffffffffffffffffffffffffffffff1916148061058e575061058d82610f31565b5b9050919050565b6060600080546105a4906126bf565b80601f01602080910402602001604051908101604052809291908181526020018280546105d0906126bf565b801561061d5780601f106105f25761010080835404028352916020019161061d565b820191906000526020600020905b81548152906001019060200180831161060057829003601f168201915b5050505050905090565b600061063282611013565b5061063c8261109b565b9050919050565b61065582826106506110d8565b6110e0565b5050565b600080600b54905061066b33826110f2565b600b600081548092919061067e9061271f565b91905055508091505090565b6000600880549050905090565b600073ffffffffffffffffffffffffffffffffffffffff168273ffffffffffffffffffffffffffffffffffffffff16036107095760006040517f64a0ae9200000000000000000000000000000000000000000000000000000000815260040161070091906122fb565b60405180910390fd5b600061071d83836107186110d8565b6111eb565b90508373ffffffffffffffffffffffffffffffffffffffff168173ffffffffffffffffffffffffffffffffffffffff1614610793578382826040517f64283d7b00000000000000000000000000000000000000000000000000000000815260040161078a93929190612767565b60405180910390fd5b50505050565b60006107a483610b72565b82106107e95782826040517fa57d13dc0000000000000000000000000000000000000000000000000000000081526004016107e092919061279e565b60405180910390fd5b600660008473ffffffffffffffffffffffffffffffffffffffff1673ffffffffffffffffffffffffffffffffffffffff168152602001908152602001600020600083815260200190815260200160002054905092915050565b61084a611308565b80600c60006101000a81548173ffffffffffffffffffffffffffffffffffffffff021916908373ffffffffffffffffffffffffffffffffffffffff16021790555050565b6108a983838360405180602001604052806000815250610dcb565b505050565b6108b78161138f565b50565b60006108c461068a565b821061090a576000826040517fa57d13dc00000000000000000000000000000000000000000000000000000000815260040161090192919061279e565b60405180910390fd5b6008828154811061091e5761091d6127c7565b5b90600052602060002001549050919050565b600c60009054906101000a900473ffffffffffffffffffffffffffffffffffffffff1681565b600061096182611013565b9050919050565b60003373ffffffffffffffffffffffffffffffffffffffff1661098a83611415565b73ffffffffffffffffffffffffffffffffffffffff16146109e0576040517f08c379a00000000000000000000000000000000000000000000000000000000081526004016109d790612842565b60405180910390fd5b60006109eb83610df0565b90506109f68361138f565b600063ae58491860e01b3385604051602401610a1392919061279e565b604051602081830303815290604052907bffffffffffffffffffffffffffffffffffffffffffffffffffffffff19166020820180517bffffffffffffffffffffffffffffffffffffffffffffffffffffffff838183161783525050505090506000606473ffffffffffffffffffffffffffffffffffffffff1663928c169a600c60009054906101000a900473ffffffffffffffffffffffffffffffffffffffff16846040518363ffffffff1660e01b8152600401610ad29291906128b7565b6020604051808303816000875af1158015610af1573d6000803e3d6000fd5b505050506040513d601f19601f82011682018060405250810190610b1591906128fc565b9050843373ffffffffffffffffffffffffffffffffffffffff16827f2b9a4827ca093fedbd5ecbde844b8dbada8a6932c443236a2701bfeb5493b0da86604051610b5f9190612235565b60405180910390a4809350505050919050565b60008073ffffffffffffffffffffffffffffffffffffffff168273ffffffffffffffffffffffffffffffffffffffff1603610be55760006040517f89c62b64000000000000000000000000000000000000000000000000000000008152600401610bdc91906122fb565b60405180910390fd5b600360008373ffffffffffffffffffffffffffffffffffffffff1673ffffffffffffffffffffffffffffffffffffffff168152602001908152602001600020549050919050565b610c34611308565b610c3e6000611452565b565b6000600a60009054906101000a900473ffffffffffffffffffffffffffffffffffffffff16905090565b606060018054610c79906126bf565b80601f0160208091040260200160405190810160405280929190818152602001828054610ca5906126bf565b8015610cf25780601f10610cc757610100808354040283529160200191610cf2565b820191906000526020600020905b815481529060010190602001808311610cd557829003601f168201915b5050505050905090565b610d0e610d076110d8565b8383611518565b5050565b610d3d600c60009054906101000a900473ffffffffffffffffffffffffffffffffffffffff16611687565b73ffffffffffffffffffffffffffffffffffffffff163373ffffffffffffffffffffffffffffffffffffffff1614610daa576040517f08c379a0000000000000000000000000000000000000000000000000000000008152600401610da190612975565b60405180910390fd5b610db482826110f2565b600181610dc19190612995565b600b819055505050565b610dd6848484610697565b610dea610de16110d8565b858585856116a7565b50505050565b6060610dfb82611013565b506000610e06611858565b905080915050919050565b600b5481565b6000600560008473ffffffffffffffffffffffffffffffffffffffff1673ffffffffffffffffffffffffffffffffffffffff16815260200190815260200160002060008373ffffffffffffffffffffffffffffffffffffffff1673ffffffffffffffffffffffffffffffffffffffff16815260200190815260200160002060009054906101000a900460ff16905092915050565b610eb3611308565b600073ffffffffffffffffffffffffffffffffffffffff168173ffffffffffffffffffffffffffffffffffffffff1603610f255760006040517f1e4fbdf7000000000000000000000000000000000000000000000000000000008152600401610f1c91906122fb565b60405180910390fd5b610f2e81611452565b50565b60007f80ac58cd000000000000000000000000000000000000000000000000000000007bffffffffffffffffffffffffffffffffffffffffffffffffffffffff1916827bffffffffffffffffffffffffffffffffffffffffffffffffffffffff19161480610ffc57507f5b5e139f000000000000000000000000000000000000000000000000000000007bffffffffffffffffffffffffffffffffffffffffffffffffffffffff1916827bffffffffffffffffffffffffffffffffffffffffffffffffffffffff1916145b8061100c575061100b82611878565b5b9050919050565b60008061101f83611415565b9050600073ffffffffffffffffffffffffffffffffffffffff168173ffffffffffffffffffffffffffffffffffffffff160361109257826040517f7e2732890000000000000000000000000000000000000000000000000000000081526004016110899190612391565b60405180910390fd5b80915050919050565b60006004600083815260200190815260200160002060009054906101000a900473ffffffffffffffffffffffffffffffffffffffff169050919050565b600033905090565b6110ed83838360016118e2565b505050565b600073ffffffffffffffffffffffffffffffffffffffff168273ffffffffffffffffffffffffffffffffffffffff16036111645760006040517f64a0ae9200000000000000000000000000000000000000000000000000000000815260040161115b91906122fb565b60405180910390fd5b6000611172838360006111eb565b9050600073ffffffffffffffffffffffffffffffffffffffff168173ffffffffffffffffffffffffffffffffffffffff16146111e65760006040517f73c6ac6e0000000000000000000000000000000000000000000000000000000081526004016111dd91906122fb565b60405180910390fd5b505050565b6000806111f9858585611aa7565b9050600073ffffffffffffffffffffffffffffffffffffffff168173ffffffffffffffffffffffffffffffffffffffff160361123d5761123884611cc1565b61127c565b8473ffffffffffffffffffffffffffffffffffffffff168173ffffffffffffffffffffffffffffffffffffffff161461127b5761127a8185611d0a565b5b5b600073ffffffffffffffffffffffffffffffffffffffff168573ffffffffffffffffffffffffffffffffffffffff16036112be576112b984611df5565b6112fd565b8473ffffffffffffffffffffffffffffffffffffffff168173ffffffffffffffffffffffffffffffffffffffff16146112fc576112fb8585611ec6565b5b5b809150509392505050565b6113106110d8565b73ffffffffffffffffffffffffffffffffffffffff1661132e610c40565b73ffffffffffffffffffffffffffffffffffffffff161461138d576113516110d8565b6040517f118cdaa700000000000000000000000000000000000000000000000000000000815260040161138491906122fb565b60405180910390fd5b565b600061139e60008360006111eb565b9050600073ffffffffffffffffffffffffffffffffffffffff168173ffffffffffffffffffffffffffffffffffffffff160361141157816040517f7e2732890000000000000000000000000000000000000000000000000000000081526004016114089190612391565b60405180910390fd5b5050565b60006002600083815260200190815260200160002060009054906101000a900473ffffffffffffffffffffffffffffffffffffffff169050919050565b6000600a60009054906101000a900473ffffffffffffffffffffffffffffffffffffffff16905081600a60006101000a81548173ffffffffffffffffffffffffffffffffffffffff021916908373ffffffffffffffffffffffffffffffffffffffff1602179055508173ffffffffffffffffffffffffffffffffffffffff168173ffffffffffffffffffffffffffffffffffffffff167f8be0079c531659141344cd1fd0a4f28419497f9722a3daafe3b4186f6b6457e060405160405180910390a35050565b600073ffffffffffffffffffffffffffffffffffffffff168273ffffffffffffffffffffffffffffffffffffffff160361158957816040517f5b08ba1800000000000000000000000000000000000000000000000000000000815260040161158091906122fb565b60405180910390fd5b80600560008573ffffffffffffffffffffffffffffffffffffffff1673ffffffffffffffffffffffffffffffffffffffff16815260200190815260200160002060008473ffffffffffffffffffffffffffffffffffffffff1673ffffffffffffffffffffffffffffffffffffffff16815260200190815260200160002060006101000a81548160ff0219169083151502179055508173ffffffffffffffffffffffffffffffffffffffff168373ffffffffffffffffffffffffffffffffffffffff167f17307eab39ab6107e8899845ad3d59bd9653f200f220920489ca2b5937696c318360405161167a919061218a565b60405180910390a3505050565b600073111100000000000000000000000000000000111182019050919050565b60008373ffffffffffffffffffffffffffffffffffffffff163b1115611851578273ffffffffffffffffffffffffffffffffffffffff1663150b7a02868685856040518563ffffffff1660e01b815260040161170694939291906129c9565b6020604051808303816000875af192505050801561174257506040513d601f19601f8201168201806040525081019061173f9190612a2a565b60015b6117c6573d8060008114611772576040519150601f19603f3d011682016040523d82523d6000602084013e611777565b606091505b5060008151036117be57836040517f64a0ae920000000000000000000000000000000000000000000000000000000081526004016117b591906122fb565b60405180910390fd5b805181602001fd5b63150b7a0260e01b7bffffffffffffffffffffffffffffffffffffffffffffffffffffffff1916817bffffffffffffffffffffffffffffffffffffffffffffffffffffffff19161461184f57836040517f64a0ae9200000000000000000000000000000000000000000000000000000000815260040161184691906122fb565b60405180910390fd5b505b5050505050565b6060604051806080016040528060508152602001612abb60509139905090565b60007f01ffc9a7000000000000000000000000000000000000000000000000000000007bffffffffffffffffffffffffffffffffffffffffffffffffffffffff1916827bffffffffffffffffffffffffffffffffffffffffffffffffffffffff1916149050919050565b808061191b5750600073ffffffffffffffffffffffffffffffffffffffff168273ffffffffffffffffffffffffffffffffffffffff1614155b15611a4f57600061192b84611013565b9050600073ffffffffffffffffffffffffffffffffffffffff168373ffffffffffffffffffffffffffffffffffffffff161415801561199657508273ffffffffffffffffffffffffffffffffffffffff168173ffffffffffffffffffffffffffffffffffffffff1614155b80156119a957506119a78184610e17565b155b156119eb57826040517fa9fbf51f0000000000000000000000000000000000000000000000000000000081526004016119e291906122fb565b60405180910390fd5b8115611a4d57838573ffffffffffffffffffffffffffffffffffffffff168273ffffffffffffffffffffffffffffffffffffffff167f8c5be1e5ebec7d5bd14f71427d1e84f3dd0314c0f7b2291e5b200ac8c7c3b92560405160405180910390a45b505b836004600085815260200190815260200160002060006101000a81548173ffffffffffffffffffffffffffffffffffffffff021916908373ffffffffffffffffffffffffffffffffffffffff16021790555050505050565b600080611ab384611415565b9050600073ffffffffffffffffffffffffffffffffffffffff168373ffffffffffffffffffffffffffffffffffffffff1614611af557611af4818486611f51565b5b600073ffffffffffffffffffffffffffffffffffffffff168173ffffffffffffffffffffffffffffffffffffffff1614611b8657611b376000856000806118e2565b6001600360008373ffffffffffffffffffffffffffffffffffffffff1673ffffffffffffffffffffffffffffffffffffffff168152602001908152602001600020600082825403925050819055505b600073ffffffffffffffffffffffffffffffffffffffff168573ffffffffffffffffffffffffffffffffffffffff1614611c09576001600360008773ffffffffffffffffffffffffffffffffffffffff1673ffffffffffffffffffffffffffffffffffffffff168152602001908152602001600020600082825401925050819055505b846002600086815260200190815260200160002060006101000a81548173ffffffffffffffffffffffffffffffffffffffff021916908373ffffffffffffffffffffffffffffffffffffffff160217905550838573ffffffffffffffffffffffffffffffffffffffff168273ffffffffffffffffffffffffffffffffffffffff167fddf252ad1be2c89b69c2b068fc378daa952ba7f163c4a11628f55a4df523b3ef60405160405180910390a4809150509392505050565b6008805490506009600083815260200190815260200160002081905550600881908060018154018082558091505060019003906000526020600020016000909190919091505550565b6000611d1583610b72565b90506000600760008481526020019081526020016000205490506000600660008673ffffffffffffffffffffffffffffffffffffffff1673ffffffffffffffffffffffffffffffffffffffff1681526020019081526020016000209050828214611dc15760008160008581526020019081526020016000205490508082600085815260200190815260200160002081905550826007600083815260200190815260200160002081905550505b6007600085815260200190815260200160002060009055806000848152602001908152602001600020600090555050505050565b60006001600880549050611e099190612a57565b9050600060096000848152602001908152602001600020549050600060088381548110611e3957611e386127c7565b5b906000526020600020015490508060088381548110611e5b57611e5a6127c7565b5b906000526020600020018190555081600960008381526020019081526020016000208190555060096000858152602001908152602001600020600090556008805480611eaa57611ea9612a8b565b5b6001900381819060005260206000200160009055905550505050565b60006001611ed384610b72565b611edd9190612a57565b905081600660008573ffffffffffffffffffffffffffffffffffffffff1673ffffffffffffffffffffffffffffffffffffffff168152602001908152602001600020600083815260200190815260200160002081905550806007600084815260200190815260200160002081905550505050565b611f5c838383612015565b61201057600073ffffffffffffffffffffffffffffffffffffffff168373ffffffffffffffffffffffffffffffffffffffff1603611fd157806040517f7e273289000000000000000000000000000000000000000000000000000000008152600401611fc89190612391565b60405180910390fd5b81816040517f177e802f00000000000000000000000000000000000000000000000000000000815260040161200792919061279e565b60405180910390fd5b505050565b60008073ffffffffffffffffffffffffffffffffffffffff168373ffffffffffffffffffffffffffffffffffffffff16141580156120cd57508273ffffffffffffffffffffffffffffffffffffffff168473ffffffffffffffffffffffffffffffffffffffff16148061208e575061208d8484610e17565b5b806120cc57508273ffffffffffffffffffffffffffffffffffffffff166120b48361109b565b73ffffffffffffffffffffffffffffffffffffffff16145b5b90509392505050565b6000604051905090565b600080fd5b600080fd5b60007fffffffff0000000000000000000000000000000000000000000000000000000082169050919050565b61211f816120ea565b811461212a57600080fd5b50565b60008135905061213c81612116565b92915050565b600060208284031215612158576121576120e0565b5b60006121668482850161212d565b91505092915050565b60008115159050919050565b6121848161216f565b82525050565b600060208201905061219f600083018461217b565b92915050565b600081519050919050565b600082825260208201905092915050565b60005b838110156121df5780820151818401526020810190506121c4565b60008484015250505050565b6000601f19601f8301169050919050565b6000612207826121a5565b61221181856121b0565b93506122218185602086016121c1565b61222a816121eb565b840191505092915050565b6000602082019050818103600083015261224f81846121fc565b905092915050565b6000819050919050565b61226a81612257565b811461227557600080fd5b50565b60008135905061228781612261565b92915050565b6000602082840312156122a3576122a26120e0565b5b60006122b184828501612278565b91505092915050565b600073ffffffffffffffffffffffffffffffffffffffff82169050919050565b60006122e5826122ba565b9050919050565b6122f5816122da565b82525050565b600060208201905061231060008301846122ec565b92915050565b61231f816122da565b811461232a57600080fd5b50565b60008135905061233c81612316565b92915050565b60008060408385031215612359576123586120e0565b5b60006123678582860161232d565b925050602061237885828601612278565b9150509250929050565b61238b81612257565b82525050565b60006020820190506123a66000830184612382565b92915050565b6000806000606084860312156123c5576123c46120e0565b5b60006123d38682870161232d565b93505060206123e48682870161232d565b92505060406123f586828701612278565b9150509250925092565b600060208284031215612415576124146120e0565b5b60006124238482850161232d565b91505092915050565b6124358161216f565b811461244057600080fd5b50565b6000813590506124528161242c565b92915050565b6000806040838503121561246f5761246e6120e0565b5b600061247d8582860161232d565b925050602061248e85828601612443565b9150509250929050565b600080fd5b600080fd5b7f4e487b7100000000000000000000000000000000000000000000000000000000600052604160045260246000fd5b6124da826121eb565b810181811067ffffffffffffffff821117156124f9576124f86124a2565b5b80604052505050565b600061250c6120d6565b905061251882826124d1565b919050565b600067ffffffffffffffff821115612538576125376124a2565b5b612541826121eb565b9050602081019050919050565b82818337600083830152505050565b600061257061256b8461251d565b612502565b90508281526020810184848401111561258c5761258b61249d565b5b61259784828561254e565b509392505050565b600082601f8301126125b4576125b3612498565b5b81356125c484826020860161255d565b91505092915050565b600080600080608085870312156125e7576125e66120e0565b5b60006125f58782880161232d565b94505060206126068782880161232d565b935050604061261787828801612278565b925050606085013567ffffffffffffffff811115612638576126376120e5565b5b6126448782880161259f565b91505092959194509250565b60008060408385031215612667576126666120e0565b5b60006126758582860161232d565b92505060206126868582860161232d565b9150509250929050565b7f4e487b7100000000000000000000000000000000000000000000000000000000600052602260045260246000fd5b600060028204905060018216806126d757607f821691505b6020821081036126ea576126e9612690565b5b50919050565b7f4e487b7100000000000000000000000000000000000000000000000000000000600052601160045260246000fd5b600061272a82612257565b91507fffffffffffffffffffffffffffffffffffffffffffffffffffffffffffffffff820361275c5761275b6126f0565b5b600182019050919050565b600060608201905061277c60008301866122ec565b6127896020830185612382565b61279660408301846122ec565b949350505050565b60006040820190506127b360008301856122ec565b6127c06020830184612382565b9392505050565b7f4e487b7100000000000000000000000000000000000000000000000000000000600052603260045260246000fd5b7f4e4654206e6f74206f776e65642062792073656e646572000000000000000000600082015250565b600061282c6017836121b0565b9150612837826127f6565b602082019050919050565b6000602082019050818103600083015261285b8161281f565b9050919050565b600081519050919050565b600082825260208201905092915050565b600061288982612862565b612893818561286d565b93506128a38185602086016121c1565b6128ac816121eb565b840191505092915050565b60006040820190506128cc60008301856122ec565b81810360208301526128de818461287e565b90509392505050565b6000815190506128f681612261565b92915050565b600060208284031215612912576129116120e0565b5b6000612920848285016128e7565b91505092915050565b7f4e4654206f6e6c79206d696e7461626c65206279204c31000000000000000000600082015250565b600061295f6017836121b0565b915061296a82612929565b602082019050919050565b6000602082019050818103600083015261298e81612952565b9050919050565b60006129a082612257565b91506129ab83612257565b92508282019050808211156129c3576129c26126f0565b5b92915050565b60006080820190506129de60008301876122ec565b6129eb60208301866122ec565b6129f86040830185612382565b8181036060830152612a0a818461287e565b905095945050505050565b600081519050612a2481612116565b92915050565b600060208284031215612a4057612a3f6120e0565b5b6000612a4e84828501612a15565b91505092915050565b6000612a6282612257565b9150612a6d83612257565b9250828203905081811115612a8557612a846126f0565b5b92915050565b7f4e487b7100000000000000000000000000000000000000000000000000000000600052603160045260246000fdfe68747470733a2f2f676174657761792e70696e6174612e636c6f75642f697066732f516d66336d716b6931664d5a355335666e73704846394c4d69657a424564435162756b6e59686344414c6e693361a264697066735822122007bb06ec75290ffbba7cdd670d374964e9105e8840daeb0981b8c6a9fee5856364736f6c63430008180033",
  "linkReferences": {},
  "deployedLinkReferences": {}
}