{
  "_format": "hh-sol-artifact-1",
  "contractName": "CommunitasNFTL2",
  "sourceName": "contracts/l2/CommunitasNFTL2.sol",
  "abi": [
    {
      "inputs": [
        {
          "internalType": "address",
          "name": "_l1Target",
          "type": "address"
        }
      ],
      "stateMutability": "nonpayable",
      "type": "constructor"
    },
    {
      "inputs": [],
      "name": "ERC721EnumerableForbiddenBatchMint",
      "type": "error"
    },
    {
      "inputs": [
        {
          "internalType": "address",
          "name": "sender",
          "type": "address"
        },
        {
          "internalType": "uint256",
          "name": "tokenId",
          "type": "uint256"
        },
        {
          "internalType": "address",
          "name": "owner",
          "type": "address"
        }
      ],
      "name": "ERC721IncorrectOwner",
      "type": "error"
    },
    {
      "inputs": [
        {
          "internalType": "address",
          "name": "operator",
          "type": "address"
        },
        {
          "internalType": "uint256",
          "name": "tokenId",
          "type": "uint256"
        }
      ],
      "name": "ERC721InsufficientApproval",
      "type": "error"
    },
    {
      "inputs": [
        {
          "internalType": "address",
          "name": "approver",
          "type": "address"
        }
      ],
      "name": "ERC721InvalidApprover",
      "type": "error"
    },
    {
      "inputs": [
        {
          "internalType": "address",
          "name": "operator",
          "type": "address"
        }
      ],
      "name": "ERC721InvalidOperator",
      "type": "error"
    },
    {
      "inputs": [
        {
          "internalType": "address",
          "name": "owner",
          "type": "address"
        }
      ],
      "name": "ERC721InvalidOwner",
      "type": "error"
    },
    {
      "inputs": [
        {
          "internalType": "address",
          "name": "receiver",
          "type": "address"
        }
      ],
      "name": "ERC721InvalidReceiver",
      "type": "error"
    },
    {
      "inputs": [
        {
          "internalType": "address",
          "name": "sender",
          "type": "address"
        }
      ],
      "name": "ERC721InvalidSender",
      "type": "error"
    },
    {
      "inputs": [
        {
          "internalType": "uint256",
          "name": "tokenId",
          "type": "uint256"
        }
      ],
      "name": "ERC721NonexistentToken",
      "type": "error"
    },
    {
      "inputs": [
        {
          "internalType": "address",
          "name": "owner",
          "type": "address"
        },
        {
          "internalType": "uint256",
          "name": "index",
          "type": "uint256"
        }
      ],
      "name": "ERC721OutOfBoundsIndex",
      "type": "error"
    },
    {
      "inputs": [
        {
          "internalType": "address",
          "name": "owner",
          "type": "address"
        }
      ],
      "name": "OwnableInvalidOwner",
      "type": "error"
    },
    {
      "inputs": [
        {
          "internalType": "address",
          "name": "account",
          "type": "address"
        }
      ],
      "name": "OwnableUnauthorizedAccount",
      "type": "error"
    },
    {
      "anonymous": false,
      "inputs": [
        {
          "indexed": true,
          "internalType": "address",
          "name": "owner",
          "type": "address"
        },
        {
          "indexed": true,
          "internalType": "address",
          "name": "approved",
          "type": "address"
        },
        {
          "indexed": true,
          "internalType": "uint256",
          "name": "tokenId",
          "type": "uint256"
        }
      ],
      "name": "Approval",
      "type": "event"
    },
    {
      "anonymous": false,
      "inputs": [
        {
          "indexed": true,
          "internalType": "address",
          "name": "owner",
          "type": "address"
        },
        {
          "indexed": true,
          "internalType": "address",
          "name": "operator",
          "type": "address"
        },
        {
          "indexed": false,
          "internalType": "bool",
          "name": "approved",
          "type": "bool"
        }
      ],
      "name": "ApprovalForAll",
      "type": "event"
    },
    {
      "anonymous": false,
      "inputs": [
        {
          "indexed": true,
          "internalType": "uint256",
          "name": "withdrawalId",
          "type": "uint256"
        }
      ],
      "name": "L2ToL1TxCreated",
      "type": "event"
    },
    {
      "anonymous": false,
      "inputs": [
        {
          "indexed": true,
          "internalType": "address",
          "name": "previousOwner",
          "type": "address"
        },
        {
          "indexed": true,
          "internalType": "address",
          "name": "newOwner",
          "type": "address"
        }
      ],
      "name": "OwnershipTransferred",
      "type": "event"
    },
    {
      "anonymous": false,
      "inputs": [
        {
          "indexed": true,
          "internalType": "address",
          "name": "from",
          "type": "address"
        },
        {
          "indexed": true,
          "internalType": "address",
          "name": "to",
          "type": "address"
        },
        {
          "indexed": true,
          "internalType": "uint256",
          "name": "tokenId",
          "type": "uint256"
        }
      ],
      "name": "Transfer",
      "type": "event"
    },
    {
      "inputs": [
        {
          "internalType": "address",
          "name": "to",
          "type": "address"
        },
        {
          "internalType": "uint256",
          "name": "tokenId",
          "type": "uint256"
        }
      ],
      "name": "approve",
      "outputs": [],
      "stateMutability": "nonpayable",
      "type": "function"
    },
    {
      "inputs": [
        {
          "internalType": "address",
          "name": "owner",
          "type": "address"
        }
      ],
      "name": "balanceOf",
      "outputs": [
        {
          "internalType": "uint256",
          "name": "",
          "type": "uint256"
        }
      ],
      "stateMutability": "view",
      "type": "function"
    },
    {
      "inputs": [
        {
          "internalType": "uint256",
          "name": "tokenId",
          "type": "uint256"
        }
      ],
      "name": "bridgeToL1",
      "outputs": [
        {
          "internalType": "uint256",
          "name": "",
          "type": "uint256"
        }
      ],
      "stateMutability": "nonpayable",
      "type": "function"
    },
    {
      "inputs": [
        {
          "internalType": "uint256",
          "name": "tokenId",
          "type": "uint256"
        }
      ],
      "name": "getApproved",
      "outputs": [
        {
          "internalType": "address",
          "name": "",
          "type": "address"
        }
      ],
      "stateMutability": "view",
      "type": "function"
    },
    {
      "inputs": [
        {
          "internalType": "address",
          "name": "owner",
          "type": "address"
        },
        {
          "internalType": "address",
          "name": "operator",
          "type": "address"
        }
      ],
      "name": "isApprovedForAll",
      "outputs": [
        {
          "internalType": "bool",
          "name": "",
          "type": "bool"
        }
      ],
      "stateMutability": "view",
      "type": "function"
    },
    {
      "inputs": [],
      "name": "l1Target",
      "outputs": [
        {
          "internalType": "address",
          "name": "",
          "type": "address"
        }
      ],
      "stateMutability": "view",
      "type": "function"
    },
    {
      "inputs": [],
      "name": "mint",
      "outputs": [
        {
          "internalType": "uint256",
          "name": "",
          "type": "uint256"
        }
      ],
      "stateMutability": "nonpayable",
      "type": "function"
    },
    {
      "inputs": [
        {
          "internalType": "address",
          "name": "receiver",
          "type": "address"
        },
        {
          "internalType": "uint256",
          "name": "tokenId",
          "type": "uint256"
        }
      ],
      "name": "mintFromBridge",
      "outputs": [],
      "stateMutability": "nonpayable",
      "type": "function"
    },
    {
      "inputs": [],
      "name": "name",
      "outputs": [
        {
          "internalType": "string",
          "name": "",
          "type": "string"
        }
      ],
      "stateMutability": "view",
      "type": "function"
    },
    {
      "inputs": [],
      "name": "owner",
      "outputs": [
        {
          "internalType": "address",
          "name": "",
          "type": "address"
        }
      ],
      "stateMutability": "view",
      "type": "function"
    },
    {
      "inputs": [
        {
          "internalType": "uint256",
          "name": "tokenId",
          "type": "uint256"
        }
      ],
      "name": "ownerOf",
      "outputs": [
        {
          "internalType": "address",
          "name": "",
          "type": "address"
        }
      ],
      "stateMutability": "view",
      "type": "function"
    },
    {
      "inputs": [],
      "name": "renounceOwnership",
      "outputs": [],
      "stateMutability": "nonpayable",
      "type": "function"
    },
    {
      "inputs": [
        {
          "internalType": "address",
          "name": "from",
          "type": "address"
        },
        {
          "internalType": "address",
          "name": "to",
          "type": "address"
        },
        {
          "internalType": "uint256",
          "name": "tokenId",
          "type": "uint256"
        }
      ],
      "name": "safeTransferFrom",
      "outputs": [],
      "stateMutability": "nonpayable",
      "type": "function"
    },
    {
      "inputs": [
        {
          "internalType": "address",
          "name": "from",
          "type": "address"
        },
        {
          "internalType": "address",
          "name": "to",
          "type": "address"
        },
        {
          "internalType": "uint256",
          "name": "tokenId",
          "type": "uint256"
        },
        {
          "internalType": "bytes",
          "name": "data",
          "type": "bytes"
        }
      ],
      "name": "safeTransferFrom",
      "outputs": [],
      "stateMutability": "nonpayable",
      "type": "function"
    },
    {
      "inputs": [
        {
          "internalType": "address",
          "name": "operator",
          "type": "address"
        },
        {
          "internalType": "bool",
          "name": "approved",
          "type": "bool"
        }
      ],
      "name": "setApprovalForAll",
      "outputs": [],
      "stateMutability": "nonpayable",
      "type": "function"
    },
    {
      "inputs": [
        {
          "internalType": "bytes4",
          "name": "interfaceId",
          "type": "bytes4"
        }
      ],
      "name": "supportsInterface",
      "outputs": [
        {
          "internalType": "bool",
          "name": "",
          "type": "bool"
        }
      ],
      "stateMutability": "view",
      "type": "function"
    },
    {
      "inputs": [],
      "name": "symbol",
      "outputs": [
        {
          "internalType": "string",
          "name": "",
          "type": "string"
        }
      ],
      "stateMutability": "view",
      "type": "function"
    },
    {
      "inputs": [
        {
          "internalType": "uint256",
          "name": "index",
          "type": "uint256"
        }
      ],
      "name": "tokenByIndex",
      "outputs": [
        {
          "internalType": "uint256",
          "name": "",
          "type": "uint256"
        }
      ],
      "stateMutability": "view",
      "type": "function"
    },
    {
      "inputs": [],
      "name": "tokenCounter",
      "outputs": [
        {
          "internalType": "uint256",
          "name": "",
          "type": "uint256"
        }
      ],
      "stateMutability": "view",
      "type": "function"
    },
    {
      "inputs": [
        {
          "internalType": "address",
          "name": "owner",
          "type": "address"
        },
        {
          "internalType": "uint256",
          "name": "index",
          "type": "uint256"
        }
      ],
      "name": "tokenOfOwnerByIndex",
      "outputs": [
        {
          "internalType": "uint256",
          "name": "",
          "type": "uint256"
        }
      ],
      "stateMutability": "view",
      "type": "function"
    },
    {
      "inputs": [
        {
          "internalType": "uint256",
          "name": "tokenId",
          "type": "uint256"
        }
      ],
      "name": "tokenURI",
      "outputs": [
        {
          "internalType": "string",
          "name": "",
          "type": "string"
        }
      ],
      "stateMutability": "view",
      "type": "function"
    },
    {
      "inputs": [],
      "name": "totalSupply",
      "outputs": [
        {
          "internalType": "uint256",
          "name": "",
          "type": "uint256"
        }
      ],
      "stateMutability": "view",
      "type": "function"
    },
    {
      "inputs": [
        {
          "internalType": "address",
          "name": "from",
          "type": "address"
        },
        {
          "internalType": "address",
          "name": "to",
          "type": "address"
        },
        {
          "internalType": "uint256",
          "name": "tokenId",
          "type": "uint256"
        }
      ],
      "name": "transferFrom",
      "outputs": [],
      "stateMutability": "nonpayable",
      "type": "function"
    },
    {
      "inputs": [
        {
          "internalType": "address",
          "name": "newOwner",
          "type": "address"
        }
      ],
      "name": "transferOwnership",
      "outputs": [],
      "stateMutability": "nonpayable",
      "type": "function"
    },
    {
      "inputs": [
        {
          "internalType": "address",
          "name": "_l1Target",
          "type": "address"
        }
      ],
      "name": "updatel1Target",
      "outputs": [],
      "stateMutability": "nonpayable",
      "type": "function"
    }
  ],
  "bytecode": "0x60806040523480156200001157600080fd5b506040516200315e3803806200315e8339818101604052810190620000379190620002c9565b336040518060400160405280600d81526020017f436f6d6d756e697461734e4654000000000000000000000000000000000000008152506040518060400160405280600481526020017f434e4654000000000000000000000000000000000000000000000000000000008152508160009081620000b5919062000575565b508060019081620000c7919062000575565b505050600073ffffffffffffffffffffffffffffffffffffffff168173ffffffffffffffffffffffffffffffffffffffff16036200013f5760006040517f1e4fbdf70000000000000000000000000000000000000000000000000000000081526004016200013691906200066d565b60405180910390fd5b62000150816200019960201b60201c565b5080600c60006101000a81548173ffffffffffffffffffffffffffffffffffffffff021916908373ffffffffffffffffffffffffffffffffffffffff160217905550506200068a565b6000600a60009054906101000a900473ffffffffffffffffffffffffffffffffffffffff16905081600a60006101000a81548173ffffffffffffffffffffffffffffffffffffffff021916908373ffffffffffffffffffffffffffffffffffffffff1602179055508173ffffffffffffffffffffffffffffffffffffffff168173ffffffffffffffffffffffffffffffffffffffff167f8be0079c531659141344cd1fd0a4f28419497f9722a3daafe3b4186f6b6457e060405160405180910390a35050565b600080fd5b600073ffffffffffffffffffffffffffffffffffffffff82169050919050565b6000620002918262000264565b9050919050565b620002a38162000284565b8114620002af57600080fd5b50565b600081519050620002c38162000298565b92915050565b600060208284031215620002e257620002e16200025f565b5b6000620002f284828501620002b2565b91505092915050565b600081519050919050565b7f4e487b7100000000000000000000000000000000000000000000000000000000600052604160045260246000fd5b7f4e487b7100000000000000000000000000000000000000000000000000000000600052602260045260246000fd5b600060028204905060018216806200037d57607f821691505b60208210810362000393576200039262000335565b5b50919050565b60008190508160005260206000209050919050565b60006020601f8301049050919050565b600082821b905092915050565b600060088302620003fd7fffffffffffffffffffffffffffffffffffffffffffffffffffffffffffffffff82620003be565b620004098683620003be565b95508019841693508086168417925050509392505050565b6000819050919050565b6000819050919050565b600062000456620004506200044a8462000421565b6200042b565b62000421565b9050919050565b6000819050919050565b620004728362000435565b6200048a62000481826200045d565b848454620003cb565b825550505050565b600090565b620004a162000492565b620004ae81848462000467565b505050565b5b81811015620004d657620004ca60008262000497565b600181019050620004b4565b5050565b601f8211156200052557620004ef8162000399565b620004fa84620003ae565b810160208510156200050a578190505b620005226200051985620003ae565b830182620004b3565b50505b505050565b600082821c905092915050565b60006200054a600019846008026200052a565b1980831691505092915050565b600062000565838362000537565b9150826002028217905092915050565b6200058082620002fb565b67ffffffffffffffff8111156200059c576200059b62000306565b5b620005a8825462000364565b620005b5828285620004da565b600060209050601f831160018114620005ed5760008415620005d8578287015190505b620005e4858262000557565b86555062000654565b601f198416620005fd8662000399565b60005b82811015620006275784890151825560018201915060208501945060208101905062000600565b8683101562000647578489015162000643601f89168262000537565b8355505b6001600288020188555050505b505050505050565b620006678162000284565b82525050565b60006020820190506200068460008301846200065c565b92915050565b612ac4806200069a6000396000f3fe608060405234801561001057600080fd5b50600436106101735760003560e01c80636352211e116100de578063a22cb46511610097578063c87b56dd11610071578063c87b56dd1461044a578063d082e3811461047a578063e985e9c514610498578063f2fde38b146104c857610173565b8063a22cb465146103f6578063ae58491814610412578063b88d4fde1461042e57610173565b80636352211e146103205780636704f4fb1461035057806370a0823114610380578063715018a6146103b05780638da5cb5b146103ba57806395d89b41146103d857610173565b806323b872dd1161013057806323b872dd1461024e5780632f745c591461026a5780633901da861461029a57806342842e0e146102b65780634f6ccce7146102d25780635325e4a61461030257610173565b806301ffc9a71461017857806306fdde03146101a8578063081812fc146101c6578063095ea7b3146101f65780631249c58b1461021257806318160ddd14610230575b600080fd5b610192600480360381019061018d91906120ce565b6104e4565b60405161019f9190612116565b60405180910390f35b6101b061055e565b6040516101bd91906121c1565b60405180910390f35b6101e060048036038101906101db9190612219565b6105f0565b6040516101ed9190612287565b60405180910390f35b610210600480360381019061020b91906122ce565b61060c565b005b61021a610622565b604051610227919061231d565b60405180910390f35b610238610653565b604051610245919061231d565b60405180910390f35b61026860048036038101906102639190612338565b610660565b005b610284600480360381019061027f91906122ce565b610762565b604051610291919061231d565b60405180910390f35b6102b460048036038101906102af919061238b565b61080b565b005b6102d060048036038101906102cb9190612338565b610857565b005b6102ec60048036038101906102e79190612219565b610877565b6040516102f9919061231d565b60405180910390f35b61030a6108ed565b6040516103179190612287565b60405180910390f35b61033a60048036038101906103359190612219565b610913565b6040516103479190612287565b60405180910390f35b61036a60048036038101906103659190612219565b610925565b604051610377919061231d565b60405180910390f35b61039a6004803603810190610395919061238b565b610afe565b6040516103a7919061231d565b60405180910390f35b6103b8610bb8565b005b6103c2610bcc565b6040516103cf9190612287565b60405180910390f35b6103e0610bf6565b6040516103ed91906121c1565b60405180910390f35b610410600480360381019061040b91906123e4565b610c88565b005b61042c600480360381019061042791906122ce565b610c9e565b005b61044860048036038101906104439190612559565b610d57565b005b610464600480360381019061045f9190612219565b610d7c565b60405161047191906121c1565b60405180910390f35b610482610d9d565b60405161048f919061231d565b60405180910390f35b6104b260048036038101906104ad91906125dc565b610da3565b6040516104bf9190612116565b60405180910390f35b6104e260048036038101906104dd919061238b565b610e37565b005b60007f780e9d63000000000000000000000000000000000000000000000000000000007bffffffffffffffffffffffffffffffffffffffffffffffffffffffff1916827bffffffffffffffffffffffffffffffffffffffffffffffffffffffff19161480610557575061055682610ebd565b5b9050919050565b60606000805461056d9061264b565b80601f01602080910402602001604051908101604052809291908181526020018280546105999061264b565b80156105e65780601f106105bb576101008083540402835291602001916105e6565b820191906000526020600020905b8154815290600101906020018083116105c957829003601f168201915b5050505050905090565b60006105fb82610f9f565b5061060582611027565b9050919050565b61061e8282610619611064565b61106c565b5050565b600080600b549050610634338261107e565b600b6000815480929190610647906126ab565b91905055508091505090565b6000600880549050905090565b600073ffffffffffffffffffffffffffffffffffffffff168273ffffffffffffffffffffffffffffffffffffffff16036106d25760006040517f64a0ae920000000000000000000000000000000000000000000000000000000081526004016106c99190612287565b60405180910390fd5b60006106e683836106e1611064565b611177565b90508373ffffffffffffffffffffffffffffffffffffffff168173ffffffffffffffffffffffffffffffffffffffff161461075c578382826040517f64283d7b000000000000000000000000000000000000000000000000000000008152600401610753939291906126f3565b60405180910390fd5b50505050565b600061076d83610afe565b82106107b25782826040517fa57d13dc0000000000000000000000000000000000000000000000000000000081526004016107a992919061272a565b60405180910390fd5b600660008473ffffffffffffffffffffffffffffffffffffffff1673ffffffffffffffffffffffffffffffffffffffff168152602001908152602001600020600083815260200190815260200160002054905092915050565b610813611294565b80600c60006101000a81548173ffffffffffffffffffffffffffffffffffffffff021916908373ffffffffffffffffffffffffffffffffffffffff16021790555050565b61087283838360405180602001604052806000815250610d57565b505050565b6000610881610653565b82106108c7576000826040517fa57d13dc0000000000000000000000000000000000000000000000000000000081526004016108be92919061272a565b60405180910390fd5b600882815481106108db576108da612753565b5b90600052602060002001549050919050565b600c60009054906101000a900473ffffffffffffffffffffffffffffffffffffffff1681565b600061091e82610f9f565b9050919050565b60003373ffffffffffffffffffffffffffffffffffffffff166109478361131b565b73ffffffffffffffffffffffffffffffffffffffff161461099d576040517f08c379a0000000000000000000000000000000000000000000000000000000008152600401610994906127ce565b60405180910390fd5b6109a682611358565b600063ae58491860e01b33846040516024016109c392919061272a565b604051602081830303815290604052907bffffffffffffffffffffffffffffffffffffffffffffffffffffffff19166020820180517bffffffffffffffffffffffffffffffffffffffffffffffffffffffff838183161783525050505090506000606473ffffffffffffffffffffffffffffffffffffffff1663928c169a600c60009054906101000a900473ffffffffffffffffffffffffffffffffffffffff16846040518363ffffffff1660e01b8152600401610a82929190612843565b6020604051808303816000875af1158015610aa1573d6000803e3d6000fd5b505050506040513d601f19601f82011682018060405250810190610ac59190612888565b9050807facd96f3817031b95eab52de9132d4a9dd13dac3d9dfcfe950ca9283c89b851a560405160405180910390a28092505050919050565b60008073ffffffffffffffffffffffffffffffffffffffff168273ffffffffffffffffffffffffffffffffffffffff1603610b715760006040517f89c62b64000000000000000000000000000000000000000000000000000000008152600401610b689190612287565b60405180910390fd5b600360008373ffffffffffffffffffffffffffffffffffffffff1673ffffffffffffffffffffffffffffffffffffffff168152602001908152602001600020549050919050565b610bc0611294565b610bca60006113de565b565b6000600a60009054906101000a900473ffffffffffffffffffffffffffffffffffffffff16905090565b606060018054610c059061264b565b80601f0160208091040260200160405190810160405280929190818152602001828054610c319061264b565b8015610c7e5780601f10610c5357610100808354040283529160200191610c7e565b820191906000526020600020905b815481529060010190602001808311610c6157829003601f168201915b5050505050905090565b610c9a610c93611064565b83836114a4565b5050565b610cc9600c60009054906101000a900473ffffffffffffffffffffffffffffffffffffffff16611613565b73ffffffffffffffffffffffffffffffffffffffff163373ffffffffffffffffffffffffffffffffffffffff1614610d36576040517f08c379a0000000000000000000000000000000000000000000000000000000008152600401610d2d90612901565b60405180910390fd5b610d40828261107e565b600181610d4d9190612921565b600b819055505050565b610d62848484610660565b610d76610d6d611064565b85858585611633565b50505050565b6060610d8782610f9f565b506000610d926117e4565b905080915050919050565b600b5481565b6000600560008473ffffffffffffffffffffffffffffffffffffffff1673ffffffffffffffffffffffffffffffffffffffff16815260200190815260200160002060008373ffffffffffffffffffffffffffffffffffffffff1673ffffffffffffffffffffffffffffffffffffffff16815260200190815260200160002060009054906101000a900460ff16905092915050565b610e3f611294565b600073ffffffffffffffffffffffffffffffffffffffff168173ffffffffffffffffffffffffffffffffffffffff1603610eb15760006040517f1e4fbdf7000000000000000000000000000000000000000000000000000000008152600401610ea89190612287565b60405180910390fd5b610eba816113de565b50565b60007f80ac58cd000000000000000000000000000000000000000000000000000000007bffffffffffffffffffffffffffffffffffffffffffffffffffffffff1916827bffffffffffffffffffffffffffffffffffffffffffffffffffffffff19161480610f8857507f5b5e139f000000000000000000000000000000000000000000000000000000007bffffffffffffffffffffffffffffffffffffffffffffffffffffffff1916827bffffffffffffffffffffffffffffffffffffffffffffffffffffffff1916145b80610f985750610f9782611804565b5b9050919050565b600080610fab8361131b565b9050600073ffffffffffffffffffffffffffffffffffffffff168173ffffffffffffffffffffffffffffffffffffffff160361101e57826040517f7e273289000000000000000000000000000000000000000000000000000000008152600401611015919061231d565b60405180910390fd5b80915050919050565b60006004600083815260200190815260200160002060009054906101000a900473ffffffffffffffffffffffffffffffffffffffff169050919050565b600033905090565b611079838383600161186e565b505050565b600073ffffffffffffffffffffffffffffffffffffffff168273ffffffffffffffffffffffffffffffffffffffff16036110f05760006040517f64a0ae920000000000000000000000000000000000000000000000000000000081526004016110e79190612287565b60405180910390fd5b60006110fe83836000611177565b9050600073ffffffffffffffffffffffffffffffffffffffff168173ffffffffffffffffffffffffffffffffffffffff16146111725760006040517f73c6ac6e0000000000000000000000000000000000000000000000000000000081526004016111699190612287565b60405180910390fd5b505050565b600080611185858585611a33565b9050600073ffffffffffffffffffffffffffffffffffffffff168173ffffffffffffffffffffffffffffffffffffffff16036111c9576111c484611c4d565b611208565b8473ffffffffffffffffffffffffffffffffffffffff168173ffffffffffffffffffffffffffffffffffffffff1614611207576112068185611c96565b5b5b600073ffffffffffffffffffffffffffffffffffffffff168573ffffffffffffffffffffffffffffffffffffffff160361124a5761124584611d81565b611289565b8473ffffffffffffffffffffffffffffffffffffffff168173ffffffffffffffffffffffffffffffffffffffff1614611288576112878585611e52565b5b5b809150509392505050565b61129c611064565b73ffffffffffffffffffffffffffffffffffffffff166112ba610bcc565b73ffffffffffffffffffffffffffffffffffffffff1614611319576112dd611064565b6040517f118cdaa70000000000000000000000000000000000000000000000000000000081526004016113109190612287565b60405180910390fd5b565b60006002600083815260200190815260200160002060009054906101000a900473ffffffffffffffffffffffffffffffffffffffff169050919050565b60006113676000836000611177565b9050600073ffffffffffffffffffffffffffffffffffffffff168173ffffffffffffffffffffffffffffffffffffffff16036113da57816040517f7e2732890000000000000000000000000000000000000000000000000000000081526004016113d1919061231d565b60405180910390fd5b5050565b6000600a60009054906101000a900473ffffffffffffffffffffffffffffffffffffffff16905081600a60006101000a81548173ffffffffffffffffffffffffffffffffffffffff021916908373ffffffffffffffffffffffffffffffffffffffff1602179055508173ffffffffffffffffffffffffffffffffffffffff168173ffffffffffffffffffffffffffffffffffffffff167f8be0079c531659141344cd1fd0a4f28419497f9722a3daafe3b4186f6b6457e060405160405180910390a35050565b600073ffffffffffffffffffffffffffffffffffffffff168273ffffffffffffffffffffffffffffffffffffffff160361151557816040517f5b08ba1800000000000000000000000000000000000000000000000000000000815260040161150c9190612287565b60405180910390fd5b80600560008573ffffffffffffffffffffffffffffffffffffffff1673ffffffffffffffffffffffffffffffffffffffff16815260200190815260200160002060008473ffffffffffffffffffffffffffffffffffffffff1673ffffffffffffffffffffffffffffffffffffffff16815260200190815260200160002060006101000a81548160ff0219169083151502179055508173ffffffffffffffffffffffffffffffffffffffff168373ffffffffffffffffffffffffffffffffffffffff167f17307eab39ab6107e8899845ad3d59bd9653f200f220920489ca2b5937696c31836040516116069190612116565b60405180910390a3505050565b600073111100000000000000000000000000000000111182019050919050565b60008373ffffffffffffffffffffffffffffffffffffffff163b11156117dd578273ffffffffffffffffffffffffffffffffffffffff1663150b7a02868685856040518563ffffffff1660e01b81526004016116929493929190612955565b6020604051808303816000875af19250505080156116ce57506040513d601f19601f820116820180604052508101906116cb91906129b6565b60015b611752573d80600081146116fe576040519150601f19603f3d011682016040523d82523d6000602084013e611703565b606091505b50600081510361174a57836040517f64a0ae920000000000000000000000000000000000000000000000000000000081526004016117419190612287565b60405180910390fd5b805181602001fd5b63150b7a0260e01b7bffffffffffffffffffffffffffffffffffffffffffffffffffffffff1916817bffffffffffffffffffffffffffffffffffffffffffffffffffffffff1916146117db57836040517f64a0ae920000000000000000000000000000000000000000000000000000000081526004016117d29190612287565b60405180910390fd5b505b5050505050565b6060604051806080016040528060488152602001612a4760489139905090565b60007f01ffc9a7000000000000000000000000000000000000000000000000000000007bffffffffffffffffffffffffffffffffffffffffffffffffffffffff1916827bffffffffffffffffffffffffffffffffffffffffffffffffffffffff1916149050919050565b80806118a75750600073ffffffffffffffffffffffffffffffffffffffff168273ffffffffffffffffffffffffffffffffffffffff1614155b156119db5760006118b784610f9f565b9050600073ffffffffffffffffffffffffffffffffffffffff168373ffffffffffffffffffffffffffffffffffffffff161415801561192257508273ffffffffffffffffffffffffffffffffffffffff168173ffffffffffffffffffffffffffffffffffffffff1614155b801561193557506119338184610da3565b155b1561197757826040517fa9fbf51f00000000000000000000000000000000000000000000000000000000815260040161196e9190612287565b60405180910390fd5b81156119d957838573ffffffffffffffffffffffffffffffffffffffff168273ffffffffffffffffffffffffffffffffffffffff167f8c5be1e5ebec7d5bd14f71427d1e84f3dd0314c0f7b2291e5b200ac8c7c3b92560405160405180910390a45b505b836004600085815260200190815260200160002060006101000a81548173ffffffffffffffffffffffffffffffffffffffff021916908373ffffffffffffffffffffffffffffffffffffffff16021790555050505050565b600080611a3f8461131b565b9050600073ffffffffffffffffffffffffffffffffffffffff168373ffffffffffffffffffffffffffffffffffffffff1614611a8157611a80818486611edd565b5b600073ffffffffffffffffffffffffffffffffffffffff168173ffffffffffffffffffffffffffffffffffffffff1614611b1257611ac360008560008061186e565b6001600360008373ffffffffffffffffffffffffffffffffffffffff1673ffffffffffffffffffffffffffffffffffffffff168152602001908152602001600020600082825403925050819055505b600073ffffffffffffffffffffffffffffffffffffffff168573ffffffffffffffffffffffffffffffffffffffff1614611b95576001600360008773ffffffffffffffffffffffffffffffffffffffff1673ffffffffffffffffffffffffffffffffffffffff168152602001908152602001600020600082825401925050819055505b846002600086815260200190815260200160002060006101000a81548173ffffffffffffffffffffffffffffffffffffffff021916908373ffffffffffffffffffffffffffffffffffffffff160217905550838573ffffffffffffffffffffffffffffffffffffffff168273ffffffffffffffffffffffffffffffffffffffff167fddf252ad1be2c89b69c2b068fc378daa952ba7f163c4a11628f55a4df523b3ef60405160405180910390a4809150509392505050565b6008805490506009600083815260200190815260200160002081905550600881908060018154018082558091505060019003906000526020600020016000909190919091505550565b6000611ca183610afe565b90506000600760008481526020019081526020016000205490506000600660008673ffffffffffffffffffffffffffffffffffffffff1673ffffffffffffffffffffffffffffffffffffffff1681526020019081526020016000209050828214611d4d5760008160008581526020019081526020016000205490508082600085815260200190815260200160002081905550826007600083815260200190815260200160002081905550505b6007600085815260200190815260200160002060009055806000848152602001908152602001600020600090555050505050565b60006001600880549050611d9591906129e3565b9050600060096000848152602001908152602001600020549050600060088381548110611dc557611dc4612753565b5b906000526020600020015490508060088381548110611de757611de6612753565b5b906000526020600020018190555081600960008381526020019081526020016000208190555060096000858152602001908152602001600020600090556008805480611e3657611e35612a17565b5b6001900381819060005260206000200160009055905550505050565b60006001611e5f84610afe565b611e6991906129e3565b905081600660008573ffffffffffffffffffffffffffffffffffffffff1673ffffffffffffffffffffffffffffffffffffffff168152602001908152602001600020600083815260200190815260200160002081905550806007600084815260200190815260200160002081905550505050565b611ee8838383611fa1565b611f9c57600073ffffffffffffffffffffffffffffffffffffffff168373ffffffffffffffffffffffffffffffffffffffff1603611f5d57806040517f7e273289000000000000000000000000000000000000000000000000000000008152600401611f54919061231d565b60405180910390fd5b81816040517f177e802f000000000000000000000000000000000000000000000000000000008152600401611f9392919061272a565b60405180910390fd5b505050565b60008073ffffffffffffffffffffffffffffffffffffffff168373ffffffffffffffffffffffffffffffffffffffff161415801561205957508273ffffffffffffffffffffffffffffffffffffffff168473ffffffffffffffffffffffffffffffffffffffff16148061201a57506120198484610da3565b5b8061205857508273ffffffffffffffffffffffffffffffffffffffff1661204083611027565b73ffffffffffffffffffffffffffffffffffffffff16145b5b90509392505050565b6000604051905090565b600080fd5b600080fd5b60007fffffffff0000000000000000000000000000000000000000000000000000000082169050919050565b6120ab81612076565b81146120b657600080fd5b50565b6000813590506120c8816120a2565b92915050565b6000602082840312156120e4576120e361206c565b5b60006120f2848285016120b9565b91505092915050565b60008115159050919050565b612110816120fb565b82525050565b600060208201905061212b6000830184612107565b92915050565b600081519050919050565b600082825260208201905092915050565b60005b8381101561216b578082015181840152602081019050612150565b60008484015250505050565b6000601f19601f8301169050919050565b600061219382612131565b61219d818561213c565b93506121ad81856020860161214d565b6121b681612177565b840191505092915050565b600060208201905081810360008301526121db8184612188565b905092915050565b6000819050919050565b6121f6816121e3565b811461220157600080fd5b50565b600081359050612213816121ed565b92915050565b60006020828403121561222f5761222e61206c565b5b600061223d84828501612204565b91505092915050565b600073ffffffffffffffffffffffffffffffffffffffff82169050919050565b600061227182612246565b9050919050565b61228181612266565b82525050565b600060208201905061229c6000830184612278565b92915050565b6122ab81612266565b81146122b657600080fd5b50565b6000813590506122c8816122a2565b92915050565b600080604083850312156122e5576122e461206c565b5b60006122f3858286016122b9565b925050602061230485828601612204565b9150509250929050565b612317816121e3565b82525050565b6000602082019050612332600083018461230e565b92915050565b6000806000606084860312156123515761235061206c565b5b600061235f868287016122b9565b9350506020612370868287016122b9565b925050604061238186828701612204565b9150509250925092565b6000602082840312156123a1576123a061206c565b5b60006123af848285016122b9565b91505092915050565b6123c1816120fb565b81146123cc57600080fd5b50565b6000813590506123de816123b8565b92915050565b600080604083850312156123fb576123fa61206c565b5b6000612409858286016122b9565b925050602061241a858286016123cf565b9150509250929050565b600080fd5b600080fd5b7f4e487b7100000000000000000000000000000000000000000000000000000000600052604160045260246000fd5b61246682612177565b810181811067ffffffffffffffff821117156124855761248461242e565b5b80604052505050565b6000612498612062565b90506124a4828261245d565b919050565b600067ffffffffffffffff8211156124c4576124c361242e565b5b6124cd82612177565b9050602081019050919050565b82818337600083830152505050565b60006124fc6124f7846124a9565b61248e565b90508281526020810184848401111561251857612517612429565b5b6125238482856124da565b509392505050565b600082601f8301126125405761253f612424565b5b81356125508482602086016124e9565b91505092915050565b600080600080608085870312156125735761257261206c565b5b6000612581878288016122b9565b9450506020612592878288016122b9565b93505060406125a387828801612204565b925050606085013567ffffffffffffffff8111156125c4576125c3612071565b5b6125d08782880161252b565b91505092959194509250565b600080604083850312156125f3576125f261206c565b5b6000612601858286016122b9565b9250506020612612858286016122b9565b9150509250929050565b7f4e487b7100000000000000000000000000000000000000000000000000000000600052602260045260246000fd5b6000600282049050600182168061266357607f821691505b6020821081036126765761267561261c565b5b50919050565b7f4e487b7100000000000000000000000000000000000000000000000000000000600052601160045260246000fd5b60006126b6826121e3565b91507fffffffffffffffffffffffffffffffffffffffffffffffffffffffffffffffff82036126e8576126e761267c565b5b600182019050919050565b60006060820190506127086000830186612278565b612715602083018561230e565b6127226040830184612278565b949350505050565b600060408201905061273f6000830185612278565b61274c602083018461230e565b9392505050565b7f4e487b7100000000000000000000000000000000000000000000000000000000600052603260045260246000fd5b7f4e4654206e6f74206f776e65642062792073656e646572000000000000000000600082015250565b60006127b860178361213c565b91506127c382612782565b602082019050919050565b600060208201905081810360008301526127e7816127ab565b9050919050565b600081519050919050565b600082825260208201905092915050565b6000612815826127ee565b61281f81856127f9565b935061282f81856020860161214d565b61283881612177565b840191505092915050565b60006040820190506128586000830185612278565b818103602083015261286a818461280a565b90509392505050565b600081519050612882816121ed565b92915050565b60006020828403121561289e5761289d61206c565b5b60006128ac84828501612873565b91505092915050565b7f4e4654206f6e6c79206d696e7461626c65206279204c31000000000000000000600082015250565b60006128eb60178361213c565b91506128f6826128b5565b602082019050919050565b6000602082019050818103600083015261291a816128de565b9050919050565b600061292c826121e3565b9150612937836121e3565b925082820190508082111561294f5761294e61267c565b5b92915050565b600060808201905061296a6000830187612278565b6129776020830186612278565b612984604083018561230e565b8181036060830152612996818461280a565b905095945050505050565b6000815190506129b0816120a2565b92915050565b6000602082840312156129cc576129cb61206c565b5b60006129da848285016129a1565b91505092915050565b60006129ee826121e3565b91506129f9836121e3565b9250828203905081811115612a1157612a1061267c565b5b92915050565b7f4e487b7100000000000000000000000000000000000000000000000000000000600052603160045260246000fdfe68747470733a2f2f77617474737761702e76657263656c2e6170702f5f6e6578742f696d6167653f75726c3d253246636f6d6d756e697461732e706e6726773d32353626713d3735a264697066735822122090f15ce4eb3beae825bcbd3e746b17ee4284d0e12e9543fb2010e73236e52f2a64736f6c63430008180033",
  "linkReferences": {},
  "deployedLinkReferences": {}
}