{"abi":[{"type":"function","name":"MIN_PRICE","inputs":[],"outputs":[{"name":"","type":"uint256","internalType":"uint256"}],"stateMutability":"view"},{"type":"function","name":"UPGRADE_INTERFACE_VERSION","inputs":[],"outputs":[{"name":"","type":"string","internalType":"string"}],"stateMutability":"view"},{"type":"function","name":"asksByHour","inputs":[{"name":"","type":"uint256","internalType":"uint256"},{"name":"","type":"uint256","internalType":"uint256"}],"outputs":[{"name":"seller","type":"address","internalType":"address"},{"name":"settled","type":"bool","internalType":"bool"},{"name":"canceled","type":"bool","internalType":"bool"},{"name":"amount","type":"uint256","internalType":"uint256"},{"name":"matchedAmount","type":"uint256","internalType":"uint256"}],"stateMutability":"view"},{"type":"function","name":"balanceOf","inputs":[{"name":"user","type":"address","internalType":"address"}],"outputs":[{"name":"","type":"uint256","internalType":"uint256"}],"stateMutability":"view"},{"type":"function","name":"bidsByHour","inputs":[{"name":"","type":"uint256","internalType":"uint256"},{"name":"","type":"uint256","internalType":"uint256"}],"outputs":[{"name":"bidder","type":"address","internalType":"address"},{"name":"settled","type":"bool","internalType":"bool"},{"name":"canceled","type":"bool","internalType":"bool"},{"name":"amount","type":"uint256","internalType":"uint256"},{"name":"price","type":"uint256","internalType":"uint256"}],"stateMutability":"view"},{"type":"function","name":"cancelBid","inputs":[{"name":"hour","type":"uint256","internalType":"uint256"},{"name":"index","type":"uint256","internalType":"uint256"}],"outputs":[],"stateMutability":"nonpayable"},{"type":"function","name":"claimBalance","inputs":[],"outputs":[],"stateMutability":"nonpayable"},{"type":"function","name":"claimableBalance","inputs":[{"name":"","type":"address","internalType":"address"}],"outputs":[{"name":"","type":"uint256","internalType":"uint256"}],"stateMutability":"view"},{"type":"function","name":"clearMarket","inputs":[{"name":"hour","type":"uint256","internalType":"uint256"}],"outputs":[],"stateMutability":"nonpayable"},{"type":"function","name":"clearingPricePerHour","inputs":[{"name":"","type":"uint256","internalType":"uint256"}],"outputs":[{"name":"","type":"uint256","internalType":"uint256"}],"stateMutability":"view"},{"type":"function","name":"getAsksByAddress","inputs":[{"name":"hour","type":"uint256","internalType":"uint256"},{"name":"user","type":"address","internalType":"address"}],"outputs":[{"name":"","type":"tuple[]","internalType":"struct EnergyBiddingMarket.Ask[]","components":[{"name":"seller","type":"address","internalType":"address"},{"name":"settled","type":"bool","internalType":"bool"},{"name":"canceled","type":"bool","internalType":"bool"},{"name":"amount","type":"uint256","internalType":"uint256"},{"name":"matchedAmount","type":"uint256","internalType":"uint256"}]}],"stateMutability":"view"},{"type":"function","name":"getAsksByHour","inputs":[{"name":"hour","type":"uint256","internalType":"uint256"}],"outputs":[{"name":"","type":"tuple[]","internalType":"struct EnergyBiddingMarket.Ask[]","components":[{"name":"seller","type":"address","internalType":"address"},{"name":"settled","type":"bool","internalType":"bool"},{"name":"canceled","type":"bool","internalType":"bool"},{"name":"amount","type":"uint256","internalType":"uint256"},{"name":"matchedAmount","type":"uint256","internalType":"uint256"}]}],"stateMutability":"view"},{"type":"function","name":"getBidsByAddress","inputs":[{"name":"hour","type":"uint256","internalType":"uint256"},{"name":"user","type":"address","internalType":"address"}],"outputs":[{"name":"","type":"tuple[]","internalType":"struct EnergyBiddingMarket.Bid[]","components":[{"name":"bidder","type":"address","internalType":"address"},{"name":"settled","type":"bool","internalType":"bool"},{"name":"canceled","type":"bool","internalType":"bool"},{"name":"amount","type":"uint256","internalType":"uint256"},{"name":"price","type":"uint256","internalType":"uint256"}]}],"stateMutability":"view"},{"type":"function","name":"getBidsByHour","inputs":[{"name":"hour","type":"uint256","internalType":"uint256"}],"outputs":[{"name":"","type":"tuple[]","internalType":"struct EnergyBiddingMarket.Bid[]","components":[{"name":"bidder","type":"address","internalType":"address"},{"name":"settled","type":"bool","internalType":"bool"},{"name":"canceled","type":"bool","internalType":"bool"},{"name":"amount","type":"uint256","internalType":"uint256"},{"name":"price","type":"uint256","internalType":"uint256"}]}],"stateMutability":"view"},{"type":"function","name":"getClearingPrice","inputs":[{"name":"hour","type":"uint256","internalType":"uint256"}],"outputs":[{"name":"","type":"uint256","internalType":"uint256"}],"stateMutability":"view"},{"type":"function","name":"initialize","inputs":[{"name":"owner","type":"address","internalType":"address"}],"outputs":[],"stateMutability":"nonpayable"},{"type":"function","name":"isMarketCleared","inputs":[{"name":"","type":"uint256","internalType":"uint256"}],"outputs":[{"name":"","type":"bool","internalType":"bool"}],"stateMutability":"view"},{"type":"function","name":"owner","inputs":[],"outputs":[{"name":"","type":"address","internalType":"address"}],"stateMutability":"view"},{"type":"function","name":"placeAsk","inputs":[{"name":"hour","type":"uint256","internalType":"uint256"},{"name":"amount","type":"uint256","internalType":"uint256"}],"outputs":[],"stateMutability":"nonpayable"},{"type":"function","name":"placeBid","inputs":[{"name":"hour","type":"uint256","internalType":"uint256"},{"name":"amount","type":"uint256","internalType":"uint256"}],"outputs":[],"stateMutability":"payable"},{"type":"function","name":"placeMultipleBids","inputs":[{"name":"beginHour","type":"uint256","internalType":"uint256"},{"name":"endHour","type":"uint256","internalType":"uint256"},{"name":"amount","type":"uint256","internalType":"uint256"}],"outputs":[],"stateMutability":"payable"},{"type":"function","name":"placeMultipleBids","inputs":[{"name":"biddingHours","type":"uint256[]","internalType":"uint256[]"},{"name":"amount","type":"uint256","internalType":"uint256"}],"outputs":[],"stateMutability":"payable"},{"type":"function","name":"proxiableUUID","inputs":[],"outputs":[{"name":"","type":"bytes32","internalType":"bytes32"}],"stateMutability":"view"},{"type":"function","name":"renounceOwnership","inputs":[],"outputs":[],"stateMutability":"nonpayable"},{"type":"function","name":"totalAsksByHour","inputs":[{"name":"","type":"uint256","internalType":"uint256"}],"outputs":[{"name":"","type":"uint256","internalType":"uint256"}],"stateMutability":"view"},{"type":"function","name":"totalBidsByHour","inputs":[{"name":"","type":"uint256","internalType":"uint256"}],"outputs":[{"name":"","type":"uint256","internalType":"uint256"}],"stateMutability":"view"},{"type":"function","name":"transferOwnership","inputs":[{"name":"newOwner","type":"address","internalType":"address"}],"outputs":[],"stateMutability":"nonpayable"},{"type":"function","name":"upgradeToAndCall","inputs":[{"name":"newImplementation","type":"address","internalType":"address"},{"name":"data","type":"bytes","internalType":"bytes"}],"outputs":[],"stateMutability":"payable"},{"type":"event","name":"AskFulfilled","inputs":[{"name":"hour","type":"uint256","indexed":true,"internalType":"uint256"},{"name":"seller","type":"address","indexed":true,"internalType":"address"},{"name":"id","type":"uint256","indexed":true,"internalType":"uint256"},{"name":"amount","type":"uint256","indexed":false,"internalType":"uint256"},{"name":"price","type":"uint256","indexed":false,"internalType":"uint256"}],"anonymous":false},{"type":"event","name":"AskPartiallyFulfilled","inputs":[{"name":"hour","type":"uint256","indexed":true,"internalType":"uint256"},{"name":"seller","type":"address","indexed":true,"internalType":"address"},{"name":"id","type":"uint256","indexed":true,"internalType":"uint256"},{"name":"amount","type":"uint256","indexed":false,"internalType":"uint256"},{"name":"price","type":"uint256","indexed":false,"internalType":"uint256"}],"anonymous":false},{"type":"event","name":"AskPlaced","inputs":[{"name":"seller","type":"address","indexed":true,"internalType":"address"},{"name":"hour","type":"uint256","indexed":false,"internalType":"uint256"},{"name":"amount","type":"uint256","indexed":false,"internalType":"uint256"}],"anonymous":false},{"type":"event","name":"BidFulfilled","inputs":[{"name":"hour","type":"uint256","indexed":true,"internalType":"uint256"},{"name":"id","type":"uint256","indexed":true,"internalType":"uint256"},{"name":"bidder","type":"address","indexed":true,"internalType":"address"},{"name":"amount","type":"uint256","indexed":false,"internalType":"uint256"},{"name":"price","type":"uint256","indexed":false,"internalType":"uint256"}],"anonymous":false},{"type":"event","name":"BidPlaced","inputs":[{"name":"bidder","type":"address","indexed":true,"internalType":"address"},{"name":"hour","type":"uint256","indexed":false,"internalType":"uint256"},{"name":"amount","type":"uint256","indexed":false,"internalType":"uint256"},{"name":"price","type":"uint256","indexed":false,"internalType":"uint256"}],"anonymous":false},{"type":"event","name":"Initialized","inputs":[{"name":"version","type":"uint64","indexed":false,"internalType":"uint64"}],"anonymous":false},{"type":"event","name":"MarketCleared","inputs":[{"name":"hour","type":"uint256","indexed":false,"internalType":"uint256"},{"name":"clearingPrice","type":"uint256","indexed":false,"internalType":"uint256"}],"anonymous":false},{"type":"event","name":"OwnershipTransferred","inputs":[{"name":"previousOwner","type":"address","indexed":true,"internalType":"address"},{"name":"newOwner","type":"address","indexed":true,"internalType":"address"}],"anonymous":false},{"type":"event","name":"SettlementDone","inputs":[{"name":"hour","type":"uint256","indexed":false,"internalType":"uint256"},{"name":"user","type":"address","indexed":false,"internalType":"address"},{"name":"amount","type":"uint256","indexed":false,"internalType":"uint256"},{"name":"isBid","type":"bool","indexed":false,"internalType":"bool"}],"anonymous":false},{"type":"event","name":"Upgraded","inputs":[{"name":"implementation","type":"address","indexed":true,"internalType":"address"}],"anonymous":false},{"type":"error","name":"AddressEmptyCode","inputs":[{"name":"target","type":"address","internalType":"address"}]},{"type":"error","name":"ERC1967InvalidImplementation","inputs":[{"name":"implementation","type":"address","internalType":"address"}]},{"type":"error","name":"ERC1967NonPayable","inputs":[]},{"type":"error","name":"EnergyBiddingMarket__AmountCannotBeZero","inputs":[]},{"type":"error","name":"EnergyBiddingMarket__BidIsAlreadyCanceled","inputs":[{"name":"hour","type":"uint256","internalType":"uint256"},{"name":"index","type":"uint256","internalType":"uint256"}]},{"type":"error","name":"EnergyBiddingMarket__BidMinimumPriceNotMet","inputs":[{"name":"price","type":"uint256","internalType":"uint256"},{"name":"minimumPrice","type":"uint256","internalType":"uint256"}]},{"type":"error","name":"EnergyBiddingMarket__MarketAlreadyClearedForThisHour","inputs":[{"name":"hour","type":"uint256","internalType":"uint256"}]},{"type":"error","name":"EnergyBiddingMarket__NoBidsOrAsksForThisHour","inputs":[{"name":"hour","type":"uint256","internalType":"uint256"}]},{"type":"error","name":"EnergyBiddingMarket__NoClaimableBalance","inputs":[{"name":"user","type":"address","internalType":"address"}]},{"type":"error","name":"EnergyBiddingMarket__OnlyBidOwnerCanCancel","inputs":[{"name":"hour","type":"uint256","internalType":"uint256"},{"name":"bidder","type":"address","internalType":"address"}]},{"type":"error","name":"EnergyBiddingMarket__WrongHourProvided","inputs":[{"name":"hour","type":"uint256","internalType":"uint256"}]},{"type":"error","name":"EnergyBiddingMarket__WrongHoursProvided","inputs":[{"name":"beginHour","type":"uint256","internalType":"uint256"},{"name":"endHour","type":"uint256","internalType":"uint256"}]},{"type":"error","name":"FailedInnerCall","inputs":[]},{"type":"error","name":"InvalidInitialization","inputs":[]},{"type":"error","name":"NotInitializing","inputs":[]},{"type":"error","name":"OwnableInvalidOwner","inputs":[{"name":"owner","type":"address","internalType":"address"}]},{"type":"error","name":"OwnableUnauthorizedAccount","inputs":[{"name":"account","type":"address","internalType":"address"}]},{"type":"error","name":"UUPSUnauthorizedCallContext","inputs":[]},{"type":"error","name":"UUPSUnsupportedProxiableUUID","inputs":[{"name":"slot","type":"bytes32","internalType":"bytes32"}]}],"bytecode":{"object":"0x60a060405230608052348015601357600080fd5b5060805161288e61003d60003960008181611eac01528181611ed5015261201b015261288e6000f3fe6080604052600436106101b75760003560e01c806375a8b702116100ec578063ad3cb1cc1161008a578063cc253ed211610064578063cc253ed2146105df578063d94c32af1461060c578063f2fde38b1461062c578063fe4d73241461064c57600080fd5b8063ad3cb1cc14610568578063ad9f20a6146105a6578063c4d66de8146105bf57600080fd5b80638da5cb5b116100c65780638da5cb5b1461047357806394578ac6146104ba57806397e33ea4146104e7578063a5f74cba1461050757600080fd5b806375a8b7021461038a5780637ebb29e0146103aa5780638672cf581461044657600080fd5b80634f1ef28611610159578063604d031511610133578063604d0315146102ff57806360f3309b1461031257806370a082311461033f578063715018a61461037557600080fd5b80634f1ef286146102c457806352d1902d146102d757806357c90de5146102ec57600080fd5b8063213acfd811610195578063213acfd8146102425780632714f3221461026f57806330509bca1461028f5780634b393605146102a457600080fd5b806312f3a69c146101bc57806313bc9f66146101f25780631b54362314610207575b600080fd5b3480156101c857600080fd5b506101dc6101d73660046123b1565b61068c565b6040516101e99190612417565b60405180910390f35b610205610200366004612465565b61082a565b005b34801561021357600080fd5b50610234610222366004612491565b60009081526004602052604090205490565b6040519081526020016101e9565b34801561024e57600080fd5b5061023461025d366004612491565b60036020526000908152604090205481565b34801561027b57600080fd5b5061020561028a366004612491565b610942565b34801561029b57600080fd5b50610205610e0b565b3480156102b057600080fd5b506102056102bf3660046124aa565b610e7d565b6102056102d2366004612513565b610f92565b3480156102e357600080fd5b50610234610fad565b6102056102fa3660046124aa565b610fca565b61020561030d3660046125be565b611038565b34801561031e57600080fd5b5061023461032d366004612677565b60076020526000908152604090205481565b34801561034b57600080fd5b5061023461035a366004612677565b6001600160a01b031660009081526007602052604090205490565b34801561038157600080fd5b506102056110b1565b34801561039657600080fd5b506102056103a53660046124aa565b6110c5565b3480156103b657600080fd5b5061040e6103c53660046124aa565b600160208181526000938452604080852090915291835291208054918101546002909101546001600160a01b0383169260ff600160a01b8204811693600160a81b909204169185565b604080516001600160a01b0390961686529315156020860152911515928401929092526060830191909152608082015260a0016101e9565b34801561045257600080fd5b506104666104613660046123b1565b6112aa565b6040516101e99190612692565b34801561047f57600080fd5b507f9016d09d72d40fdae2fd8ceac6b6234c7706214fd39c1cd1e609a0528c199300546040516001600160a01b0390911681526020016101e9565b3480156104c657600080fd5b506102346104d5366004612491565b60026020526000908152604090205481565b3480156104f357600080fd5b506101dc610502366004612491565b611437565b34801561051357600080fd5b5061040e6105223660046124aa565b60006020818152928152604080822090935290815220805460018201546002909201546001600160a01b0382169260ff600160a01b8404811693600160a81b9004169185565b34801561057457600080fd5b50610599604051806040016040528060058152602001640352e302e360dc1b81525081565b6040516101e991906126f9565b3480156105b257600080fd5b5061023464e8d4a5100081565b3480156105cb57600080fd5b506102056105da366004612677565b611543565b3480156105eb57600080fd5b506102346105fa366004612491565b60046020526000908152604090205481565b34801561061857600080fd5b50610466610627366004612491565b611657565b34801561063857600080fd5b50610205610647366004612677565b61175a565b34801561065857600080fd5b5061067c610667366004612491565b60066020526000908152604090205460ff1681565b60405190151581526020016101e9565b600082815260036020526040812054606091805b828110156106ea5760008681526001602090815260408083208484529091529020546001600160a01b038087169116036106e257816106de81612742565b9250505b6001016106a0565b5060008167ffffffffffffffff811115610706576107066124cc565b60405190808252806020026020018201604052801561073f57816020015b61072c612367565b8152602001906001900390816107245790505b5090506000915060005b8381101561081e5760008781526001602090815260408083208484529091529020546001600160a01b03808816911603610816576000878152600160208181526040808420858552825292839020835160a08101855281546001600160a01b038116825260ff600160a01b82048116151594830194909452600160a81b9004909216151593820193909352908201546060820152600290910154608082015282518390859081106107fc576107fc61275b565b6020026020010181905250828061081290612742565b9350505b600101610749565b50925050505b92915050565b82610837610e1082612787565b1561085d576040516305186e1960e31b8152600481018290526024015b60405180910390fd5b8261086a610e1082612787565b1561088b576040516305186e1960e31b815260048101829052602401610854565b826000036108ac5760405163b4983d9960e01b815260040160405180910390fd5b836108b986610e1061279b565b11156108e25760405163062710c560e51b81526004810186905260248101859052604401610854565b6000610e106108f187876127ae565b6108fb90866127c1565b61090591906127d8565b61090f90346127d8565b9050855b8581101561093957610926818684611798565b610932610e108261279b565b9050610913565b50505050505050565b8061094f610e1082612787565b15610970576040516305186e1960e31b815260048101829052602401610854565b4261097d83610e1061279b565b111561099f576040516305186e1960e31b815260048101839052602401610854565b60008281526002602052604081205490036109d057604051630df2bda760e31b815260048101839052602401610854565b60008281526006602052604090205460ff1615610a03576040516330a70c2d60e11b815260048101839052602401610854565b610a0c82611957565b60008281526002602090815260408083205460039092528220549091610a3185611dc2565b6000868152600460205260408120829055909150805b84811015610da65760008781526020818152604080832084845290915290206002810154841180610a76575083155b15610aff57815b86811015610af85760008981526020818152604080832084845290915290206002810154600190910154610ab191906127c1565b60008a8152602081815260408083208584528252808320546001600160a01b03168352600790915281208054909190610aeb90849061279b565b9091555050600101610a7d565b5050610da6565b6000835b86811015610ced5760008a81526001602081815260408084208585529091528220600281015491810154909291610b39916127ae565b6001860154909150610b4b828661279b565b11610c1c57815460ff60a01b1916600160a01b17825560018201546002830155610b75818561279b565b9350610b8188826127c1565b82546001600160a01b031660009081526007602052604081208054909190610baa90849061279b565b9091555050815460408051838152602081018b905285926001600160a01b0316918f917fbeeb0e068b38584599ecdad61d683ab506f0715af81d0c38f7159a5d16a7b9b5910160405180910390a486610c0281612742565b97505084600101548403610c17575050610ced565b610ce3565b838560010154610c2c91906127ae565b826002016000828254610c3f919061279b565b909155505060018501548890610c569086906127ae565b610c6091906127c1565b82546001600160a01b031660009081526007602052604081208054909190610c8990849061279b565b90915550508154600183015460408051918252602082018b905285926001600160a01b0316918f917fd9ad2e163200cd40563fd17099f6e140b91a088ee6af02a2a4ccd35ae136105c910160405180910390a45050610ced565b5050600101610b03565b50815460ff60a01b1916600160a01b1782556002820154610d0f9086906127ae565b8260010154610d1e91906127c1565b82546001600160a01b031660009081526007602052604081208054909190610d4790849061279b565b90915550508154600183015460408051918252602082018890526001600160a01b039092169185918c917fd99f82a7ae313af230ab5df0770c9b0f04e4fbb630e685f3a3566ad44b97ef0b910160405180910390a45050600101610a47565b5060008681526006602052604090819020805460ff19166001179055517f515dc8352afddcfc4899a638cc6fcb94e434e2c1e703a124ebee89b6c454146e90610dfb9088908590918252602082015260400190565b60405180910390a1505050505050565b3360009081526007602052604081205490819003610e3e5760405163af9d8c8560e01b8152336004820152602401610854565b336000818152600760205260408082208290555183156108fc0291849190818181858888f19350505050158015610e79573d6000803e3d6000fd5b5050565b6000828152602081815260408083208484529091529020546001600160a01b03163314610ec657604051631c47ad6160e01b815260048101839052336024820152604401610854565b60008281526006602052604090205460ff1615610ef9576040516330a70c2d60e11b815260048101839052602401610854565b60008281526020818152604080832084845290915290208054600160a81b900460ff1615610f4457604051636b92f7f760e01b81526004810184905260248101839052604401610854565b805460ff60a81b1916600160a81b17815560028101546001820154610f6991906127c1565b3360009081526007602052604081208054909190610f8890849061279b565b9091555050505050565b610f9a611ea1565b610fa382611f46565b610e798282611f4e565b6000610fb7612010565b5060008051602061283983398151915290565b81610fd7610e1082612787565b15610ff8576040516305186e1960e31b815260048101829052602401610854565b816000036110195760405163b4983d9960e01b815260040160405180910390fd5b600061102583346127d8565b9050611032848483611798565b50505050565b806000036110595760405163b4983d9960e01b815260040160405180910390fd5b8151600061106782846127c1565b61107190346127d8565b905060005b828110156110aa576110a28582815181106110935761109361275b565b60200260200101518584611798565b600101611076565b5050505050565b6110b9612059565b6110c360006120b4565b565b816110d2610e1082612787565b156110f3576040516305186e1960e31b815260048101829052602401610854565b428310158061110d57504261110a84610e1061279b565b11155b1561112e576040516305186e1960e31b815260048101849052602401610854565b60008381526006602052604090205460ff1615611161576040516330a70c2d60e11b815260048101849052602401610854565b816000036111825760405163b4983d9960e01b815260040160405180910390fd5b60008381526003602081815260408084208054825160a081018452338152808501878152818501888152606083018b8152608084018a81528d8b526001808a52888c20878d528a52978b2094518554945193511515600160a81b0260ff60a81b19941515600160a01b026001600160a81b03199096166001600160a01b03929092169190911794909417929092169290921783559051948201949094559251600290930192909255878552929091528154909290919061124183612742565b90915550506000848152600560205260408120805485929061126490849061279b565b9091555050604080518581526020810185905233917f3d4436d553336892c92b8e854d102f0a3c1b1d60968acc1d262ed8bc6072706c910160405180910390a250505050565b600082815260026020526040812054606091805b82811015611306576000868152602081815260408083208484529091529020546001600160a01b038087169116036112fe57816112fa81612742565b9250505b6001016112be565b5060008167ffffffffffffffff811115611322576113226124cc565b60405190808252806020026020018201604052801561135b57816020015b611348612367565b8152602001906001900390816113405790505b5090506000915060005b8381101561081e576000878152602081815260408083208484529091529020546001600160a01b0380881691160361142f57600087815260208181526040808320848452825291829020825160a08101845281546001600160a01b038116825260ff600160a01b82048116151594830194909452600160a81b900490921615159282019290925260018201546060820152600290910154608082015282518390859081106114155761141561275b565b6020026020010181905250828061142b90612742565b9350505b600101611365565b6000818152600360205260408120546060918167ffffffffffffffff811115611462576114626124cc565b60405190808252806020026020018201604052801561149b57816020015b611488612367565b8152602001906001900390816114805790505b50905060005b8281101561153b576000858152600160208181526040808420858552825292839020835160a08101855281546001600160a01b038116825260ff600160a01b82048116151594830194909452600160a81b9004909216151593820193909352908201546060820152600290910154608082015282518390839081106115285761152861275b565b60209081029190910101526001016114a1565b509392505050565b7ff0c57e16840df040f15088dc2f81fe391c3923bec73e23a9662efc9c229c6a008054600160401b810460ff16159067ffffffffffffffff166000811580156115895750825b905060008267ffffffffffffffff1660011480156115a65750303b155b9050811580156115b4575080155b156115d25760405163f92ee8a960e01b815260040160405180910390fd5b845467ffffffffffffffff1916600117855583156115fc57845460ff60401b1916600160401b1785555b61160586612125565b61160d612136565b831561164f57845460ff60401b19168555604051600181527fc7f505b2f371ae2175ee4913f4499e1f2633a7b5936321eed1cdaeb6115181d290602001610dfb565b505050505050565b6000818152600260205260408120546060918167ffffffffffffffff811115611682576116826124cc565b6040519080825280602002602001820160405280156116bb57816020015b6116a8612367565b8152602001906001900390816116a05790505b50905060005b8281101561153b57600085815260208181526040808320848452825291829020825160a08101845281546001600160a01b038116825260ff600160a01b82048116151594830194909452600160a81b900490921615159282019290925260018201546060820152600290910154608082015282518390839081106117475761174761275b565b60209081029190910101526001016116c1565b611762612059565b6001600160a01b03811661178c57604051631e4fbdf760e01b815260006004820152602401610854565b611795816120b4565b50565b826117a5610e1082612787565b156117c6576040516305186e1960e31b815260048101829052602401610854565b4284116117e9576040516305186e1960e31b815260048101859052602401610854565b64e8d4a5100082101561181d57604051630100bf8960e31b81526004810183905264e8d4a510006024820152604401610854565b60008481526006602052604090205460ff1615611850576040516330a70c2d60e11b815260048101859052602401610854565b60008481526002602081815260408084208054825160a081018452338152808501878152818501888152606083018c8152608084018c81528e8b528a8952878b20868c528952968a2093518454935192511515600160a81b0260ff60a81b19931515600160a01b026001600160a81b03199095166001600160a01b0392909216919091179390931791909116919091178255516001820155925192850192909255888552929091528154909290919061190883612742565b9091555050604080518681526020810186905290810184905233907fb46d776cdb48d081a0c7d3ff32dc2792e4e8fbce788723207515723628020d329060600160405180910390a25050505050565b600081815260026020526040812054908167ffffffffffffffff811115611980576119806124cc565b6040519080825280602002602001820160405280156119a9578160200160208202803683370190505b50905060005b828110156119dd57808282815181106119ca576119ca61275b565b60209081029190910101526001016119af565b5060015b8151811015611b4c5760008282815181106119fe576119fe61275b565b60209081029190910181015160008781528083526040808220838352845290819020815160a08101835281546001600160a01b038116825260ff600160a01b82048116151596830196909652600160a81b9004909416151591840191909152600181015460608401526002015460808301529150825b600081118015611acb5750608082015160008881526020819052604081209087611a9f6001866127ae565b81518110611aaf57611aaf61275b565b6020026020010151815260200190815260200160002060020154105b15611b235784611adc6001836127ae565b81518110611aec57611aec61275b565b6020026020010151858281518110611b0657611b0661275b565b602090810291909101015280611b1b816127ec565b915050611a74565b82858281518110611b3657611b3661275b565b60209081029190910101525050506001016119e1565b5060005b81518110156110325780828281518110611b6c57611b6c61275b565b602002602001015114611dba57600084815260208181526040808320848452808352818420825160a08101845281546001600160a01b038116825260ff600160a01b82048116151583880152600160a81b9091041615159381019390935260018101546060840152600201546080830152878452918390528451909290859085908110611bfb57611bfb61275b565b60209081029190910181015182528181019290925260409081016000908120888252818452828220868352808552928220815481546001600160a01b039091166001600160a01b031982168117835583546001600160a81b031990921617600160a01b9182900460ff908116151590920217808355835460ff60a81b19909116600160a81b9182900490921615150217815560018083015490820155600291820154910155878152918290528451839290869086908110611cbe57611cbe61275b565b602090810291909101810151825281810192909252604090810160009081208451815494860151938601511515600160a81b0260ff60a81b19941515600160a01b026001600160a81b03199096166001600160a01b03909216919091179490941792909216929092178155606083015160018201556080909201516002909201919091558351849084908110611d5657611d5661275b565b60200260200101519050838181518110611d7257611d7261275b565b6020026020010151848481518110611d8c57611d8c61275b565b60200260200101818152505080848281518110611dab57611dab61275b565b60200260200101818152505050505b600101611b50565b60008181526002602090815260408083205460059092528220548290815b83811015611e6a57600086815260208181526040808320848452909152902060010154611e0d908461279b565b925081831115611e625780600003611e2b5750600095945050505050565b600086815260208190526040812090611e456001846127ae565b815260200190815260200160002060020154945050505050919050565b600101611de0565b50600085815260208190526040812090611e856001866127ae565b8152602001908152602001600020600201549350505050919050565b306001600160a01b037f0000000000000000000000000000000000000000000000000000000000000000161480611f2857507f00000000000000000000000000000000000000000000000000000000000000006001600160a01b0316611f1c600080516020612839833981519152546001600160a01b031690565b6001600160a01b031614155b156110c35760405163703e46dd60e11b815260040160405180910390fd5b611795612059565b816001600160a01b03166352d1902d6040518163ffffffff1660e01b8152600401602060405180830381865afa925050508015611fa8575060408051601f3d908101601f19168201909252611fa591810190612803565b60015b611fd057604051634c9c8ce360e01b81526001600160a01b0383166004820152602401610854565b600080516020612839833981519152811461200157604051632a87526960e21b815260048101829052602401610854565b61200b838361213e565b505050565b306001600160a01b037f000000000000000000000000000000000000000000000000000000000000000016146110c35760405163703e46dd60e11b815260040160405180910390fd5b3361208b7f9016d09d72d40fdae2fd8ceac6b6234c7706214fd39c1cd1e609a0528c199300546001600160a01b031690565b6001600160a01b0316146110c35760405163118cdaa760e01b8152336004820152602401610854565b7f9016d09d72d40fdae2fd8ceac6b6234c7706214fd39c1cd1e609a0528c19930080546001600160a01b031981166001600160a01b03848116918217845560405192169182907f8be0079c531659141344cd1fd0a4f28419497f9722a3daafe3b4186f6b6457e090600090a3505050565b61212d612194565b611795816121dd565b6110c3612194565b612147826121e5565b6040516001600160a01b038316907fbc7cd75a20ee27fd9adebab32041f755214dbc6bffa90cc0225b39da2e5c2d3b90600090a280511561218c5761200b828261224a565b610e796122c0565b7ff0c57e16840df040f15088dc2f81fe391c3923bec73e23a9662efc9c229c6a0054600160401b900460ff166110c357604051631afcd79f60e31b815260040160405180910390fd5b611762612194565b806001600160a01b03163b60000361221b57604051634c9c8ce360e01b81526001600160a01b0382166004820152602401610854565b60008051602061283983398151915280546001600160a01b0319166001600160a01b0392909216919091179055565b6060600080846001600160a01b031684604051612267919061281c565b600060405180830381855af49150503d80600081146122a2576040519150601f19603f3d011682016040523d82523d6000602084013e6122a7565b606091505b50915091506122b78583836122df565b95945050505050565b34156110c35760405163b398979f60e01b815260040160405180910390fd5b6060826122f4576122ef8261233e565b612337565b815115801561230b57506001600160a01b0384163b155b1561233457604051639996b31560e01b81526001600160a01b0385166004820152602401610854565b50805b9392505050565b80511561234e5780518082602001fd5b604051630a12f52160e11b815260040160405180910390fd5b6040805160a08101825260008082526020820181905291810182905260608101829052608081019190915290565b80356001600160a01b03811681146123ac57600080fd5b919050565b600080604083850312156123c457600080fd5b823591506123d460208401612395565b90509250929050565b80516001600160a01b0316825260208082015115159083015260408082015115159083015260608082015190830152608090810151910152565b602080825282518282018190526000918401906040840190835b8181101561245a576124448385516123dd565b6020939093019260a09290920191600101612431565b509095945050505050565b60008060006060848603121561247a57600080fd5b505081359360208301359350604090920135919050565b6000602082840312156124a357600080fd5b5035919050565b600080604083850312156124bd57600080fd5b50508035926020909101359150565b634e487b7160e01b600052604160045260246000fd5b604051601f8201601f1916810167ffffffffffffffff8111828210171561250b5761250b6124cc565b604052919050565b6000806040838503121561252657600080fd5b61252f83612395565b9150602083013567ffffffffffffffff81111561254b57600080fd5b8301601f8101851361255c57600080fd5b803567ffffffffffffffff811115612576576125766124cc565b612589601f8201601f19166020016124e2565b81815286602083850101111561259e57600080fd5b816020840160208301376000602083830101528093505050509250929050565b600080604083850312156125d157600080fd5b823567ffffffffffffffff8111156125e857600080fd5b8301601f810185136125f957600080fd5b803567ffffffffffffffff811115612613576126136124cc565b8060051b612623602082016124e2565b9182526020818401810192908101908884111561263f57600080fd5b6020850194505b8385101561266557843580835260209586019590935090910190612646565b98602097909701359750505050505050565b60006020828403121561268957600080fd5b61233782612395565b602080825282518282018190526000918401906040840190835b8181101561245a576126bf8385516123dd565b6020939093019260a092909201916001016126ac565b60005b838110156126f05781810151838201526020016126d8565b50506000910152565b60208152600082518060208401526127188160408501602087016126d5565b601f01601f19169190910160400192915050565b634e487b7160e01b600052601160045260246000fd5b6000600182016127545761275461272c565b5060010190565b634e487b7160e01b600052603260045260246000fd5b634e487b7160e01b600052601260045260246000fd5b60008261279657612796612771565b500690565b808201808211156108245761082461272c565b818103818111156108245761082461272c565b80820281158282048414176108245761082461272c565b6000826127e7576127e7612771565b500490565b6000816127fb576127fb61272c565b506000190190565b60006020828403121561281557600080fd5b5051919050565b6000825161282e8184602087016126d5565b919091019291505056fe360894a13ba1a3210667c828492db98dca3e2076cc3735a920a3ca505d382bbca2646970667358221220d2b99904a490f6888d9738881c73963930d1f517dc954d71c163695de369e39464736f6c634300081a0033","linkReferences":{}},"methodIdentifiers":{"MIN_PRICE()":"ad9f20a6","UPGRADE_INTERFACE_VERSION()":"ad3cb1cc","asksByHour(uint256,uint256)":"7ebb29e0","balanceOf(address)":"70a08231","bidsByHour(uint256,uint256)":"a5f74cba","cancelBid(uint256,uint256)":"4b393605","claimBalance()":"30509bca","claimableBalance(address)":"60f3309b","clearMarket(uint256)":"2714f322","clearingPricePerHour(uint256)":"cc253ed2","getAsksByAddress(uint256,address)":"12f3a69c","getAsksByHour(uint256)":"97e33ea4","getBidsByAddress(uint256,address)":"8672cf58","getBidsByHour(uint256)":"d94c32af","getClearingPrice(uint256)":"1b543623","initialize(address)":"c4d66de8","isMarketCleared(uint256)":"fe4d7324","owner()":"8da5cb5b","placeAsk(uint256,uint256)":"75a8b702","placeBid(uint256,uint256)":"57c90de5","placeMultipleBids(uint256,uint256,uint256)":"13bc9f66","placeMultipleBids(uint256[],uint256)":"604d0315","proxiableUUID()":"52d1902d","renounceOwnership()":"715018a6","totalAsksByHour(uint256)":"213acfd8","totalBidsByHour(uint256)":"94578ac6","transferOwnership(address)":"f2fde38b","upgradeToAndCall(address,bytes)":"4f1ef286"},"storageLayout":{"storage":[{"astId":44813,"contract":"src/EnergyBiddingMarket.sol:EnergyBiddingMarket","label":"bidsByHour","offset":0,"slot":"0","type":"t_mapping(t_uint256,t_mapping(t_uint256,t_struct(Bid)44792_storage))"},{"astId":44820,"contract":"src/EnergyBiddingMarket.sol:EnergyBiddingMarket","label":"asksByHour","offset":0,"slot":"1","type":"t_mapping(t_uint256,t_mapping(t_uint256,t_struct(Ask)44803_storage))"},{"astId":44824,"contract":"src/EnergyBiddingMarket.sol:EnergyBiddingMarket","label":"totalBidsByHour","offset":0,"slot":"2","type":"t_mapping(t_uint256,t_uint256)"},{"astId":44828,"contract":"src/EnergyBiddingMarket.sol:EnergyBiddingMarket","label":"totalAsksByHour","offset":0,"slot":"3","type":"t_mapping(t_uint256,t_uint256)"},{"astId":44832,"contract":"src/EnergyBiddingMarket.sol:EnergyBiddingMarket","label":"clearingPricePerHour","offset":0,"slot":"4","type":"t_mapping(t_uint256,t_uint256)"},{"astId":44836,"contract":"src/EnergyBiddingMarket.sol:EnergyBiddingMarket","label":"totalAvailableEnergyByHour","offset":0,"slot":"5","type":"t_mapping(t_uint256,t_uint256)"},{"astId":44840,"contract":"src/EnergyBiddingMarket.sol:EnergyBiddingMarket","label":"isMarketCleared","offset":0,"slot":"6","type":"t_mapping(t_uint256,t_bool)"},{"astId":44844,"contract":"src/EnergyBiddingMarket.sol:EnergyBiddingMarket","label":"claimableBalance","offset":0,"slot":"7","type":"t_mapping(t_address,t_uint256)"}],"types":{"t_address":{"encoding":"inplace","label":"address","numberOfBytes":"20"},"t_bool":{"encoding":"inplace","label":"bool","numberOfBytes":"1"},"t_mapping(t_address,t_uint256)":{"encoding":"mapping","key":"t_address","label":"mapping(address => uint256)","numberOfBytes":"32","value":"t_uint256"},"t_mapping(t_uint256,t_bool)":{"encoding":"mapping","key":"t_uint256","label":"mapping(uint256 => bool)","numberOfBytes":"32","value":"t_bool"},"t_mapping(t_uint256,t_mapping(t_uint256,t_struct(Ask)44803_storage))":{"encoding":"mapping","key":"t_uint256","label":"mapping(uint256 => mapping(uint256 => struct EnergyBiddingMarket.Ask))","numberOfBytes":"32","value":"t_mapping(t_uint256,t_struct(Ask)44803_storage)"},"t_mapping(t_uint256,t_mapping(t_uint256,t_struct(Bid)44792_storage))":{"encoding":"mapping","key":"t_uint256","label":"mapping(uint256 => mapping(uint256 => struct EnergyBiddingMarket.Bid))","numberOfBytes":"32","value":"t_mapping(t_uint256,t_struct(Bid)44792_storage)"},"t_mapping(t_uint256,t_struct(Ask)44803_storage)":{"encoding":"mapping","key":"t_uint256","label":"mapping(uint256 => struct EnergyBiddingMarket.Ask)","numberOfBytes":"32","value":"t_struct(Ask)44803_storage"},"t_mapping(t_uint256,t_struct(Bid)44792_storage)":{"encoding":"mapping","key":"t_uint256","label":"mapping(uint256 => struct EnergyBiddingMarket.Bid)","numberOfBytes":"32","value":"t_struct(Bid)44792_storage"},"t_mapping(t_uint256,t_uint256)":{"encoding":"mapping","key":"t_uint256","label":"mapping(uint256 => uint256)","numberOfBytes":"32","value":"t_uint256"},"t_struct(Ask)44803_storage":{"encoding":"inplace","label":"struct EnergyBiddingMarket.Ask","numberOfBytes":"96","members":[{"astId":44794,"contract":"src/EnergyBiddingMarket.sol:EnergyBiddingMarket","label":"seller","offset":0,"slot":"0","type":"t_address"},{"astId":44796,"contract":"src/EnergyBiddingMarket.sol:EnergyBiddingMarket","label":"settled","offset":20,"slot":"0","type":"t_bool"},{"astId":44798,"contract":"src/EnergyBiddingMarket.sol:EnergyBiddingMarket","label":"canceled","offset":21,"slot":"0","type":"t_bool"},{"astId":44800,"contract":"src/EnergyBiddingMarket.sol:EnergyBiddingMarket","label":"amount","offset":0,"slot":"1","type":"t_uint256"},{"astId":44802,"contract":"src/EnergyBiddingMarket.sol:EnergyBiddingMarket","label":"matchedAmount","offset":0,"slot":"2","type":"t_uint256"}]},"t_struct(Bid)44792_storage":{"encoding":"inplace","label":"struct EnergyBiddingMarket.Bid","numberOfBytes":"96","members":[{"astId":44783,"contract":"src/EnergyBiddingMarket.sol:EnergyBiddingMarket","label":"bidder","offset":0,"slot":"0","type":"t_address"},{"astId":44785,"contract":"src/EnergyBiddingMarket.sol:EnergyBiddingMarket","label":"settled","offset":20,"slot":"0","type":"t_bool"},{"astId":44787,"contract":"src/EnergyBiddingMarket.sol:EnergyBiddingMarket","label":"canceled","offset":21,"slot":"0","type":"t_bool"},{"astId":44789,"contract":"src/EnergyBiddingMarket.sol:EnergyBiddingMarket","label":"amount","offset":0,"slot":"1","type":"t_uint256"},{"astId":44791,"contract":"src/EnergyBiddingMarket.sol:EnergyBiddingMarket","label":"price","offset":0,"slot":"2","type":"t_uint256"}]},"t_uint256":{"encoding":"inplace","label":"uint256","numberOfBytes":"32"}}},"id":52}