{"abi":[{"type":"function","name":"MIN_PRICE","inputs":[],"outputs":[{"name":"","type":"uint256","internalType":"uint256"}],"stateMutability":"view"},{"type":"function","name":"UPGRADE_INTERFACE_VERSION","inputs":[],"outputs":[{"name":"","type":"string","internalType":"string"}],"stateMutability":"view"},{"type":"function","name":"asksByHour","inputs":[{"name":"","type":"uint256","internalType":"uint256"},{"name":"","type":"uint256","internalType":"uint256"}],"outputs":[{"name":"seller","type":"address","internalType":"address"},{"name":"settled","type":"bool","internalType":"bool"},{"name":"canceled","type":"bool","internalType":"bool"},{"name":"amount","type":"uint256","internalType":"uint256"},{"name":"matchedAmount","type":"uint256","internalType":"uint256"}],"stateMutability":"view"},{"type":"function","name":"balanceOf","inputs":[{"name":"user","type":"address","internalType":"address"}],"outputs":[{"name":"","type":"uint256","internalType":"uint256"}],"stateMutability":"view"},{"type":"function","name":"bidsByHour","inputs":[{"name":"","type":"uint256","internalType":"uint256"},{"name":"","type":"uint256","internalType":"uint256"}],"outputs":[{"name":"bidder","type":"address","internalType":"address"},{"name":"settled","type":"bool","internalType":"bool"},{"name":"canceled","type":"bool","internalType":"bool"},{"name":"amount","type":"uint256","internalType":"uint256"},{"name":"price","type":"uint256","internalType":"uint256"}],"stateMutability":"view"},{"type":"function","name":"cancelBid","inputs":[{"name":"hour","type":"uint256","internalType":"uint256"},{"name":"index","type":"uint256","internalType":"uint256"}],"outputs":[],"stateMutability":"nonpayable"},{"type":"function","name":"claimBalance","inputs":[],"outputs":[],"stateMutability":"nonpayable"},{"type":"function","name":"claimableBalance","inputs":[{"name":"","type":"address","internalType":"address"}],"outputs":[{"name":"","type":"uint256","internalType":"uint256"}],"stateMutability":"view"},{"type":"function","name":"clearMarket","inputs":[{"name":"hour","type":"uint256","internalType":"uint256"}],"outputs":[],"stateMutability":"nonpayable"},{"type":"function","name":"clearMarketPastHour","inputs":[],"outputs":[],"stateMutability":"nonpayable"},{"type":"function","name":"clearingPricePerHour","inputs":[{"name":"","type":"uint256","internalType":"uint256"}],"outputs":[{"name":"","type":"uint256","internalType":"uint256"}],"stateMutability":"view"},{"type":"function","name":"getAsksByAddress","inputs":[{"name":"hour","type":"uint256","internalType":"uint256"},{"name":"user","type":"address","internalType":"address"}],"outputs":[{"name":"","type":"tuple[]","internalType":"struct EnergyBiddingMarket.Ask[]","components":[{"name":"seller","type":"address","internalType":"address"},{"name":"settled","type":"bool","internalType":"bool"},{"name":"canceled","type":"bool","internalType":"bool"},{"name":"amount","type":"uint256","internalType":"uint256"},{"name":"matchedAmount","type":"uint256","internalType":"uint256"}]}],"stateMutability":"view"},{"type":"function","name":"getAsksByHour","inputs":[{"name":"hour","type":"uint256","internalType":"uint256"}],"outputs":[{"name":"","type":"tuple[]","internalType":"struct EnergyBiddingMarket.Ask[]","components":[{"name":"seller","type":"address","internalType":"address"},{"name":"settled","type":"bool","internalType":"bool"},{"name":"canceled","type":"bool","internalType":"bool"},{"name":"amount","type":"uint256","internalType":"uint256"},{"name":"matchedAmount","type":"uint256","internalType":"uint256"}]}],"stateMutability":"view"},{"type":"function","name":"getBidsByAddress","inputs":[{"name":"hour","type":"uint256","internalType":"uint256"},{"name":"user","type":"address","internalType":"address"}],"outputs":[{"name":"","type":"tuple[]","internalType":"struct EnergyBiddingMarket.Bid[]","components":[{"name":"bidder","type":"address","internalType":"address"},{"name":"settled","type":"bool","internalType":"bool"},{"name":"canceled","type":"bool","internalType":"bool"},{"name":"amount","type":"uint256","internalType":"uint256"},{"name":"price","type":"uint256","internalType":"uint256"}]}],"stateMutability":"view"},{"type":"function","name":"getBidsByHour","inputs":[{"name":"hour","type":"uint256","internalType":"uint256"}],"outputs":[{"name":"","type":"tuple[]","internalType":"struct EnergyBiddingMarket.Bid[]","components":[{"name":"bidder","type":"address","internalType":"address"},{"name":"settled","type":"bool","internalType":"bool"},{"name":"canceled","type":"bool","internalType":"bool"},{"name":"amount","type":"uint256","internalType":"uint256"},{"name":"price","type":"uint256","internalType":"uint256"}]}],"stateMutability":"view"},{"type":"function","name":"getClearingPrice","inputs":[{"name":"hour","type":"uint256","internalType":"uint256"}],"outputs":[{"name":"","type":"uint256","internalType":"uint256"}],"stateMutability":"view"},{"type":"function","name":"getCurrentHourTimestamp","inputs":[],"outputs":[{"name":"","type":"uint256","internalType":"uint256"}],"stateMutability":"view"},{"type":"function","name":"initialize","inputs":[{"name":"owner","type":"address","internalType":"address"}],"outputs":[],"stateMutability":"nonpayable"},{"type":"function","name":"isMarketCleared","inputs":[{"name":"","type":"uint256","internalType":"uint256"}],"outputs":[{"name":"","type":"bool","internalType":"bool"}],"stateMutability":"view"},{"type":"function","name":"owner","inputs":[],"outputs":[{"name":"","type":"address","internalType":"address"}],"stateMutability":"view"},{"type":"function","name":"placeAsk","inputs":[{"name":"amount","type":"uint256","internalType":"uint256"},{"name":"inBehalfOf","type":"address","internalType":"address"}],"outputs":[],"stateMutability":"nonpayable"},{"type":"function","name":"placeBid","inputs":[{"name":"hour","type":"uint256","internalType":"uint256"},{"name":"amount","type":"uint256","internalType":"uint256"}],"outputs":[],"stateMutability":"payable"},{"type":"function","name":"placeMultipleBids","inputs":[{"name":"beginHour","type":"uint256","internalType":"uint256"},{"name":"endHour","type":"uint256","internalType":"uint256"},{"name":"amount","type":"uint256","internalType":"uint256"}],"outputs":[],"stateMutability":"payable"},{"type":"function","name":"placeMultipleBids","inputs":[{"name":"biddingHours","type":"uint256[]","internalType":"uint256[]"},{"name":"amount","type":"uint256","internalType":"uint256"}],"outputs":[],"stateMutability":"payable"},{"type":"function","name":"proxiableUUID","inputs":[],"outputs":[{"name":"","type":"bytes32","internalType":"bytes32"}],"stateMutability":"view"},{"type":"function","name":"renounceOwnership","inputs":[],"outputs":[],"stateMutability":"nonpayable"},{"type":"function","name":"s_whitelistedSellers","inputs":[{"name":"","type":"address","internalType":"address"}],"outputs":[{"name":"","type":"bool","internalType":"bool"}],"stateMutability":"view"},{"type":"function","name":"totalAsksByHour","inputs":[{"name":"","type":"uint256","internalType":"uint256"}],"outputs":[{"name":"","type":"uint256","internalType":"uint256"}],"stateMutability":"view"},{"type":"function","name":"totalBidsByHour","inputs":[{"name":"","type":"uint256","internalType":"uint256"}],"outputs":[{"name":"","type":"uint256","internalType":"uint256"}],"stateMutability":"view"},{"type":"function","name":"transferOwnership","inputs":[{"name":"newOwner","type":"address","internalType":"address"}],"outputs":[],"stateMutability":"nonpayable"},{"type":"function","name":"upgradeToAndCall","inputs":[{"name":"newImplementation","type":"address","internalType":"address"},{"name":"data","type":"bytes","internalType":"bytes"}],"outputs":[],"stateMutability":"payable"},{"type":"function","name":"whitelistSeller","inputs":[{"name":"seller","type":"address","internalType":"address"}],"outputs":[],"stateMutability":"nonpayable"},{"type":"event","name":"AskFulfilled","inputs":[{"name":"hour","type":"uint256","indexed":true,"internalType":"uint256"},{"name":"seller","type":"address","indexed":true,"internalType":"address"},{"name":"id","type":"uint256","indexed":true,"internalType":"uint256"},{"name":"amount","type":"uint256","indexed":false,"internalType":"uint256"},{"name":"price","type":"uint256","indexed":false,"internalType":"uint256"}],"anonymous":false},{"type":"event","name":"AskPartiallyFulfilled","inputs":[{"name":"hour","type":"uint256","indexed":true,"internalType":"uint256"},{"name":"seller","type":"address","indexed":true,"internalType":"address"},{"name":"id","type":"uint256","indexed":true,"internalType":"uint256"},{"name":"amount","type":"uint256","indexed":false,"internalType":"uint256"},{"name":"price","type":"uint256","indexed":false,"internalType":"uint256"}],"anonymous":false},{"type":"event","name":"AskPlaced","inputs":[{"name":"seller","type":"address","indexed":true,"internalType":"address"},{"name":"hour","type":"uint256","indexed":false,"internalType":"uint256"},{"name":"amount","type":"uint256","indexed":false,"internalType":"uint256"}],"anonymous":false},{"type":"event","name":"BidFulfilled","inputs":[{"name":"hour","type":"uint256","indexed":true,"internalType":"uint256"},{"name":"id","type":"uint256","indexed":true,"internalType":"uint256"},{"name":"bidder","type":"address","indexed":true,"internalType":"address"},{"name":"amount","type":"uint256","indexed":false,"internalType":"uint256"},{"name":"price","type":"uint256","indexed":false,"internalType":"uint256"}],"anonymous":false},{"type":"event","name":"BidPlaced","inputs":[{"name":"bidder","type":"address","indexed":true,"internalType":"address"},{"name":"hour","type":"uint256","indexed":false,"internalType":"uint256"},{"name":"amount","type":"uint256","indexed":false,"internalType":"uint256"},{"name":"price","type":"uint256","indexed":false,"internalType":"uint256"}],"anonymous":false},{"type":"event","name":"Initialized","inputs":[{"name":"version","type":"uint64","indexed":false,"internalType":"uint64"}],"anonymous":false},{"type":"event","name":"MarketCleared","inputs":[{"name":"hour","type":"uint256","indexed":false,"internalType":"uint256"},{"name":"clearingPrice","type":"uint256","indexed":false,"internalType":"uint256"}],"anonymous":false},{"type":"event","name":"OwnershipTransferred","inputs":[{"name":"previousOwner","type":"address","indexed":true,"internalType":"address"},{"name":"newOwner","type":"address","indexed":true,"internalType":"address"}],"anonymous":false},{"type":"event","name":"SettlementDone","inputs":[{"name":"hour","type":"uint256","indexed":false,"internalType":"uint256"},{"name":"user","type":"address","indexed":false,"internalType":"address"},{"name":"amount","type":"uint256","indexed":false,"internalType":"uint256"},{"name":"isBid","type":"bool","indexed":false,"internalType":"bool"}],"anonymous":false},{"type":"event","name":"Upgraded","inputs":[{"name":"implementation","type":"address","indexed":true,"internalType":"address"}],"anonymous":false},{"type":"error","name":"AddressEmptyCode","inputs":[{"name":"target","type":"address","internalType":"address"}]},{"type":"error","name":"ERC1967InvalidImplementation","inputs":[{"name":"implementation","type":"address","internalType":"address"}]},{"type":"error","name":"ERC1967NonPayable","inputs":[]},{"type":"error","name":"EnergyBiddingMarket__AmountCannotBeZero","inputs":[]},{"type":"error","name":"EnergyBiddingMarket__BidIsAlreadyCanceled","inputs":[{"name":"hour","type":"uint256","internalType":"uint256"},{"name":"index","type":"uint256","internalType":"uint256"}]},{"type":"error","name":"EnergyBiddingMarket__BidMinimumPriceNotMet","inputs":[{"name":"price","type":"uint256","internalType":"uint256"},{"name":"minimumPrice","type":"uint256","internalType":"uint256"}]},{"type":"error","name":"EnergyBiddingMarket__MarketAlreadyClearedForThisHour","inputs":[{"name":"hour","type":"uint256","internalType":"uint256"}]},{"type":"error","name":"EnergyBiddingMarket__NoBidsOrAsksForThisHour","inputs":[{"name":"hour","type":"uint256","internalType":"uint256"}]},{"type":"error","name":"EnergyBiddingMarket__NoClaimableBalance","inputs":[{"name":"user","type":"address","internalType":"address"}]},{"type":"error","name":"EnergyBiddingMarket__OnlyBidOwnerCanCancel","inputs":[{"name":"hour","type":"uint256","internalType":"uint256"},{"name":"bidder","type":"address","internalType":"address"}]},{"type":"error","name":"EnergyBiddingMarket__WrongHourProvided","inputs":[{"name":"hour","type":"uint256","internalType":"uint256"}]},{"type":"error","name":"EnergyBiddingMarket__WrongHoursProvided","inputs":[{"name":"beginHour","type":"uint256","internalType":"uint256"},{"name":"endHour","type":"uint256","internalType":"uint256"}]},{"type":"error","name":"FailedCall","inputs":[]},{"type":"error","name":"InvalidInitialization","inputs":[]},{"type":"error","name":"NotInitializing","inputs":[]},{"type":"error","name":"OwnableInvalidOwner","inputs":[{"name":"owner","type":"address","internalType":"address"}]},{"type":"error","name":"OwnableUnauthorizedAccount","inputs":[{"name":"account","type":"address","internalType":"address"}]},{"type":"error","name":"UUPSUnauthorizedCallContext","inputs":[]},{"type":"error","name":"UUPSUnsupportedProxiableUUID","inputs":[{"name":"slot","type":"bytes32","internalType":"bytes32"}]}],"bytecode":{"object":"0x60a06040523073ffffffffffffffffffffffffffffffffffffffff1660809073ffffffffffffffffffffffffffffffffffffffff168152503480156041575f5ffd5b506080516142906100685f395f81816126450152818161269a015261285401526142905ff3fe6080604052600436106101e2575f3560e01c80638672cf5811610101578063bd4b514c11610094578063d94c32af11610063578063d94c32af146106ce578063ed4505f71461070a578063f2fde38b14610746578063fe4d73241461076e576101e2565b8063bd4b514c14610618578063c3e5d6ea14610640578063c4d66de81461066a578063cc253ed214610692576101e2565b806397e33ea4116100d057806397e33ea414610548578063a5f74cba14610584578063ad3cb1cc146105c4578063ad9f20a6146105ee576101e2565b80638672cf581461047e5780638cbf74f0146104ba5780638da5cb5b146104e257806394578ac61461050c576101e2565b806352d1902d1161017957806370a082311161014857806370a08231146103d6578063715018a614610412578063765eaa81146104285780637ebb29e01461043e576101e2565b806352d1902d1461033857806357c90de514610362578063604d03151461037e57806360f3309b1461039a576101e2565b80632714f322116101b55780632714f322146102b657806330509bca146102de5780634b393605146102f45780634f1ef2861461031c576101e2565b806312f3a69c146101e657806313bc9f66146102225780631b5436231461023e578063213acfd81461027a575b5f5ffd5b3480156101f1575f5ffd5b5061020c600480360381019061020791906136da565b6107aa565b604051610219919061385e565b60405180910390f35b61023c6004803603810190610237919061387e565b610a4c565b005b348015610249575f5ffd5b50610264600480360381019061025f91906138ce565b610be5565b6040516102719190613908565b60405180910390f35b348015610285575f5ffd5b506102a0600480360381019061029b91906138ce565b610bff565b6040516102ad9190613908565b60405180910390f35b3480156102c1575f5ffd5b506102dc60048036038101906102d791906138ce565b610c14565b005b3480156102e9575f5ffd5b506102f2610cc5565b005b3480156102ff575f5ffd5b5061031a60048036038101906103159190613921565b610dd3565b005b61033660048036038101906103319190613a9b565b610fe3565b005b348015610343575f5ffd5b5061034c611002565b6040516103599190613b0d565b60405180910390f35b61037c60048036038101906103779190613921565b611033565b005b61039860048036038101906103939190613bea565b6110de565b005b3480156103a5575f5ffd5b506103c060048036038101906103bb9190613c44565b61117c565b6040516103cd9190613908565b60405180910390f35b3480156103e1575f5ffd5b506103fc60048036038101906103f79190613c44565b611191565b6040516104099190613908565b60405180910390f35b34801561041d575f5ffd5b506104266111d7565b005b348015610433575f5ffd5b5061043c6111ea565b005b348015610449575f5ffd5b50610464600480360381019061045f9190613921565b61120e565b604051610475959493929190613c8d565b60405180910390f35b348015610489575f5ffd5b506104a4600480360381019061049f91906136da565b611282565b6040516104b19190613dec565b60405180910390f35b3480156104c5575f5ffd5b506104e060048036038101906104db9190613c44565b611521565b005b3480156104ed575f5ffd5b506104f6611581565b6040516105039190613e0c565b60405180910390f35b348015610517575f5ffd5b50610532600480360381019061052d91906138ce565b6115b6565b60405161053f9190613908565b60405180910390f35b348015610553575f5ffd5b5061056e600480360381019061056991906138ce565b6115cb565b60405161057b919061385e565b60405180910390f35b34801561058f575f5ffd5b506105aa60048036038101906105a59190613921565b611743565b6040516105bb959493929190613c8d565b60405180910390f35b3480156105cf575f5ffd5b506105d86117b6565b6040516105e59190613e85565b60405180910390f35b3480156105f9575f5ffd5b506106026117ef565b60405161060f9190613908565b60405180910390f35b348015610623575f5ffd5b5061063e600480360381019061063991906136da565b6117f8565b005b34801561064b575f5ffd5b506106546119ee565b6040516106619190613908565b60405180910390f35b348015610675575f5ffd5b50610690600480360381019061068b9190613c44565b611a12565b005b34801561069d575f5ffd5b506106b860048036038101906106b391906138ce565b611b9b565b6040516106c59190613908565b60405180910390f35b3480156106d9575f5ffd5b506106f460048036038101906106ef91906138ce565b611bb0565b6040516107019190613dec565b60405180910390f35b348015610715575f5ffd5b50610730600480360381019061072b9190613c44565b611d27565b60405161073d9190613ea5565b60405180910390f35b348015610751575f5ffd5b5061076c60048036038101906107679190613c44565b611d44565b005b348015610779575f5ffd5b50610794600480360381019061078f91906138ce565b611dc8565b6040516107a19190613ea5565b60405180910390f35b60605f60035f8581526020019081526020015f205490505f5f90505f5f90505b82811015610862578473ffffffffffffffffffffffffffffffffffffffff1660015f8881526020019081526020015f205f8381526020019081526020015f205f015f9054906101000a900473ffffffffffffffffffffffffffffffffffffffff1673ffffffffffffffffffffffffffffffffffffffff160361085557818061085190613eeb565b9250505b80806001019150506107ca565b505f8167ffffffffffffffff81111561087e5761087d613977565b5b6040519080825280602002602001820160405280156108b757816020015b6108a46135b4565b81526020019060019003908161089c5790505b5090505f91505f5f90505b83811015610a3f578573ffffffffffffffffffffffffffffffffffffffff1660015f8981526020019081526020015f205f8381526020019081526020015f205f015f9054906101000a900473ffffffffffffffffffffffffffffffffffffffff1673ffffffffffffffffffffffffffffffffffffffff1603610a325760015f8881526020019081526020015f205f8281526020019081526020015f206040518060a00160405290815f82015f9054906101000a900473ffffffffffffffffffffffffffffffffffffffff1673ffffffffffffffffffffffffffffffffffffffff1673ffffffffffffffffffffffffffffffffffffffff1681526020015f820160149054906101000a900460ff161515151581526020015f820160159054906101000a900460ff1615151515815260200160018201548152602001600282015481525050828481518110610a1857610a17613f32565b5b60200260200101819052508280610a2e90613eeb565b9350505b80806001019150506108c2565b5080935050505092915050565b825f610e1082610a5c9190613f8c565b14610a9e57806040517f28c370c8000000000000000000000000000000000000000000000000000000008152600401610a959190613908565b60405180910390fd5b825f610e1082610aae9190613f8c565b14610af057806040517f28c370c8000000000000000000000000000000000000000000000000000000008152600401610ae79190613908565b60405180910390fd5b5f8303610b29576040517fb4983d9900000000000000000000000000000000000000000000000000000000815260040160405180910390fd5b83610e1086610b389190613fbc565b1115610b7d5784846040517fc4e218a0000000000000000000000000000000000000000000000000000000008152600401610b74929190613fef565b60405180910390fd5b5f610e108686610b8d9190614016565b85610b989190614049565b610ba2919061408a565b34610bad919061408a565b90505f8690505b85811015610bdc57610bc7818684611de5565b610e1081610bd59190613fbc565b9050610bb4565b50505050505050565b5f60045f8381526020019081526020015f20549050919050565b6003602052805f5260405f205f915090505481565b805f610e1082610c249190613f8c565b14610c6657806040517f28c370c8000000000000000000000000000000000000000000000000000000008152600401610c5d9190613908565b60405180910390fd5b42610e1083610c759190613fbc565b1115610cb857816040517f28c370c8000000000000000000000000000000000000000000000000000000008152600401610caf9190613908565b60405180910390fd5b610cc1826120b9565b5050565b5f60075f3373ffffffffffffffffffffffffffffffffffffffff1673ffffffffffffffffffffffffffffffffffffffff1681526020019081526020015f205490505f8103610d4a57336040517faf9d8c85000000000000000000000000000000000000000000000000000000008152600401610d419190613e0c565b60405180910390fd5b5f60075f3373ffffffffffffffffffffffffffffffffffffffff1673ffffffffffffffffffffffffffffffffffffffff1681526020019081526020015f20819055503373ffffffffffffffffffffffffffffffffffffffff166108fc8290811502906040515f60405180830381858888f19350505050158015610dcf573d5f5f3e3d5ffd5b5050565b5f5f8381526020019081526020015f205f8281526020019081526020015f205f015f9054906101000a900473ffffffffffffffffffffffffffffffffffffffff1673ffffffffffffffffffffffffffffffffffffffff163373ffffffffffffffffffffffffffffffffffffffff1614610e855781336040517f1c47ad61000000000000000000000000000000000000000000000000000000008152600401610e7c9291906140ba565b60405180910390fd5b60065f8381526020019081526020015f205f9054906101000a900460ff1615610ee557816040517f614e185a000000000000000000000000000000000000000000000000000000008152600401610edc9190613908565b60405180910390fd5b5f5f5f8481526020019081526020015f205f8381526020019081526020015f209050805f0160159054906101000a900460ff1615610f5c5782826040517f6b92f7f7000000000000000000000000000000000000000000000000000000008152600401610f53929190613fef565b60405180910390fd5b6001815f0160156101000a81548160ff02191690831515021790555080600201548160010154610f8c9190614049565b60075f3373ffffffffffffffffffffffffffffffffffffffff1673ffffffffffffffffffffffffffffffffffffffff1681526020019081526020015f205f828254610fd79190613fbc565b92505081905550505050565b610feb612643565b610ff482612729565b610ffe8282612734565b5050565b5f61100b612852565b7f360894a13ba1a3210667c828492db98dca3e2076cc3735a920a3ca505d382bbc5f1b905090565b815f610e10826110439190613f8c565b1461108557806040517f28c370c800000000000000000000000000000000000000000000000000000000815260040161107c9190613908565b60405180910390fd5b5f82036110be576040517fb4983d9900000000000000000000000000000000000000000000000000000000815260040160405180910390fd5b5f82346110cb919061408a565b90506110d8848483611de5565b50505050565b5f8103611117576040517fb4983d9900000000000000000000000000000000000000000000000000000000815260040160405180910390fd5b5f825190505f81836111299190614049565b34611134919061408a565b90505f5f90505b828110156111755761116885828151811061115957611158613f32565b5b60200260200101518584611de5565b808060010191505061113b565b5050505050565b6007602052805f5260405f205f915090505481565b5f60075f8373ffffffffffffffffffffffffffffffffffffffff1673ffffffffffffffffffffffffffffffffffffffff1681526020019081526020015f20549050919050565b6111df6128d9565b6111e85f612960565b565b5f610e106111f66119ee565b6112009190614016565b905061120b816120b9565b50565b6001602052815f5260405f20602052805f5260405f205f9150915050805f015f9054906101000a900473ffffffffffffffffffffffffffffffffffffffff1690805f0160149054906101000a900460ff1690805f0160159054906101000a900460ff16908060010154908060020154905085565b60605f60025f8581526020019081526020015f205490505f5f90505f5f90505b82811015611339578473ffffffffffffffffffffffffffffffffffffffff165f5f8881526020019081526020015f205f8381526020019081526020015f205f015f9054906101000a900473ffffffffffffffffffffffffffffffffffffffff1673ffffffffffffffffffffffffffffffffffffffff160361132c57818061132890613eeb565b9250505b80806001019150506112a2565b505f8167ffffffffffffffff81111561135557611354613977565b5b60405190808252806020026020018201604052801561138e57816020015b61137b6135f8565b8152602001906001900390816113735790505b5090505f91505f5f90505b83811015611514578573ffffffffffffffffffffffffffffffffffffffff165f5f8981526020019081526020015f205f8381526020019081526020015f205f015f9054906101000a900473ffffffffffffffffffffffffffffffffffffffff1673ffffffffffffffffffffffffffffffffffffffff1603611507575f5f8881526020019081526020015f205f8281526020019081526020015f206040518060a00160405290815f82015f9054906101000a900473ffffffffffffffffffffffffffffffffffffffff1673ffffffffffffffffffffffffffffffffffffffff1673ffffffffffffffffffffffffffffffffffffffff1681526020015f820160149054906101000a900460ff161515151581526020015f820160159054906101000a900460ff16151515158152602001600182015481526020016002820154815250508284815181106114ed576114ec613f32565b5b6020026020010181905250828061150390613eeb565b9350505b8080600101915050611399565b5080935050505092915050565b6115296128d9565b600160085f8373ffffffffffffffffffffffffffffffffffffffff1673ffffffffffffffffffffffffffffffffffffffff1681526020019081526020015f205f6101000a81548160ff02191690831515021790555050565b5f5f61158b612a31565b9050805f015f9054906101000a900473ffffffffffffffffffffffffffffffffffffffff1691505090565b6002602052805f5260405f205f915090505481565b60605f60035f8481526020019081526020015f205490505f8167ffffffffffffffff8111156115fd576115fc613977565b5b60405190808252806020026020018201604052801561163657816020015b6116236135b4565b81526020019060019003908161161b5790505b5090505f5f90505b828110156117385760015f8681526020019081526020015f205f8281526020019081526020015f206040518060a00160405290815f82015f9054906101000a900473ffffffffffffffffffffffffffffffffffffffff1673ffffffffffffffffffffffffffffffffffffffff1673ffffffffffffffffffffffffffffffffffffffff1681526020015f820160149054906101000a900460ff161515151581526020015f820160159054906101000a900460ff16151515158152602001600182015481526020016002820154815250508282815181106117205761171f613f32565b5b6020026020010181905250808060010191505061163e565b508092505050919050565b5f602052815f5260405f20602052805f5260405f205f9150915050805f015f9054906101000a900473ffffffffffffffffffffffffffffffffffffffff1690805f0160149054906101000a900460ff1690805f0160159054906101000a900460ff16908060010154908060020154905085565b6040518060400160405280600581526020017f352e302e3000000000000000000000000000000000000000000000000000000081525081565b64e8d4a5100081565b5f8203611831576040517fb4983d9900000000000000000000000000000000000000000000000000000000815260040160405180910390fd5b5f61183a6119ee565b90505f60035f8381526020019081526020015f205490506040518060a001604052808473ffffffffffffffffffffffffffffffffffffffff1681526020015f151581526020015f151581526020018581526020015f81525060015f8481526020019081526020015f205f8381526020019081526020015f205f820151815f015f6101000a81548173ffffffffffffffffffffffffffffffffffffffff021916908373ffffffffffffffffffffffffffffffffffffffff1602179055506020820151815f0160146101000a81548160ff0219169083151502179055506040820151815f0160156101000a81548160ff021916908315150217905550606082015181600101556080820151816002015590505060035f8381526020019081526020015f205f81548092919061196c90613eeb565b91905055508360055f8481526020019081526020015f205f8282546119919190613fbc565b925050819055508273ffffffffffffffffffffffffffffffffffffffff167f3d4436d553336892c92b8e854d102f0a3c1b1d60968acc1d262ed8bc6072706c83866040516119e0929190613fef565b60405180910390a250505050565b5f5f429050610e108082611a02919061408a565b611a0c9190614049565b91505090565b5f611a1b612a58565b90505f815f0160089054906101000a900460ff161590505f825f015f9054906101000a900467ffffffffffffffff1690505f5f8267ffffffffffffffff16148015611a635750825b90505f60018367ffffffffffffffff16148015611a9657505f3073ffffffffffffffffffffffffffffffffffffffff163b145b905081158015611aa4575080155b15611adb576040517ff92ee8a900000000000000000000000000000000000000000000000000000000815260040160405180910390fd5b6001855f015f6101000a81548167ffffffffffffffff021916908367ffffffffffffffff1602179055508315611b28576001855f0160086101000a81548160ff0219169083151502179055505b611b3186612a7f565b611b39612a93565b8315611b93575f855f0160086101000a81548160ff0219169083151502179055507fc7f505b2f371ae2175ee4913f4499e1f2633a7b5936321eed1cdaeb6115181d26001604051611b8a9190614136565b60405180910390a15b505050505050565b6004602052805f5260405f205f915090505481565b60605f60025f8481526020019081526020015f205490505f8167ffffffffffffffff811115611be257611be1613977565b5b604051908082528060200260200182016040528015611c1b57816020015b611c086135f8565b815260200190600190039081611c005790505b5090505f5f90505b82811015611d1c575f5f8681526020019081526020015f205f8281526020019081526020015f206040518060a00160405290815f82015f9054906101000a900473ffffffffffffffffffffffffffffffffffffffff1673ffffffffffffffffffffffffffffffffffffffff1673ffffffffffffffffffffffffffffffffffffffff1681526020015f820160149054906101000a900460ff161515151581526020015f820160159054906101000a900460ff1615151515815260200160018201548152602001600282015481525050828281518110611d0457611d03613f32565b5b60200260200101819052508080600101915050611c23565b508092505050919050565b6008602052805f5260405f205f915054906101000a900460ff1681565b611d4c6128d9565b5f73ffffffffffffffffffffffffffffffffffffffff168173ffffffffffffffffffffffffffffffffffffffff1603611dbc575f6040517f1e4fbdf7000000000000000000000000000000000000000000000000000000008152600401611db39190613e0c565b60405180910390fd5b611dc581612960565b50565b6006602052805f5260405f205f915054906101000a900460ff1681565b825f610e1082611df59190613f8c565b14611e3757806040517f28c370c8000000000000000000000000000000000000000000000000000000008152600401611e2e9190613908565b60405180910390fd5b428411611e7b57836040517f28c370c8000000000000000000000000000000000000000000000000000000008152600401611e729190613908565b60405180910390fd5b64e8d4a51000821015611ecc578164e8d4a510006040517f0805fc48000000000000000000000000000000000000000000000000000000008152600401611ec3929190613fef565b60405180910390fd5b60065f8581526020019081526020015f205f9054906101000a900460ff1615611f2c57836040517f614e185a000000000000000000000000000000000000000000000000000000008152600401611f239190613908565b60405180910390fd5b5f60025f8681526020019081526020015f205490506040518060a001604052803373ffffffffffffffffffffffffffffffffffffffff1681526020015f151581526020015f15158152602001858152602001848152505f5f8781526020019081526020015f205f8381526020019081526020015f205f820151815f015f6101000a81548173ffffffffffffffffffffffffffffffffffffffff021916908373ffffffffffffffffffffffffffffffffffffffff1602179055506020820151815f0160146101000a81548160ff0219169083151502179055506040820151815f0160156101000a81548160ff021916908315150217905550606082015181600101556080820151816002015590505060025f8681526020019081526020015f205f81548092919061205b90613eeb565b91905055503373ffffffffffffffffffffffffffffffffffffffff167fb46d776cdb48d081a0c7d3ff32dc2792e4e8fbce788723207515723628020d328686866040516120aa9392919061414f565b60405180910390a25050505050565b5f60025f8381526020019081526020015f20540361210e57806040517f6f95ed380000000000000000000000000000000000000000000000000000000081526004016121059190613908565b60405180910390fd5b60065f8281526020019081526020015f205f9054906101000a900460ff161561216e57806040517f614e185a0000000000000000000000000000000000000000000000000000000081526004016121659190613908565b60405180910390fd5b61217781612a9d565b5f60025f8381526020019081526020015f205490505f60035f8481526020019081526020015f205490505f6121ab8461309e565b90508060045f8681526020019081526020015f20819055505f5f90505f5f90505b848110156125d9575f5f5f8881526020019081526020015f205f8381526020019081526020015f209050838160020154108061220757505f84145b1561230f575f8290505b86811015612308575f5f8981526020019081526020015f205f8281526020019081526020015f20600201545f5f8a81526020019081526020015f205f8381526020019081526020015f20600101546122699190614049565b60075f5f5f8c81526020019081526020015f205f8581526020019081526020015f205f015f9054906101000a900473ffffffffffffffffffffffffffffffffffffffff1673ffffffffffffffffffffffffffffffffffffffff1673ffffffffffffffffffffffffffffffffffffffff1681526020019081526020015f205f8282546122f49190613fbc565b925050819055508080600101915050612211565b50506125d9565b5f5f90505f8490505b8681101561251a575f60015f8b81526020019081526020015f205f8381526020019081526020015f2090505f816002015482600101546123589190614016565b90508460010154818561236b9190613fbc565b1161244c576001825f0160146101000a81548160ff0219169083151502179055508160010154826002018190555080846123a59190613fbc565b935087816123b39190614049565b60075f845f015f9054906101000a900473ffffffffffffffffffffffffffffffffffffffff1673ffffffffffffffffffffffffffffffffffffffff1673ffffffffffffffffffffffffffffffffffffffff1681526020019081526020015f205f8282546124209190613fbc565b92505081905550868061243290613eeb565b9750508460010154840361244757505061251a565b61250b565b83856001015461245c9190614016565b826002015f82825461246e9190613fbc565b92505081905550878486600101546124869190614016565b6124909190614049565b60075f845f015f9054906101000a900473ffffffffffffffffffffffffffffffffffffffff1673ffffffffffffffffffffffffffffffffffffffff1673ffffffffffffffffffffffffffffffffffffffff1681526020019081526020015f205f8282546124fd9190613fbc565b92505081905550505061251a565b50508080600101915050612318565b506001825f0160146101000a81548160ff0219169083151502179055508482600201546125479190614016565b82600101546125569190614049565b60075f845f015f9054906101000a900473ffffffffffffffffffffffffffffffffffffffff1673ffffffffffffffffffffffffffffffffffffffff1673ffffffffffffffffffffffffffffffffffffffff1681526020019081526020015f205f8282546125c39190613fbc565b92505081905550505080806001019150506121cc565b50600160065f8781526020019081526020015f205f6101000a81548160ff0219169083151502179055507f515dc8352afddcfc4899a638cc6fcb94e434e2c1e703a124ebee89b6c454146e8583604051612634929190613fef565b60405180910390a15050505050565b7f000000000000000000000000000000000000000000000000000000000000000073ffffffffffffffffffffffffffffffffffffffff163073ffffffffffffffffffffffffffffffffffffffff1614806126f057507f000000000000000000000000000000000000000000000000000000000000000073ffffffffffffffffffffffffffffffffffffffff166126d76131a7565b73ffffffffffffffffffffffffffffffffffffffff1614155b15612727576040517fe07c8dba00000000000000000000000000000000000000000000000000000000815260040160405180910390fd5b565b6127316128d9565b50565b8173ffffffffffffffffffffffffffffffffffffffff166352d1902d6040518163ffffffff1660e01b8152600401602060405180830381865afa92505050801561279c57506040513d601f19601f8201168201806040525081019061279991906141ae565b60015b6127dd57816040517f4c9c8ce30000000000000000000000000000000000000000000000000000000081526004016127d49190613e0c565b60405180910390fd5b7f360894a13ba1a3210667c828492db98dca3e2076cc3735a920a3ca505d382bbc5f1b811461284357806040517faa1d49a400000000000000000000000000000000000000000000000000000000815260040161283a9190613b0d565b60405180910390fd5b61284d83836131fa565b505050565b7f000000000000000000000000000000000000000000000000000000000000000073ffffffffffffffffffffffffffffffffffffffff163073ffffffffffffffffffffffffffffffffffffffff16146128d7576040517fe07c8dba00000000000000000000000000000000000000000000000000000000815260040160405180910390fd5b565b6128e161326c565b73ffffffffffffffffffffffffffffffffffffffff166128ff611581565b73ffffffffffffffffffffffffffffffffffffffff161461295e5761292261326c565b6040517f118cdaa70000000000000000000000000000000000000000000000000000000081526004016129559190613e0c565b60405180910390fd5b565b5f612969612a31565b90505f815f015f9054906101000a900473ffffffffffffffffffffffffffffffffffffffff16905082825f015f6101000a81548173ffffffffffffffffffffffffffffffffffffffff021916908373ffffffffffffffffffffffffffffffffffffffff1602179055508273ffffffffffffffffffffffffffffffffffffffff168173ffffffffffffffffffffffffffffffffffffffff167f8be0079c531659141344cd1fd0a4f28419497f9722a3daafe3b4186f6b6457e060405160405180910390a3505050565b5f7f9016d09d72d40fdae2fd8ceac6b6234c7706214fd39c1cd1e609a0528c199300905090565b5f7ff0c57e16840df040f15088dc2f81fe391c3923bec73e23a9662efc9c229c6a00905090565b612a87613273565b612a90816132b3565b50565b612a9b613273565b565b5f60025f8381526020019081526020015f205490505f8167ffffffffffffffff811115612acd57612acc613977565b5b604051908082528060200260200182016040528015612afb5781602001602082028036833780820191505090505b5090505f5f90505b82811015612b385780828281518110612b1f57612b1e613f32565b5b6020026020010181815250508080600101915050612b03565b505f600190505b8151811015612d1c575f828281518110612b5c57612b5b613f32565b5b602002602001015190505f5f5f8781526020019081526020015f205f8381526020019081526020015f206040518060a00160405290815f82015f9054906101000a900473ffffffffffffffffffffffffffffffffffffffff1673ffffffffffffffffffffffffffffffffffffffff1673ffffffffffffffffffffffffffffffffffffffff1681526020015f820160149054906101000a900460ff161515151581526020015f820160159054906101000a900460ff161515151581526020016001820154815260200160028201548152505090505f8390505b5f81118015612c8e575081608001515f5f8981526020019081526020015f205f87600185612c629190614016565b81518110612c7357612c72613f32565b5b602002602001015181526020019081526020015f2060020154105b15612cec5784600182612ca19190614016565b81518110612cb257612cb1613f32565b5b6020026020010151858281518110612ccd57612ccc613f32565b5b6020026020010181815250508080612ce4906141d9565b915050612c34565b82858281518110612d0057612cff613f32565b5b6020026020010181815250505050508080600101915050612b3f565b505f5f90505b81518110156130985780828281518110612d3f57612d3e613f32565b5b60200260200101511461308b575f5f5f8681526020019081526020015f205f8381526020019081526020015f206040518060a00160405290815f82015f9054906101000a900473ffffffffffffffffffffffffffffffffffffffff1673ffffffffffffffffffffffffffffffffffffffff1673ffffffffffffffffffffffffffffffffffffffff1681526020015f820160149054906101000a900460ff161515151581526020015f820160159054906101000a900460ff161515151581526020016001820154815260200160028201548152505090505f5f8681526020019081526020015f205f848481518110612e3957612e38613f32565b5b602002602001015181526020019081526020015f205f5f8781526020019081526020015f205f8481526020019081526020015f205f82015f9054906101000a900473ffffffffffffffffffffffffffffffffffffffff16815f015f6101000a81548173ffffffffffffffffffffffffffffffffffffffff021916908373ffffffffffffffffffffffffffffffffffffffff1602179055505f820160149054906101000a900460ff16815f0160146101000a81548160ff0219169083151502179055505f820160159054906101000a900460ff16815f0160156101000a81548160ff0219169083151502179055506001820154816001015560028201548160020155905050805f5f8781526020019081526020015f205f858581518110612f6257612f61613f32565b5b602002602001015181526020019081526020015f205f820151815f015f6101000a81548173ffffffffffffffffffffffffffffffffffffffff021916908373ffffffffffffffffffffffffffffffffffffffff1602179055506020820151815f0160146101000a81548160ff0219169083151502179055506040820151815f0160156101000a81548160ff02191690831515021790555060608201518160010155608082015181600201559050505f83838151811061302457613023613f32565b5b6020026020010151905083818151811061304157613040613f32565b5b602002602001015184848151811061305c5761305b613f32565b5b6020026020010181815250508084828151811061307c5761307b613f32565b5b60200260200101818152505050505b8080600101915050612d22565b50505050565b5f5f60025f8481526020019081526020015f205490505f5f90505f60055f8681526020019081526020015f205490505f5f90505b8381101561316c575f5f8781526020019081526020015f205f8281526020019081526020015f2060010154836131089190613fbc565b92508183111561315f575f8103613125575f9450505050506131a2565b5f5f8781526020019081526020015f205f6001836131439190614016565b81526020019081526020015f20600201549450505050506131a2565b80806001019150506130d2565b505f5f8681526020019081526020015f205f60018561318b9190614016565b81526020019081526020015f206002015493505050505b919050565b5f6131d37f360894a13ba1a3210667c828492db98dca3e2076cc3735a920a3ca505d382bbc5f1b613337565b5f015f9054906101000a900473ffffffffffffffffffffffffffffffffffffffff16905090565b61320382613340565b8173ffffffffffffffffffffffffffffffffffffffff167fbc7cd75a20ee27fd9adebab32041f755214dbc6bffa90cc0225b39da2e5c2d3b60405160405180910390a25f8151111561325f576132598282613409565b50613268565b613267613489565b5b5050565b5f33905090565b61327b6134c5565b6132b1576040517fd7e6bcf800000000000000000000000000000000000000000000000000000000815260040160405180910390fd5b565b6132bb613273565b5f73ffffffffffffffffffffffffffffffffffffffff168173ffffffffffffffffffffffffffffffffffffffff160361332b575f6040517f1e4fbdf70000000000000000000000000000000000000000000000000000000081526004016133229190613e0c565b60405180910390fd5b61333481612960565b50565b5f819050919050565b5f8173ffffffffffffffffffffffffffffffffffffffff163b0361339b57806040517f4c9c8ce30000000000000000000000000000000000000000000000000000000081526004016133929190613e0c565b60405180910390fd5b806133c77f360894a13ba1a3210667c828492db98dca3e2076cc3735a920a3ca505d382bbc5f1b613337565b5f015f6101000a81548173ffffffffffffffffffffffffffffffffffffffff021916908373ffffffffffffffffffffffffffffffffffffffff16021790555050565b60605f5f8473ffffffffffffffffffffffffffffffffffffffff16846040516134329190614244565b5f60405180830381855af49150503d805f811461346a576040519150601f19603f3d011682016040523d82523d5f602084013e61346f565b606091505b509150915061347f8583836134e3565b9250505092915050565b5f3411156134c3576040517fb398979f00000000000000000000000000000000000000000000000000000000815260040160405180910390fd5b565b5f6134ce612a58565b5f0160089054906101000a900460ff16905090565b6060826134f8576134f382613570565b613568565b5f825114801561351e57505f8473ffffffffffffffffffffffffffffffffffffffff163b145b1561356057836040517f9996b3150000000000000000000000000000000000000000000000000000000081526004016135579190613e0c565b60405180910390fd5b819050613569565b5b9392505050565b5f815111156135825780518082602001fd5b6040517fd6bda27500000000000000000000000000000000000000000000000000000000815260040160405180910390fd5b6040518060a001604052805f73ffffffffffffffffffffffffffffffffffffffff1681526020015f151581526020015f151581526020015f81526020015f81525090565b6040518060a001604052805f73ffffffffffffffffffffffffffffffffffffffff1681526020015f151581526020015f151581526020015f81526020015f81525090565b5f604051905090565b5f5ffd5b5f5ffd5b5f819050919050565b61365f8161364d565b8114613669575f5ffd5b50565b5f8135905061367a81613656565b92915050565b5f73ffffffffffffffffffffffffffffffffffffffff82169050919050565b5f6136a982613680565b9050919050565b6136b98161369f565b81146136c3575f5ffd5b50565b5f813590506136d4816136b0565b92915050565b5f5f604083850312156136f0576136ef613645565b5b5f6136fd8582860161366c565b925050602061370e858286016136c6565b9150509250929050565b5f81519050919050565b5f82825260208201905092915050565b5f819050602082019050919050565b61374a8161369f565b82525050565b5f8115159050919050565b61376481613750565b82525050565b6137738161364d565b82525050565b60a082015f82015161378d5f850182613741565b5060208201516137a0602085018261375b565b5060408201516137b3604085018261375b565b5060608201516137c6606085018261376a565b5060808201516137d9608085018261376a565b50505050565b5f6137ea8383613779565b60a08301905092915050565b5f602082019050919050565b5f61380c82613718565b6138168185613722565b935061382183613732565b805f5b8381101561385157815161383888826137df565b9750613843836137f6565b925050600181019050613824565b5085935050505092915050565b5f6020820190508181035f8301526138768184613802565b905092915050565b5f5f5f6060848603121561389557613894613645565b5b5f6138a28682870161366c565b93505060206138b38682870161366c565b92505060406138c48682870161366c565b9150509250925092565b5f602082840312156138e3576138e2613645565b5b5f6138f08482850161366c565b91505092915050565b6139028161364d565b82525050565b5f60208201905061391b5f8301846138f9565b92915050565b5f5f6040838503121561393757613936613645565b5b5f6139448582860161366c565b92505060206139558582860161366c565b9150509250929050565b5f5ffd5b5f5ffd5b5f601f19601f8301169050919050565b7f4e487b71000000000000000000000000000000000000000000000000000000005f52604160045260245ffd5b6139ad82613967565b810181811067ffffffffffffffff821117156139cc576139cb613977565b5b80604052505050565b5f6139de61363c565b90506139ea82826139a4565b919050565b5f67ffffffffffffffff821115613a0957613a08613977565b5b613a1282613967565b9050602081019050919050565b828183375f83830152505050565b5f613a3f613a3a846139ef565b6139d5565b905082815260208101848484011115613a5b57613a5a613963565b5b613a66848285613a1f565b509392505050565b5f82601f830112613a8257613a8161395f565b5b8135613a92848260208601613a2d565b91505092915050565b5f5f60408385031215613ab157613ab0613645565b5b5f613abe858286016136c6565b925050602083013567ffffffffffffffff811115613adf57613ade613649565b5b613aeb85828601613a6e565b9150509250929050565b5f819050919050565b613b0781613af5565b82525050565b5f602082019050613b205f830184613afe565b92915050565b5f67ffffffffffffffff821115613b4057613b3f613977565b5b602082029050602081019050919050565b5f5ffd5b5f613b67613b6284613b26565b6139d5565b90508083825260208201905060208402830185811115613b8a57613b89613b51565b5b835b81811015613bb35780613b9f888261366c565b845260208401935050602081019050613b8c565b5050509392505050565b5f82601f830112613bd157613bd061395f565b5b8135613be1848260208601613b55565b91505092915050565b5f5f60408385031215613c0057613bff613645565b5b5f83013567ffffffffffffffff811115613c1d57613c1c613649565b5b613c2985828601613bbd565b9250506020613c3a8582860161366c565b9150509250929050565b5f60208284031215613c5957613c58613645565b5b5f613c66848285016136c6565b91505092915050565b613c788161369f565b82525050565b613c8781613750565b82525050565b5f60a082019050613ca05f830188613c6f565b613cad6020830187613c7e565b613cba6040830186613c7e565b613cc760608301856138f9565b613cd460808301846138f9565b9695505050505050565b5f81519050919050565b5f82825260208201905092915050565b5f819050602082019050919050565b60a082015f820151613d1b5f850182613741565b506020820151613d2e602085018261375b565b506040820151613d41604085018261375b565b506060820151613d54606085018261376a565b506080820151613d67608085018261376a565b50505050565b5f613d788383613d07565b60a08301905092915050565b5f602082019050919050565b5f613d9a82613cde565b613da48185613ce8565b9350613daf83613cf8565b805f5b83811015613ddf578151613dc68882613d6d565b9750613dd183613d84565b925050600181019050613db2565b5085935050505092915050565b5f6020820190508181035f830152613e048184613d90565b905092915050565b5f602082019050613e1f5f830184613c6f565b92915050565b5f81519050919050565b5f82825260208201905092915050565b8281835e5f83830152505050565b5f613e5782613e25565b613e618185613e2f565b9350613e71818560208601613e3f565b613e7a81613967565b840191505092915050565b5f6020820190508181035f830152613e9d8184613e4d565b905092915050565b5f602082019050613eb85f830184613c7e565b92915050565b7f4e487b71000000000000000000000000000000000000000000000000000000005f52601160045260245ffd5b5f613ef58261364d565b91507fffffffffffffffffffffffffffffffffffffffffffffffffffffffffffffffff8203613f2757613f26613ebe565b5b600182019050919050565b7f4e487b71000000000000000000000000000000000000000000000000000000005f52603260045260245ffd5b7f4e487b71000000000000000000000000000000000000000000000000000000005f52601260045260245ffd5b5f613f968261364d565b9150613fa18361364d565b925082613fb157613fb0613f5f565b5b828206905092915050565b5f613fc68261364d565b9150613fd18361364d565b9250828201905080821115613fe957613fe8613ebe565b5b92915050565b5f6040820190506140025f8301856138f9565b61400f60208301846138f9565b9392505050565b5f6140208261364d565b915061402b8361364d565b925082820390508181111561404357614042613ebe565b5b92915050565b5f6140538261364d565b915061405e8361364d565b925082820261406c8161364d565b9150828204841483151761408357614082613ebe565b5b5092915050565b5f6140948261364d565b915061409f8361364d565b9250826140af576140ae613f5f565b5b828204905092915050565b5f6040820190506140cd5f8301856138f9565b6140da6020830184613c6f565b9392505050565b5f819050919050565b5f67ffffffffffffffff82169050919050565b5f819050919050565b5f61412061411b614116846140e1565b6140fd565b6140ea565b9050919050565b61413081614106565b82525050565b5f6020820190506141495f830184614127565b92915050565b5f6060820190506141625f8301866138f9565b61416f60208301856138f9565b61417c60408301846138f9565b949350505050565b61418d81613af5565b8114614197575f5ffd5b50565b5f815190506141a881614184565b92915050565b5f602082840312156141c3576141c2613645565b5b5f6141d08482850161419a565b91505092915050565b5f6141e38261364d565b91505f82036141f5576141f4613ebe565b5b600182039050919050565b5f81519050919050565b5f81905092915050565b5f61421e82614200565b614228818561420a565b9350614238818560208601613e3f565b80840191505092915050565b5f61424f8284614214565b91508190509291505056fea264697066735822122067749b74fa48eb0253ac07bfeb91934b2e2e579404177790ac7b2ea1b1bfcfef64736f6c634300081b0033","linkReferences":{}},"methodIdentifiers":{"MIN_PRICE()":"ad9f20a6","UPGRADE_INTERFACE_VERSION()":"ad3cb1cc","asksByHour(uint256,uint256)":"7ebb29e0","balanceOf(address)":"70a08231","bidsByHour(uint256,uint256)":"a5f74cba","cancelBid(uint256,uint256)":"4b393605","claimBalance()":"30509bca","claimableBalance(address)":"60f3309b","clearMarket(uint256)":"2714f322","clearMarketPastHour()":"765eaa81","clearingPricePerHour(uint256)":"cc253ed2","getAsksByAddress(uint256,address)":"12f3a69c","getAsksByHour(uint256)":"97e33ea4","getBidsByAddress(uint256,address)":"8672cf58","getBidsByHour(uint256)":"d94c32af","getClearingPrice(uint256)":"1b543623","getCurrentHourTimestamp()":"c3e5d6ea","initialize(address)":"c4d66de8","isMarketCleared(uint256)":"fe4d7324","owner()":"8da5cb5b","placeAsk(uint256,address)":"bd4b514c","placeBid(uint256,uint256)":"57c90de5","placeMultipleBids(uint256,uint256,uint256)":"13bc9f66","placeMultipleBids(uint256[],uint256)":"604d0315","proxiableUUID()":"52d1902d","renounceOwnership()":"715018a6","s_whitelistedSellers(address)":"ed4505f7","totalAsksByHour(uint256)":"213acfd8","totalBidsByHour(uint256)":"94578ac6","transferOwnership(address)":"f2fde38b","upgradeToAndCall(address,bytes)":"4f1ef286","whitelistSeller(address)":"8cbf74f0"},"storageLayout":{"storage":[{"astId":53580,"contract":"src/EnergyBiddingMarket.sol:EnergyBiddingMarket","label":"bidsByHour","offset":0,"slot":"0","type":"t_mapping(t_uint256,t_mapping(t_uint256,t_struct(Bid)53559_storage))"},{"astId":53587,"contract":"src/EnergyBiddingMarket.sol:EnergyBiddingMarket","label":"asksByHour","offset":0,"slot":"1","type":"t_mapping(t_uint256,t_mapping(t_uint256,t_struct(Ask)53570_storage))"},{"astId":53591,"contract":"src/EnergyBiddingMarket.sol:EnergyBiddingMarket","label":"totalBidsByHour","offset":0,"slot":"2","type":"t_mapping(t_uint256,t_uint256)"},{"astId":53595,"contract":"src/EnergyBiddingMarket.sol:EnergyBiddingMarket","label":"totalAsksByHour","offset":0,"slot":"3","type":"t_mapping(t_uint256,t_uint256)"},{"astId":53599,"contract":"src/EnergyBiddingMarket.sol:EnergyBiddingMarket","label":"clearingPricePerHour","offset":0,"slot":"4","type":"t_mapping(t_uint256,t_uint256)"},{"astId":53603,"contract":"src/EnergyBiddingMarket.sol:EnergyBiddingMarket","label":"totalAvailableEnergyByHour","offset":0,"slot":"5","type":"t_mapping(t_uint256,t_uint256)"},{"astId":53607,"contract":"src/EnergyBiddingMarket.sol:EnergyBiddingMarket","label":"isMarketCleared","offset":0,"slot":"6","type":"t_mapping(t_uint256,t_bool)"},{"astId":53611,"contract":"src/EnergyBiddingMarket.sol:EnergyBiddingMarket","label":"claimableBalance","offset":0,"slot":"7","type":"t_mapping(t_address,t_uint256)"},{"astId":53615,"contract":"src/EnergyBiddingMarket.sol:EnergyBiddingMarket","label":"s_whitelistedSellers","offset":0,"slot":"8","type":"t_mapping(t_address,t_bool)"}],"types":{"t_address":{"encoding":"inplace","label":"address","numberOfBytes":"20"},"t_bool":{"encoding":"inplace","label":"bool","numberOfBytes":"1"},"t_mapping(t_address,t_bool)":{"encoding":"mapping","key":"t_address","label":"mapping(address => bool)","numberOfBytes":"32","value":"t_bool"},"t_mapping(t_address,t_uint256)":{"encoding":"mapping","key":"t_address","label":"mapping(address => uint256)","numberOfBytes":"32","value":"t_uint256"},"t_mapping(t_uint256,t_bool)":{"encoding":"mapping","key":"t_uint256","label":"mapping(uint256 => bool)","numberOfBytes":"32","value":"t_bool"},"t_mapping(t_uint256,t_mapping(t_uint256,t_struct(Ask)53570_storage))":{"encoding":"mapping","key":"t_uint256","label":"mapping(uint256 => mapping(uint256 => struct EnergyBiddingMarket.Ask))","numberOfBytes":"32","value":"t_mapping(t_uint256,t_struct(Ask)53570_storage)"},"t_mapping(t_uint256,t_mapping(t_uint256,t_struct(Bid)53559_storage))":{"encoding":"mapping","key":"t_uint256","label":"mapping(uint256 => mapping(uint256 => struct EnergyBiddingMarket.Bid))","numberOfBytes":"32","value":"t_mapping(t_uint256,t_struct(Bid)53559_storage)"},"t_mapping(t_uint256,t_struct(Ask)53570_storage)":{"encoding":"mapping","key":"t_uint256","label":"mapping(uint256 => struct EnergyBiddingMarket.Ask)","numberOfBytes":"32","value":"t_struct(Ask)53570_storage"},"t_mapping(t_uint256,t_struct(Bid)53559_storage)":{"encoding":"mapping","key":"t_uint256","label":"mapping(uint256 => struct EnergyBiddingMarket.Bid)","numberOfBytes":"32","value":"t_struct(Bid)53559_storage"},"t_mapping(t_uint256,t_uint256)":{"encoding":"mapping","key":"t_uint256","label":"mapping(uint256 => uint256)","numberOfBytes":"32","value":"t_uint256"},"t_struct(Ask)53570_storage":{"encoding":"inplace","label":"struct EnergyBiddingMarket.Ask","numberOfBytes":"96","members":[{"astId":53561,"contract":"src/EnergyBiddingMarket.sol:EnergyBiddingMarket","label":"seller","offset":0,"slot":"0","type":"t_address"},{"astId":53563,"contract":"src/EnergyBiddingMarket.sol:EnergyBiddingMarket","label":"settled","offset":20,"slot":"0","type":"t_bool"},{"astId":53565,"contract":"src/EnergyBiddingMarket.sol:EnergyBiddingMarket","label":"canceled","offset":21,"slot":"0","type":"t_bool"},{"astId":53567,"contract":"src/EnergyBiddingMarket.sol:EnergyBiddingMarket","label":"amount","offset":0,"slot":"1","type":"t_uint256"},{"astId":53569,"contract":"src/EnergyBiddingMarket.sol:EnergyBiddingMarket","label":"matchedAmount","offset":0,"slot":"2","type":"t_uint256"}]},"t_struct(Bid)53559_storage":{"encoding":"inplace","label":"struct EnergyBiddingMarket.Bid","numberOfBytes":"96","members":[{"astId":53550,"contract":"src/EnergyBiddingMarket.sol:EnergyBiddingMarket","label":"bidder","offset":0,"slot":"0","type":"t_address"},{"astId":53552,"contract":"src/EnergyBiddingMarket.sol:EnergyBiddingMarket","label":"settled","offset":20,"slot":"0","type":"t_bool"},{"astId":53554,"contract":"src/EnergyBiddingMarket.sol:EnergyBiddingMarket","label":"canceled","offset":21,"slot":"0","type":"t_bool"},{"astId":53556,"contract":"src/EnergyBiddingMarket.sol:EnergyBiddingMarket","label":"amount","offset":0,"slot":"1","type":"t_uint256"},{"astId":53558,"contract":"src/EnergyBiddingMarket.sol:EnergyBiddingMarket","label":"price","offset":0,"slot":"2","type":"t_uint256"}]},"t_uint256":{"encoding":"inplace","label":"uint256","numberOfBytes":"32"}}},"id":60}