{"abi":[{"type":"constructor","inputs":[{"name":"_eurcTokenAddress","type":"address","internalType":"address"}],"stateMutability":"nonpayable"},{"type":"function","name":"EURC","inputs":[],"outputs":[{"name":"","type":"address","internalType":"contract IERC20"}],"stateMutability":"view"},{"type":"function","name":"MIN_PRICE","inputs":[],"outputs":[{"name":"","type":"uint256","internalType":"uint256"}],"stateMutability":"view"},{"type":"function","name":"PRICE_DECIMALS","inputs":[],"outputs":[{"name":"","type":"uint8","internalType":"uint8"}],"stateMutability":"view"},{"type":"function","name":"asksByHour","inputs":[{"name":"","type":"uint256","internalType":"uint256"},{"name":"","type":"uint256","internalType":"uint256"}],"outputs":[{"name":"seller","type":"address","internalType":"address"},{"name":"amount","type":"uint256","internalType":"uint256"},{"name":"matchedAmount","type":"uint256","internalType":"uint256"},{"name":"settled","type":"bool","internalType":"bool"}],"stateMutability":"view"},{"type":"function","name":"balanceOf","inputs":[{"name":"user","type":"address","internalType":"address"}],"outputs":[{"name":"","type":"uint256","internalType":"uint256"}],"stateMutability":"view"},{"type":"function","name":"bidsByHour","inputs":[{"name":"","type":"uint256","internalType":"uint256"},{"name":"","type":"uint256","internalType":"uint256"}],"outputs":[{"name":"bidder","type":"address","internalType":"address"},{"name":"amount","type":"uint256","internalType":"uint256"},{"name":"price","type":"uint256","internalType":"uint256"},{"name":"settled","type":"bool","internalType":"bool"}],"stateMutability":"view"},{"type":"function","name":"claimBalance","inputs":[],"outputs":[],"stateMutability":"nonpayable"},{"type":"function","name":"claimableBalance","inputs":[{"name":"","type":"address","internalType":"address"}],"outputs":[{"name":"","type":"uint256","internalType":"uint256"}],"stateMutability":"view"},{"type":"function","name":"clearMarket","inputs":[{"name":"hour","type":"uint256","internalType":"uint256"}],"outputs":[],"stateMutability":"nonpayable"},{"type":"function","name":"getAsksByAddress","inputs":[{"name":"hour","type":"uint256","internalType":"uint256"},{"name":"user","type":"address","internalType":"address"}],"outputs":[{"name":"","type":"tuple[]","internalType":"struct EnergyBiddingMarket.Ask[]","components":[{"name":"seller","type":"address","internalType":"address"},{"name":"amount","type":"uint256","internalType":"uint256"},{"name":"matchedAmount","type":"uint256","internalType":"uint256"},{"name":"settled","type":"bool","internalType":"bool"}]}],"stateMutability":"view"},{"type":"function","name":"getAsksByHour","inputs":[{"name":"hour","type":"uint256","internalType":"uint256"}],"outputs":[{"name":"","type":"tuple[]","internalType":"struct EnergyBiddingMarket.Ask[]","components":[{"name":"seller","type":"address","internalType":"address"},{"name":"amount","type":"uint256","internalType":"uint256"},{"name":"matchedAmount","type":"uint256","internalType":"uint256"},{"name":"settled","type":"bool","internalType":"bool"}]}],"stateMutability":"view"},{"type":"function","name":"getBidsByAddress","inputs":[{"name":"hour","type":"uint256","internalType":"uint256"},{"name":"user","type":"address","internalType":"address"}],"outputs":[{"name":"","type":"tuple[]","internalType":"struct EnergyBiddingMarket.Bid[]","components":[{"name":"bidder","type":"address","internalType":"address"},{"name":"amount","type":"uint256","internalType":"uint256"},{"name":"price","type":"uint256","internalType":"uint256"},{"name":"settled","type":"bool","internalType":"bool"}]}],"stateMutability":"view"},{"type":"function","name":"getBidsByHour","inputs":[{"name":"hour","type":"uint256","internalType":"uint256"}],"outputs":[{"name":"","type":"tuple[]","internalType":"struct EnergyBiddingMarket.Bid[]","components":[{"name":"bidder","type":"address","internalType":"address"},{"name":"amount","type":"uint256","internalType":"uint256"},{"name":"price","type":"uint256","internalType":"uint256"},{"name":"settled","type":"bool","internalType":"bool"}]}],"stateMutability":"view"},{"type":"function","name":"isMarketCleared","inputs":[{"name":"","type":"uint256","internalType":"uint256"}],"outputs":[{"name":"","type":"bool","internalType":"bool"}],"stateMutability":"view"},{"type":"function","name":"placeAsk","inputs":[{"name":"hour","type":"uint256","internalType":"uint256"},{"name":"amount","type":"uint256","internalType":"uint256"}],"outputs":[],"stateMutability":"nonpayable"},{"type":"function","name":"placeBid","inputs":[{"name":"hour","type":"uint256","internalType":"uint256"},{"name":"amount","type":"uint256","internalType":"uint256"},{"name":"price","type":"uint256","internalType":"uint256"}],"outputs":[],"stateMutability":"nonpayable"},{"type":"function","name":"placeMultipleBids","inputs":[{"name":"beginHour","type":"uint256","internalType":"uint256"},{"name":"endHour","type":"uint256","internalType":"uint256"},{"name":"amount","type":"uint256","internalType":"uint256"},{"name":"price","type":"uint256","internalType":"uint256"}],"outputs":[],"stateMutability":"nonpayable"},{"type":"event","name":"AskFulfilled","inputs":[{"name":"hour","type":"uint256","indexed":true,"internalType":"uint256"},{"name":"seller","type":"address","indexed":true,"internalType":"address"},{"name":"id","type":"uint256","indexed":true,"internalType":"uint256"},{"name":"amount","type":"uint256","indexed":false,"internalType":"uint256"},{"name":"price","type":"uint256","indexed":false,"internalType":"uint256"}],"anonymous":false},{"type":"event","name":"AskPartiallyFulfilled","inputs":[{"name":"hour","type":"uint256","indexed":true,"internalType":"uint256"},{"name":"seller","type":"address","indexed":true,"internalType":"address"},{"name":"id","type":"uint256","indexed":true,"internalType":"uint256"},{"name":"amount","type":"uint256","indexed":false,"internalType":"uint256"},{"name":"price","type":"uint256","indexed":false,"internalType":"uint256"}],"anonymous":false},{"type":"event","name":"AskPlaced","inputs":[{"name":"seller","type":"address","indexed":true,"internalType":"address"},{"name":"hour","type":"uint256","indexed":false,"internalType":"uint256"},{"name":"amount","type":"uint256","indexed":false,"internalType":"uint256"}],"anonymous":false},{"type":"event","name":"BidFulfilled","inputs":[{"name":"hour","type":"uint256","indexed":true,"internalType":"uint256"},{"name":"id","type":"uint256","indexed":true,"internalType":"uint256"},{"name":"bidder","type":"address","indexed":true,"internalType":"address"},{"name":"amount","type":"uint256","indexed":false,"internalType":"uint256"},{"name":"price","type":"uint256","indexed":false,"internalType":"uint256"}],"anonymous":false},{"type":"event","name":"BidPlaced","inputs":[{"name":"bidder","type":"address","indexed":true,"internalType":"address"},{"name":"hour","type":"uint256","indexed":false,"internalType":"uint256"},{"name":"amount","type":"uint256","indexed":false,"internalType":"uint256"},{"name":"price","type":"uint256","indexed":false,"internalType":"uint256"}],"anonymous":false},{"type":"event","name":"MarketCleared","inputs":[{"name":"hour","type":"uint256","indexed":false,"internalType":"uint256"},{"name":"clearingPrice","type":"uint256","indexed":false,"internalType":"uint256"}],"anonymous":false},{"type":"event","name":"SettlementDone","inputs":[{"name":"hour","type":"uint256","indexed":false,"internalType":"uint256"},{"name":"user","type":"address","indexed":false,"internalType":"address"},{"name":"amount","type":"uint256","indexed":false,"internalType":"uint256"},{"name":"isBid","type":"bool","indexed":false,"internalType":"bool"}],"anonymous":false},{"type":"error","name":"AddressEmptyCode","inputs":[{"name":"target","type":"address","internalType":"address"}]},{"type":"error","name":"AddressInsufficientBalance","inputs":[{"name":"account","type":"address","internalType":"address"}]},{"type":"error","name":"EnergyBiddingMarket__AmountCannotBeZero","inputs":[]},{"type":"error","name":"EnergyBiddingMarket__BidMinimumPriceNotMet","inputs":[{"name":"price","type":"uint256","internalType":"uint256"},{"name":"minimumPrice","type":"uint256","internalType":"uint256"}]},{"type":"error","name":"EnergyBiddingMarket__MarketAlreadyClearedForThisHour","inputs":[{"name":"hour","type":"uint256","internalType":"uint256"}]},{"type":"error","name":"EnergyBiddingMarket__NoBidFulfilled","inputs":[{"name":"hour","type":"uint256","internalType":"uint256"}]},{"type":"error","name":"EnergyBiddingMarket__NoBidsOrAsksForThisHour","inputs":[{"name":"hour","type":"uint256","internalType":"uint256"}]},{"type":"error","name":"EnergyBiddingMarket__NoClaimableBalance","inputs":[{"name":"user","type":"address","internalType":"address"}]},{"type":"error","name":"EnergyBiddingMarket__WrongHourProvided","inputs":[{"name":"hour","type":"uint256","internalType":"uint256"}]},{"type":"error","name":"FailedInnerCall","inputs":[]},{"type":"error","name":"SafeERC20FailedOperation","inputs":[{"name":"token","type":"address","internalType":"address"}]}],"bytecode":{"object":"0x608060405234801561001057600080fd5b50604051611a5e380380611a5e83398101604081905261002f91610054565b600080546001600160a01b0319166001600160a01b0392909216919091179055610084565b60006020828403121561006657600080fd5b81516001600160a01b038116811461007d57600080fd5b9392505050565b6119cb806100936000396000f3fe608060405234801561001057600080fd5b506004361061010b5760003560e01c80637ebb29e0116100a2578063aabfa37d11610071578063aabfa37d1461026b578063ad9f20a614610296578063d94c32af1461029f578063f1a640f8146102b2578063fe4d7324146102cc57600080fd5b80637ebb29e0146101e65780638672cf581461022557806397e33ea414610245578063a5f74cba1461025857600080fd5b80635e62be25116100de5780635e62be251461016957806360f3309b1461017c57806370a08231146101aa57806375a8b702146101d357600080fd5b806312f3a69c14610110578063237ffb2f146101395780632714f3221461014e57806330509bca14610161575b600080fd5b61012361011e3660046116b1565b6102ff565b60405161013091906116dd565b60405180910390f35b61014c610147366004611754565b6104fc565b005b61014c61015c366004611786565b61052b565b61014c61099d565b61014c61017736600461179f565b6109fc565b61019c61018a3660046117cb565b60056020526000908152604090205481565b604051908152602001610130565b61019c6101b83660046117cb565b6001600160a01b031660009081526005602052604090205490565b61014c6101e13660046117e6565b610bc1565b6101f96101f43660046117e6565b610d67565b604080516001600160a01b03909516855260208501939093529183015215156060820152608001610130565b6102386102333660046116b1565b610dba565b6040516101309190611808565b610123610253366004611786565b610fab565b6101f96102663660046117e6565b61104d565b60005461027e906001600160a01b031681565b6040516001600160a01b039091168152602001610130565b61019c61271081565b6102386102ad366004611786565b611069565b6102ba600681565b60405160ff9091168152602001610130565b6102ef6102da366004611786565b60046020526000908152604090205460ff1681565b6040519015158152602001610130565b6000828152600260209081526040808320805482518185028101850190935280835260609493849084015b8282101561038c576000848152602090819020604080516080810182526004860290920180546001600160a01b03168352600180820154848601526002820154928401929092526003015460ff1615156060830152908352909201910161032a565b5050505090506000805b82518110156103eb57846001600160a01b03168382815181106103bb576103bb611873565b6020026020010151600001516001600160a01b0316036103e357816103df8161189f565b9250505b600101610396565b5060008167ffffffffffffffff811115610407576104076118b8565b60405190808252806020026020018201604052801561045957816020015b6040805160808101825260008082526020808301829052928201819052606082015282526000199092019101816104255790505b5090506000915060005b83518110156104f057856001600160a01b031684828151811061048857610488611873565b6020026020010151600001516001600160a01b0316036104e8578381815181106104b4576104b4611873565b60200260200101518284815181106104ce576104ce611873565b602002602001018190525082806104e49061189f565b9350505b600101610463565b50925050505b92915050565b835b83811015610524576105118184846109fc565b61051d610e10826118ce565b90506104fe565b5050505050565b80610538610e10826118e1565b1561055e576040516305186e1960e31b8152600481018290526024015b60405180910390fd5b4261056b83610e106118ce565b111561058d576040516305186e1960e31b815260048101839052602401610555565b60008281526001602052604090205415806105b45750600082815260026020526040902054155b156105d557604051630df2bda760e31b815260048101839052602401610555565b60008281526004602052604090205460ff1615610608576040516330a70c2d60e11b815260048101839052602401610555565b600082815260016020526040902061061f816110f6565b600061062a846112e3565b90506000805b835481101561093957600084828154811061064d5761064d611873565b90600052602060002090600402019050838160020154101561066f5750610939565b6000835b6000898152600260205260409020548110156108825760008981526002602052604081208054839081106106a9576106a9611873565b906000526020600020906004020190506000816002015482600101546106cf9190611903565b60018601549091506106e182866118ce565b116107b15760038201805460ff19166001908117909155820154600283015561070a81856118ce565b93506107168882611916565b82546001600160a01b03166000908152600560205260408120805490919061073f9084906118ce565b9091555050815460408051838152602081018b905285926001600160a01b0316918e917fbeeb0e068b38584599ecdad61d683ab506f0715af81d0c38f7159a5d16a7b9b5910160405180910390a4866107978161189f565b975050846001015484036107ac575050610882565b610878565b8385600101546107c19190611903565b8260020160008282546107d491906118ce565b9091555050600185015488906107eb908690611903565b6107f59190611916565b82546001600160a01b03166000908152600560205260408120805490919061081e9084906118ce565b90915550508154600183015460408051918252602082018b905285926001600160a01b0316918e917fd9ad2e163200cd40563fd17099f6e140b91a088ee6af02a2a4ccd35ae136105c910160405180910390a45050610882565b5050600101610673565b5060038201805460ff1916600117905560028201546108a2908690611903565b82600101546108b19190611916565b82546001600160a01b0316600090815260056020526040812080549091906108da9084906118ce565b90915550508154600183015460408051918252602082018890526001600160a01b039092169185918b917fd99f82a7ae313af230ab5df0770c9b0f04e4fbb630e685f3a3566ad44b97ef0b910160405180910390a45050600101610630565b5060008581526004602052604090819020805460ff19166001179055517f515dc8352afddcfc4899a638cc6fcb94e434e2c1e703a124ebee89b6c454146e9061098e9087908590918252602082015260400190565b60405180910390a15050505050565b33600090815260056020526040812054908190036109d05760405163af9d8c8560e01b8152336004820152602401610555565b336000818152600560205260408120819055546109f9916001600160a01b039091169083611458565b50565b82610a09610e10826118e1565b15610a2a576040516305186e1960e31b815260048101829052602401610555565b428411610a4d576040516305186e1960e31b815260048101859052602401610555565b612710821015610a7b57604051630100bf8960e31b8152600481018390526127106024820152604401610555565b82600003610a9c5760405163b4983d9960e01b815260040160405180910390fd5b60008481526004602052604090205460ff1615610acf576040516330a70c2d60e11b815260048101859052602401610555565b610af23330610ade8587611916565b6000546001600160a01b03169291906114bc565b60008481526001602081815260408084208151608081018352338082528185018a81528285018a815260608085018a81528654808b018855968b52998890209451600490960290940180546001600160a01b0319166001600160a01b039096169590951785559051968401969096559451600283015594516003909101805460ff19169115159190911790558051888152918201879052810185905290917fb46d776cdb48d081a0c7d3ff32dc2792e4e8fbce788723207515723628020d32910160405180910390a250505050565b81610bce610e10826118e1565b15610bef576040516305186e1960e31b815260048101829052602401610555565b4283101580610c09575042610c0684610e106118ce565b11155b15610c2a576040516305186e1960e31b815260048101849052602401610555565b60008381526004602052604090205460ff1615610c5d576040516330a70c2d60e11b815260048101849052602401610555565b81600003610c7e5760405163b4983d9960e01b815260040160405180910390fd5b6000838152600260208181526040808420815160808101835233815280840188815281840187815260608301888152845460018082018755958a52878a209451600490910290940180546001600160a01b0319166001600160a01b03909516949094178455915193830193909355915194810194909455516003938401805460ff191691151591909117905586845291905281208054849290610d229084906118ce565b9091555050604080518481526020810184905233917f3d4436d553336892c92b8e854d102f0a3c1b1d60968acc1d262ed8bc6072706c910160405180910390a2505050565b60026020528160005260406000208181548110610d8357600080fd5b600091825260209091206004909102018054600182015460028301546003909301546001600160a01b039092169450925060ff1684565b6000828152600160209081526040808320805482518185028101850190935280835260609493849084015b82821015610e47576000848152602090819020604080516080810182526004860290920180546001600160a01b03168352600180820154848601526002820154928401929092526003015460ff16151560608301529083529092019101610de5565b5050505090506000805b8251811015610ea657846001600160a01b0316838281518110610e7657610e76611873565b6020026020010151600001516001600160a01b031603610e9e5781610e9a8161189f565b9250505b600101610e51565b5060008167ffffffffffffffff811115610ec257610ec26118b8565b604051908082528060200260200182016040528015610f1457816020015b604080516080810182526000808252602080830182905292820181905260608201528252600019909201910181610ee05790505b5090506000915060005b83518110156104f057856001600160a01b0316848281518110610f4357610f43611873565b6020026020010151600001516001600160a01b031603610fa357838181518110610f6f57610f6f611873565b6020026020010151828481518110610f8957610f89611873565b60200260200101819052508280610f9f9061189f565b9350505b600101610f1e565b606060026000838152602001908152602001600020805480602002602001604051908101604052809291908181526020016000905b82821015611042576000848152602090819020604080516080810182526004860290920180546001600160a01b03168352600180820154848601526002820154928401929092526003015460ff16151560608301529083529092019101610fe0565b505050509050919050565b60016020528160005260406000208181548110610d8357600080fd5b6000818152600160209081526040808320805482518185028101850190935280835260609492939192909184018215611042576000848152602090819020604080516080810182526004860290920180546001600160a01b03168352600180820154848601526002820154928401929092526003015460ff16151560608301529083529092019101610fe0565b60015b81548110156112df57600082828154811061111657611116611873565b600091825260209182902060408051608081018252600490930290910180546001600160a01b0316835260018101549383019390935260028301549082015260039091015460ff16151560608201529050815b6000811180156111a95750604082015184611185600184611903565b8154811061119557611195611873565b906000526020600020906004020160020154105b1561125c57836111ba600183611903565b815481106111ca576111ca611873565b90600052602060002090600402018482815481106111ea576111ea611873565b60009182526020909120825460049092020180546001600160a01b0319166001600160a01b0390921691909117815560018083015490820155600280830154908201556003918201549101805460ff909216151560ff19909216919091179055806112548161192d565b915050611169565b8281146112d5578184828154811061127657611276611873565b600091825260209182902083516004929092020180546001600160a01b0319166001600160a01b03909216919091178155908201516001820155604082015160028201556060909101516003909101805460ff19169115159190911790555b50506001016110f9565b5050565b600081815260016020908152604080832080548251818502810185019093528083528493849084015b8282101561136e576000848152602090819020604080516080810182526004860290920180546001600160a01b03168352600180820154848601526002820154928401929092526003015460ff1615156060830152908352909201910161130c565b505050600085815260036020526040812054929350919050815b8351811015611422578381815181106113a3576113a3611873565b602002602001015160200151836113ba91906118ce565b925081831061141a57806000036113e75760405163f8f3d44160e01b815260048101879052602401610555565b836113f3600183611903565b8151811061140357611403611873565b602002602001015160400151945050505050919050565b600101611388565b5082600184516114329190611903565b8151811061144257611442611873565b6020026020010151604001519350505050919050565b6040516001600160a01b038381166024830152604482018390526114b791859182169063a9059cbb906064015b604051602081830303815290604052915060e01b6020820180516001600160e01b0383818316178352505050506114fb565b505050565b6040516001600160a01b0384811660248301528381166044830152606482018390526114f59186918216906323b872dd90608401611485565b50505050565b60006115106001600160a01b0384168361155e565b905080516000141580156115355750808060200190518101906115339190611944565b155b156114b757604051635274afe760e01b81526001600160a01b0384166004820152602401610555565b606061156c83836000611573565b9392505050565b6060814710156115985760405163cd78605960e01b8152306004820152602401610555565b600080856001600160a01b031684866040516115b49190611966565b60006040518083038185875af1925050503d80600081146115f1576040519150601f19603f3d011682016040523d82523d6000602084013e6115f6565b606091505b5091509150611606868383611610565b9695505050505050565b606082611625576116208261166c565b61156c565b815115801561163c57506001600160a01b0384163b155b1561166557604051639996b31560e01b81526001600160a01b0385166004820152602401610555565b508061156c565b80511561167c5780518082602001fd5b604051630a12f52160e11b815260040160405180910390fd5b80356001600160a01b03811681146116ac57600080fd5b919050565b600080604083850312156116c457600080fd5b823591506116d460208401611695565b90509250929050565b6020808252825182820181905260009190848201906040850190845b818110156117485761173583855180516001600160a01b0316825260208082015190830152604080820151908301526060908101511515910152565b92840192608092909201916001016116f9565b50909695505050505050565b6000806000806080858703121561176a57600080fd5b5050823594602084013594506040840135936060013592509050565b60006020828403121561179857600080fd5b5035919050565b6000806000606084860312156117b457600080fd5b505081359360208301359350604090920135919050565b6000602082840312156117dd57600080fd5b61156c82611695565b600080604083850312156117f957600080fd5b50508035926020909101359150565b6020808252825182820181905260009190848201906040850190845b818110156117485761186083855180516001600160a01b0316825260208082015190830152604080820151908301526060908101511515910152565b9284019260809290920191600101611824565b634e487b7160e01b600052603260045260246000fd5b634e487b7160e01b600052601160045260246000fd5b6000600182016118b1576118b1611889565b5060010190565b634e487b7160e01b600052604160045260246000fd5b808201808211156104f6576104f6611889565b6000826118fe57634e487b7160e01b600052601260045260246000fd5b500690565b818103818111156104f6576104f6611889565b80820281158282048414176104f6576104f6611889565b60008161193c5761193c611889565b506000190190565b60006020828403121561195657600080fd5b8151801515811461156c57600080fd5b6000825160005b81811015611987576020818601810151858301520161196d565b50600092019182525091905056fea26469706673582212201924394026dbac1fbdd74b32e0d6903c605657d1915f0fa550ce4aabce91908f64736f6c63430008180033","linkReferences":{}},"methodIdentifiers":{"EURC()":"aabfa37d","MIN_PRICE()":"ad9f20a6","PRICE_DECIMALS()":"f1a640f8","asksByHour(uint256,uint256)":"7ebb29e0","balanceOf(address)":"70a08231","bidsByHour(uint256,uint256)":"a5f74cba","claimBalance()":"30509bca","claimableBalance(address)":"60f3309b","clearMarket(uint256)":"2714f322","getAsksByAddress(uint256,address)":"12f3a69c","getAsksByHour(uint256)":"97e33ea4","getBidsByAddress(uint256,address)":"8672cf58","getBidsByHour(uint256)":"d94c32af","isMarketCleared(uint256)":"fe4d7324","placeAsk(uint256,uint256)":"75a8b702","placeBid(uint256,uint256,uint256)":"5e62be25","placeMultipleBids(uint256,uint256,uint256,uint256)":"237ffb2f"},"id":30}