{"abi":[{"type":"constructor","inputs":[{"name":"_eurcTokenAddress","type":"address","internalType":"address"}],"stateMutability":"nonpayable"},{"type":"function","name":"EURC","inputs":[],"outputs":[{"name":"","type":"address","internalType":"contract IERC20"}],"stateMutability":"view"},{"type":"function","name":"MIN_PRICE","inputs":[],"outputs":[{"name":"","type":"uint256","internalType":"uint256"}],"stateMutability":"view"},{"type":"function","name":"PRICE_DECIMALS","inputs":[],"outputs":[{"name":"","type":"uint8","internalType":"uint8"}],"stateMutability":"view"},{"type":"function","name":"asksByHour","inputs":[{"name":"","type":"uint256","internalType":"uint256"},{"name":"","type":"uint256","internalType":"uint256"}],"outputs":[{"name":"seller","type":"address","internalType":"address"},{"name":"amount","type":"uint256","internalType":"uint256"},{"name":"matchedAmount","type":"uint256","internalType":"uint256"},{"name":"settled","type":"bool","internalType":"bool"}],"stateMutability":"view"},{"type":"function","name":"balanceOf","inputs":[{"name":"user","type":"address","internalType":"address"}],"outputs":[{"name":"","type":"uint256","internalType":"uint256"}],"stateMutability":"view"},{"type":"function","name":"bidsByHour","inputs":[{"name":"","type":"uint256","internalType":"uint256"},{"name":"","type":"uint256","internalType":"uint256"}],"outputs":[{"name":"bidder","type":"address","internalType":"address"},{"name":"amount","type":"uint256","internalType":"uint256"},{"name":"price","type":"uint256","internalType":"uint256"},{"name":"settled","type":"bool","internalType":"bool"}],"stateMutability":"view"},{"type":"function","name":"claimBalance","inputs":[],"outputs":[],"stateMutability":"nonpayable"},{"type":"function","name":"claimableBalance","inputs":[{"name":"","type":"address","internalType":"address"}],"outputs":[{"name":"","type":"uint256","internalType":"uint256"}],"stateMutability":"view"},{"type":"function","name":"clearMarket","inputs":[{"name":"hour","type":"uint256","internalType":"uint256"}],"outputs":[],"stateMutability":"nonpayable"},{"type":"function","name":"getAsksByAddress","inputs":[{"name":"hour","type":"uint256","internalType":"uint256"},{"name":"user","type":"address","internalType":"address"}],"outputs":[{"name":"","type":"tuple[]","internalType":"struct EnergyBiddingMarket.Ask[]","components":[{"name":"seller","type":"address","internalType":"address"},{"name":"amount","type":"uint256","internalType":"uint256"},{"name":"matchedAmount","type":"uint256","internalType":"uint256"},{"name":"settled","type":"bool","internalType":"bool"}]}],"stateMutability":"view"},{"type":"function","name":"getAsksByHour","inputs":[{"name":"hour","type":"uint256","internalType":"uint256"}],"outputs":[{"name":"","type":"tuple[]","internalType":"struct EnergyBiddingMarket.Ask[]","components":[{"name":"seller","type":"address","internalType":"address"},{"name":"amount","type":"uint256","internalType":"uint256"},{"name":"matchedAmount","type":"uint256","internalType":"uint256"},{"name":"settled","type":"bool","internalType":"bool"}]}],"stateMutability":"view"},{"type":"function","name":"getBidsByAddress","inputs":[{"name":"hour","type":"uint256","internalType":"uint256"},{"name":"user","type":"address","internalType":"address"}],"outputs":[{"name":"","type":"tuple[]","internalType":"struct EnergyBiddingMarket.Bid[]","components":[{"name":"bidder","type":"address","internalType":"address"},{"name":"amount","type":"uint256","internalType":"uint256"},{"name":"price","type":"uint256","internalType":"uint256"},{"name":"settled","type":"bool","internalType":"bool"}]}],"stateMutability":"view"},{"type":"function","name":"getBidsByHour","inputs":[{"name":"hour","type":"uint256","internalType":"uint256"}],"outputs":[{"name":"","type":"tuple[]","internalType":"struct EnergyBiddingMarket.Bid[]","components":[{"name":"bidder","type":"address","internalType":"address"},{"name":"amount","type":"uint256","internalType":"uint256"},{"name":"price","type":"uint256","internalType":"uint256"},{"name":"settled","type":"bool","internalType":"bool"}]}],"stateMutability":"view"},{"type":"function","name":"isMarketCleared","inputs":[{"name":"","type":"uint256","internalType":"uint256"}],"outputs":[{"name":"","type":"bool","internalType":"bool"}],"stateMutability":"view"},{"type":"function","name":"placeAsk","inputs":[{"name":"hour","type":"uint256","internalType":"uint256"},{"name":"amount","type":"uint256","internalType":"uint256"}],"outputs":[],"stateMutability":"nonpayable"},{"type":"function","name":"placeBid","inputs":[{"name":"hour","type":"uint256","internalType":"uint256"},{"name":"amount","type":"uint256","internalType":"uint256"},{"name":"price","type":"uint256","internalType":"uint256"}],"outputs":[],"stateMutability":"nonpayable"},{"type":"event","name":"AskFulfilled","inputs":[{"name":"hour","type":"uint256","indexed":true,"internalType":"uint256"},{"name":"seller","type":"address","indexed":true,"internalType":"address"},{"name":"id","type":"uint256","indexed":true,"internalType":"uint256"},{"name":"amount","type":"uint256","indexed":false,"internalType":"uint256"},{"name":"price","type":"uint256","indexed":false,"internalType":"uint256"}],"anonymous":false},{"type":"event","name":"AskPartiallyFulfilled","inputs":[{"name":"hour","type":"uint256","indexed":true,"internalType":"uint256"},{"name":"seller","type":"address","indexed":true,"internalType":"address"},{"name":"id","type":"uint256","indexed":true,"internalType":"uint256"},{"name":"amount","type":"uint256","indexed":false,"internalType":"uint256"},{"name":"price","type":"uint256","indexed":false,"internalType":"uint256"}],"anonymous":false},{"type":"event","name":"AskPlaced","inputs":[{"name":"seller","type":"address","indexed":true,"internalType":"address"},{"name":"hour","type":"uint256","indexed":false,"internalType":"uint256"},{"name":"amount","type":"uint256","indexed":false,"internalType":"uint256"}],"anonymous":false},{"type":"event","name":"BidFulfilled","inputs":[{"name":"hour","type":"uint256","indexed":true,"internalType":"uint256"},{"name":"id","type":"uint256","indexed":true,"internalType":"uint256"},{"name":"bidder","type":"address","indexed":true,"internalType":"address"},{"name":"amount","type":"uint256","indexed":false,"internalType":"uint256"},{"name":"price","type":"uint256","indexed":false,"internalType":"uint256"}],"anonymous":false},{"type":"event","name":"BidPlaced","inputs":[{"name":"bidder","type":"address","indexed":true,"internalType":"address"},{"name":"hour","type":"uint256","indexed":false,"internalType":"uint256"},{"name":"amount","type":"uint256","indexed":false,"internalType":"uint256"},{"name":"price","type":"uint256","indexed":false,"internalType":"uint256"}],"anonymous":false},{"type":"event","name":"MarketCleared","inputs":[{"name":"hour","type":"uint256","indexed":false,"internalType":"uint256"},{"name":"clearingPrice","type":"uint256","indexed":false,"internalType":"uint256"}],"anonymous":false},{"type":"event","name":"SettlementDone","inputs":[{"name":"hour","type":"uint256","indexed":false,"internalType":"uint256"},{"name":"user","type":"address","indexed":false,"internalType":"address"},{"name":"amount","type":"uint256","indexed":false,"internalType":"uint256"},{"name":"isBid","type":"bool","indexed":false,"internalType":"bool"}],"anonymous":false},{"type":"error","name":"AddressEmptyCode","inputs":[{"name":"target","type":"address","internalType":"address"}]},{"type":"error","name":"AddressInsufficientBalance","inputs":[{"name":"account","type":"address","internalType":"address"}]},{"type":"error","name":"EnergyBiddingMarket__AmountCannotBeZero","inputs":[]},{"type":"error","name":"EnergyBiddingMarket__BidMinimumPriceNotMet","inputs":[{"name":"price","type":"uint256","internalType":"uint256"},{"name":"minimumPrice","type":"uint256","internalType":"uint256"}]},{"type":"error","name":"EnergyBiddingMarket__MarketAlreadyClearedForThisHour","inputs":[{"name":"hour","type":"uint256","internalType":"uint256"}]},{"type":"error","name":"EnergyBiddingMarket__NoBidFulfilled","inputs":[{"name":"hour","type":"uint256","internalType":"uint256"}]},{"type":"error","name":"EnergyBiddingMarket__NoBidsOrAsksForThisHour","inputs":[{"name":"hour","type":"uint256","internalType":"uint256"}]},{"type":"error","name":"EnergyBiddingMarket__NoClaimableBalance","inputs":[{"name":"user","type":"address","internalType":"address"}]},{"type":"error","name":"EnergyBiddingMarket__WrongHourProvided","inputs":[{"name":"hour","type":"uint256","internalType":"uint256"}]},{"type":"error","name":"FailedInnerCall","inputs":[]},{"type":"error","name":"SafeERC20FailedOperation","inputs":[{"name":"token","type":"address","internalType":"address"}]}],"bytecode":{"object":"0x608060405234801561001057600080fd5b5060405161198c38038061198c83398101604081905261002f91610054565b600080546001600160a01b0319166001600160a01b0392909216919091179055610084565b60006020828403121561006657600080fd5b81516001600160a01b038116811461007d57600080fd5b9392505050565b6118f9806100936000396000f3fe608060405234801561001057600080fd5b50600436106101005760003560e01c80638672cf5811610097578063ad9f20a611610066578063ad9f20a614610278578063d94c32af14610281578063f1a640f814610294578063fe4d7324146102ae57600080fd5b80638672cf581461020757806397e33ea414610227578063a5f74cba1461023a578063aabfa37d1461024d57600080fd5b806360f3309b116100d357806360f3309b1461015e57806370a082311461018c57806375a8b702146101b55780637ebb29e0146101c857600080fd5b806312f3a69c146101055780632714f3221461012e57806330509bca146101435780635e62be251461014b575b600080fd5b610118610113366004611611565b6102e1565b604051610125919061163d565b60405180910390f35b61014161013c3660046116b4565b6104f2565b005b61014161091c565b6101416101593660046116cd565b61097b565b61017e61016c3660046116f9565b60056020526000908152604090205481565b604051908152602001610125565b61017e61019a3660046116f9565b6001600160a01b031660009081526005602052604090205490565b6101416101c3366004611714565b610b28565b6101db6101d6366004611714565b610c9e565b604080516001600160a01b03909516855260208501939093529183015215156060820152608001610125565b61021a610215366004611611565b610cf1565b6040516101259190611736565b6101186102353660046116b4565b610ef6565b6101db610248366004611714565b610f98565b600054610260906001600160a01b031681565b6040516001600160a01b039091168152602001610125565b61017e61271081565b61021a61028f3660046116b4565b610fb4565b61029c600681565b60405160ff9091168152602001610125565b6102d16102bc3660046116b4565b60046020526000908152604090205460ff1681565b6040519015158152602001610125565b6000828152600260209081526040808320805482518185028101850190935280835260609493849084015b8282101561036e576000848152602090819020604080516080810182526004860290920180546001600160a01b03168352600180820154848601526002820154928401929092526003015460ff1615156060830152908352909201910161030c565b5050505090506000805b82518110156103d757846001600160a01b031683828151811061039d5761039d6117a1565b6020026020010151600001516001600160a01b0316036103c557816103c1816117cd565b9250505b806103cf816117cd565b915050610378565b5060008167ffffffffffffffff8111156103f3576103f36117e6565b60405190808252806020026020018201604052801561044557816020015b6040805160808101825260008082526020808301829052928201819052606082015282526000199092019101816104115790505b5090506000915060005b83518110156104e657856001600160a01b0316848281518110610474576104746117a1565b6020026020010151600001516001600160a01b0316036104d4578381815181106104a0576104a06117a1565b60200260200101518284815181106104ba576104ba6117a1565b602002602001018190525082806104d0906117cd565b9350505b806104de816117cd565b91505061044f565b50925050505b92915050565b60008181526001602052604090205415806105195750600081815260026020526040902054155b1561053f57604051630df2bda760e31b8152600481018290526024015b60405180910390fd5b60008181526004602052604090205460ff1615610572576040516330a70c2d60e11b815260048101829052602401610536565b600081815260016020526040902061058981611041565b600061059483611239565b90506000805b83548110156108b95760008482815481106105b7576105b76117a1565b9060005260206000209060040201905083816002015410156105d957506108b9565b6000835b6000888152600260205260409020548110156107f7576000888152600260205260408120805483908110610613576106136117a1565b9060005260206000209060040201905060008160020154826001015461063991906117fc565b600186015490915061064b828661180f565b1161071b5760038201805460ff191660019081179091558201546002830155610674818561180f565b93506106808882611822565b82546001600160a01b0316600090815260056020526040812080549091906106a990849061180f565b9091555050815460408051838152602081018b905285926001600160a01b0316918d917fbeeb0e068b38584599ecdad61d683ab506f0715af81d0c38f7159a5d16a7b9b5910160405180910390a486610701816117cd565b975050846001015484036107165750506107f7565b6107e2565b83856001015461072b91906117fc565b82600201600082825461073e919061180f565b9091555050600185015488906107559086906117fc565b61075f9190611822565b82546001600160a01b03166000908152600560205260408120805490919061078890849061180f565b90915550508154600183015460408051918252602082018b905285926001600160a01b0316918d917fd9ad2e163200cd40563fd17099f6e140b91a088ee6af02a2a4ccd35ae136105c910160405180910390a450506107f7565b505080806107ef906117cd565b9150506105dd565b5060038201805460ff1916600117905560028201546108179086906117fc565b82600101546108269190611822565b82546001600160a01b03166000908152600560205260408120805490919061084f90849061180f565b90915550508154600183015460408051918252602082018890526001600160a01b039092169185918a917fd99f82a7ae313af230ab5df0770c9b0f04e4fbb630e685f3a3566ad44b97ef0b910160405180910390a4505080806108b1906117cd565b91505061059a565b5060008481526004602052604090819020805460ff19166001179055517f515dc8352afddcfc4899a638cc6fcb94e434e2c1e703a124ebee89b6c454146e9061090e9086908590918252602082015260400190565b60405180910390a150505050565b336000908152600560205260408120549081900361094f5760405163af9d8c8560e01b8152336004820152602401610536565b33600081815260056020526040812081905554610978916001600160a01b0390911690836113b8565b50565b610987610e1084611839565b1515806109945750428311155b156109b5576040516305186e1960e31b815260048101849052602401610536565b6127108110156109e357604051630100bf8960e31b8152600481018290526127106024820152604401610536565b81600003610a045760405163b4983d9960e01b815260040160405180910390fd5b60008381526004602052604090205460ff1615610a37576040516330a70c2d60e11b815260048101849052602401610536565b610a5a3330610a468486611822565b6000546001600160a01b031692919061141c565b600083815260016020818152604080842081516080810183523380825281850189815282850189815260608085018a81528654808b018855968b52998890209451600490960290940180546001600160a01b0319166001600160a01b039096169590951785559051968401969096559451600283015594516003909101805460ff19169115159190911790558051878152918201869052810184905290917fb46d776cdb48d081a0c7d3ff32dc2792e4e8fbce788723207515723628020d32910160405180910390a2505050565b610b34610e1083611839565b151580610b415750428211155b15610b62576040516305186e1960e31b815260048101839052602401610536565b60008281526004602052604090205460ff1615610b95576040516330a70c2d60e11b815260048101839052602401610536565b80600003610bb65760405163b4983d9960e01b815260040160405180910390fd5b6000828152600260208181526040808420815160808101835233815280840187815281840187815260608301888152845460018082018755958a52878a209451600490910290940180546001600160a01b0319166001600160a01b03909516949094178455915193830193909355915194810194909455516003938401805460ff191691151591909117905585845291905281208054839290610c5a90849061180f565b9091555050604080518381526020810183905233917f3d4436d553336892c92b8e854d102f0a3c1b1d60968acc1d262ed8bc6072706c910160405180910390a25050565b60026020528160005260406000208181548110610cba57600080fd5b600091825260209091206004909102018054600182015460028301546003909301546001600160a01b039092169450925060ff1684565b6000828152600160209081526040808320805482518185028101850190935280835260609493849084015b82821015610d7e576000848152602090819020604080516080810182526004860290920180546001600160a01b03168352600180820154848601526002820154928401929092526003015460ff16151560608301529083529092019101610d1c565b5050505090506000805b8251811015610de757846001600160a01b0316838281518110610dad57610dad6117a1565b6020026020010151600001516001600160a01b031603610dd55781610dd1816117cd565b9250505b80610ddf816117cd565b915050610d88565b5060008167ffffffffffffffff811115610e0357610e036117e6565b604051908082528060200260200182016040528015610e5557816020015b604080516080810182526000808252602080830182905292820181905260608201528252600019909201910181610e215790505b5090506000915060005b83518110156104e657856001600160a01b0316848281518110610e8457610e846117a1565b6020026020010151600001516001600160a01b031603610ee457838181518110610eb057610eb06117a1565b6020026020010151828481518110610eca57610eca6117a1565b60200260200101819052508280610ee0906117cd565b9350505b80610eee816117cd565b915050610e5f565b606060026000838152602001908152602001600020805480602002602001604051908101604052809291908181526020016000905b82821015610f8d576000848152602090819020604080516080810182526004860290920180546001600160a01b03168352600180820154848601526002820154928401929092526003015460ff16151560608301529083529092019101610f2b565b505050509050919050565b60016020528160005260406000208181548110610cba57600080fd5b6000818152600160209081526040808320805482518185028101850190935280835260609492939192909184018215610f8d576000848152602090819020604080516080810182526004860290920180546001600160a01b03168352600180820154848601526002820154928401929092526003015460ff16151560608301529083529092019101610f2b565b60015b8154811015611235576000828281548110611061576110616117a1565b600091825260209182902060408051608081018252600490930290910180546001600160a01b0316835260018101549383019390935260028301549082015260039091015460ff16151560608201529050815b6000811180156110f457506040820151846110d06001846117fc565b815481106110e0576110e06117a1565b906000526020600020906004020160020154105b156111a757836111056001836117fc565b81548110611115576111156117a1565b9060005260206000209060040201848281548110611135576111356117a1565b60009182526020909120825460049092020180546001600160a01b0319166001600160a01b0390921691909117815560018083015490820155600280830154908201556003918201549101805460ff909216151560ff199092169190911790558061119f8161185b565b9150506110b4565b82811461122057818482815481106111c1576111c16117a1565b600091825260209182902083516004929092020180546001600160a01b0319166001600160a01b03909216919091178155908201516001820155604082015160028201556060909101516003909101805460ff19169115159190911790555b5050808061122d906117cd565b915050611044565b5050565b600081815260016020908152604080832080548251818502810185019093528083528493849084015b828210156112c4576000848152602090819020604080516080810182526004860290920180546001600160a01b03168352600180820154848601526002820154928401929092526003015460ff16151560608301529083529092019101611262565b505050600085815260036020526040812054929350919050815b8351811015611382578381815181106112f9576112f96117a1565b60200260200101516020015183611310919061180f565b9250818310611370578060000361133d5760405163f8f3d44160e01b815260048101879052602401610536565b836113496001836117fc565b81518110611359576113596117a1565b602002602001015160400151945050505050919050565b8061137a816117cd565b9150506112de565b50826001845161139291906117fc565b815181106113a2576113a26117a1565b6020026020010151604001519350505050919050565b6040516001600160a01b0383811660248301526044820183905261141791859182169063a9059cbb906064015b604051602081830303815290604052915060e01b6020820180516001600160e01b03838183161783525050505061145b565b505050565b6040516001600160a01b0384811660248301528381166044830152606482018390526114559186918216906323b872dd906084016113e5565b50505050565b60006114706001600160a01b038416836114be565b905080516000141580156114955750808060200190518101906114939190611872565b155b1561141757604051635274afe760e01b81526001600160a01b0384166004820152602401610536565b60606114cc838360006114d3565b9392505050565b6060814710156114f85760405163cd78605960e01b8152306004820152602401610536565b600080856001600160a01b031684866040516115149190611894565b60006040518083038185875af1925050503d8060008114611551576040519150601f19603f3d011682016040523d82523d6000602084013e611556565b606091505b5091509150611566868383611570565b9695505050505050565b60608261158557611580826115cc565b6114cc565b815115801561159c57506001600160a01b0384163b155b156115c557604051639996b31560e01b81526001600160a01b0385166004820152602401610536565b50806114cc565b8051156115dc5780518082602001fd5b604051630a12f52160e11b815260040160405180910390fd5b80356001600160a01b038116811461160c57600080fd5b919050565b6000806040838503121561162457600080fd5b82359150611634602084016115f5565b90509250929050565b6020808252825182820181905260009190848201906040850190845b818110156116a85761169583855180516001600160a01b0316825260208082015190830152604080820151908301526060908101511515910152565b9284019260809290920191600101611659565b50909695505050505050565b6000602082840312156116c657600080fd5b5035919050565b6000806000606084860312156116e257600080fd5b505081359360208301359350604090920135919050565b60006020828403121561170b57600080fd5b6114cc826115f5565b6000806040838503121561172757600080fd5b50508035926020909101359150565b6020808252825182820181905260009190848201906040850190845b818110156116a85761178e83855180516001600160a01b0316825260208082015190830152604080820151908301526060908101511515910152565b9284019260809290920191600101611752565b634e487b7160e01b600052603260045260246000fd5b634e487b7160e01b600052601160045260246000fd5b6000600182016117df576117df6117b7565b5060010190565b634e487b7160e01b600052604160045260246000fd5b818103818111156104ec576104ec6117b7565b808201808211156104ec576104ec6117b7565b80820281158282048414176104ec576104ec6117b7565b60008261185657634e487b7160e01b600052601260045260246000fd5b500690565b60008161186a5761186a6117b7565b506000190190565b60006020828403121561188457600080fd5b815180151581146114cc57600080fd5b6000825160005b818110156118b5576020818601810151858301520161189b565b50600092019182525091905056fea26469706673582212200cb1994bd0494a6fd0e9b06fb5139aac98d87a3f4b2dd77bbc8fd49c78ecc54264736f6c63430008150033","linkReferences":{}},"methodIdentifiers":{"EURC()":"aabfa37d","MIN_PRICE()":"ad9f20a6","PRICE_DECIMALS()":"f1a640f8","asksByHour(uint256,uint256)":"7ebb29e0","balanceOf(address)":"70a08231","bidsByHour(uint256,uint256)":"a5f74cba","claimBalance()":"30509bca","claimableBalance(address)":"60f3309b","clearMarket(uint256)":"2714f322","getAsksByAddress(uint256,address)":"12f3a69c","getAsksByHour(uint256)":"97e33ea4","getBidsByAddress(uint256,address)":"8672cf58","getBidsByHour(uint256)":"d94c32af","isMarketCleared(uint256)":"fe4d7324","placeAsk(uint256,uint256)":"75a8b702","placeBid(uint256,uint256,uint256)":"5e62be25"},"id":30}