{"abi":[{"type":"function","name":"MIN_PRICE","inputs":[],"outputs":[{"name":"","type":"uint256","internalType":"uint256"}],"stateMutability":"view"},{"type":"function","name":"UPGRADE_INTERFACE_VERSION","inputs":[],"outputs":[{"name":"","type":"string","internalType":"string"}],"stateMutability":"view"},{"type":"function","name":"asksByHour","inputs":[{"name":"","type":"uint256","internalType":"uint256"},{"name":"","type":"uint256","internalType":"uint256"}],"outputs":[{"name":"seller","type":"address","internalType":"address"},{"name":"amount","type":"uint256","internalType":"uint256"},{"name":"matchedAmount","type":"uint256","internalType":"uint256"},{"name":"settled","type":"bool","internalType":"bool"}],"stateMutability":"view"},{"type":"function","name":"balanceOf","inputs":[{"name":"user","type":"address","internalType":"address"}],"outputs":[{"name":"","type":"uint256","internalType":"uint256"}],"stateMutability":"view"},{"type":"function","name":"bidsByHour","inputs":[{"name":"","type":"uint256","internalType":"uint256"},{"name":"","type":"uint256","internalType":"uint256"}],"outputs":[{"name":"bidder","type":"address","internalType":"address"},{"name":"amount","type":"uint256","internalType":"uint256"},{"name":"price","type":"uint256","internalType":"uint256"},{"name":"settled","type":"bool","internalType":"bool"}],"stateMutability":"view"},{"type":"function","name":"claimBalance","inputs":[],"outputs":[],"stateMutability":"nonpayable"},{"type":"function","name":"claimableBalance","inputs":[{"name":"","type":"address","internalType":"address"}],"outputs":[{"name":"","type":"uint256","internalType":"uint256"}],"stateMutability":"view"},{"type":"function","name":"clearMarket","inputs":[{"name":"hour","type":"uint256","internalType":"uint256"}],"outputs":[],"stateMutability":"nonpayable"},{"type":"function","name":"clearingPricePerHour","inputs":[{"name":"","type":"uint256","internalType":"uint256"}],"outputs":[{"name":"","type":"uint256","internalType":"uint256"}],"stateMutability":"view"},{"type":"function","name":"getAsksByAddress","inputs":[{"name":"hour","type":"uint256","internalType":"uint256"},{"name":"user","type":"address","internalType":"address"}],"outputs":[{"name":"","type":"tuple[]","internalType":"struct EnergyBiddingMarket.Ask[]","components":[{"name":"seller","type":"address","internalType":"address"},{"name":"amount","type":"uint256","internalType":"uint256"},{"name":"matchedAmount","type":"uint256","internalType":"uint256"},{"name":"settled","type":"bool","internalType":"bool"}]}],"stateMutability":"view"},{"type":"function","name":"getAsksByHour","inputs":[{"name":"hour","type":"uint256","internalType":"uint256"}],"outputs":[{"name":"","type":"tuple[]","internalType":"struct EnergyBiddingMarket.Ask[]","components":[{"name":"seller","type":"address","internalType":"address"},{"name":"amount","type":"uint256","internalType":"uint256"},{"name":"matchedAmount","type":"uint256","internalType":"uint256"},{"name":"settled","type":"bool","internalType":"bool"}]}],"stateMutability":"view"},{"type":"function","name":"getBidsByAddress","inputs":[{"name":"hour","type":"uint256","internalType":"uint256"},{"name":"user","type":"address","internalType":"address"}],"outputs":[{"name":"","type":"tuple[]","internalType":"struct EnergyBiddingMarket.Bid[]","components":[{"name":"bidder","type":"address","internalType":"address"},{"name":"amount","type":"uint256","internalType":"uint256"},{"name":"price","type":"uint256","internalType":"uint256"},{"name":"settled","type":"bool","internalType":"bool"}]}],"stateMutability":"view"},{"type":"function","name":"getBidsByHour","inputs":[{"name":"hour","type":"uint256","internalType":"uint256"}],"outputs":[{"name":"","type":"tuple[]","internalType":"struct EnergyBiddingMarket.Bid[]","components":[{"name":"bidder","type":"address","internalType":"address"},{"name":"amount","type":"uint256","internalType":"uint256"},{"name":"price","type":"uint256","internalType":"uint256"},{"name":"settled","type":"bool","internalType":"bool"}]}],"stateMutability":"view"},{"type":"function","name":"getClearingPrice","inputs":[{"name":"hour","type":"uint256","internalType":"uint256"}],"outputs":[{"name":"","type":"uint256","internalType":"uint256"}],"stateMutability":"view"},{"type":"function","name":"initialize","inputs":[{"name":"owner","type":"address","internalType":"address"}],"outputs":[],"stateMutability":"nonpayable"},{"type":"function","name":"isMarketCleared","inputs":[{"name":"","type":"uint256","internalType":"uint256"}],"outputs":[{"name":"","type":"bool","internalType":"bool"}],"stateMutability":"view"},{"type":"function","name":"owner","inputs":[],"outputs":[{"name":"","type":"address","internalType":"address"}],"stateMutability":"view"},{"type":"function","name":"placeAsk","inputs":[{"name":"hour","type":"uint256","internalType":"uint256"},{"name":"amount","type":"uint256","internalType":"uint256"}],"outputs":[],"stateMutability":"nonpayable"},{"type":"function","name":"placeBid","inputs":[{"name":"hour","type":"uint256","internalType":"uint256"},{"name":"amount","type":"uint256","internalType":"uint256"}],"outputs":[],"stateMutability":"payable"},{"type":"function","name":"placeMultipleBids","inputs":[{"name":"beginHour","type":"uint256","internalType":"uint256"},{"name":"endHour","type":"uint256","internalType":"uint256"},{"name":"amount","type":"uint256","internalType":"uint256"}],"outputs":[],"stateMutability":"payable"},{"type":"function","name":"proxiableUUID","inputs":[],"outputs":[{"name":"","type":"bytes32","internalType":"bytes32"}],"stateMutability":"view"},{"type":"function","name":"renounceOwnership","inputs":[],"outputs":[],"stateMutability":"nonpayable"},{"type":"function","name":"totalAsksByHour","inputs":[{"name":"","type":"uint256","internalType":"uint256"}],"outputs":[{"name":"","type":"uint256","internalType":"uint256"}],"stateMutability":"view"},{"type":"function","name":"totalBidsByHour","inputs":[{"name":"","type":"uint256","internalType":"uint256"}],"outputs":[{"name":"","type":"uint256","internalType":"uint256"}],"stateMutability":"view"},{"type":"function","name":"transferOwnership","inputs":[{"name":"newOwner","type":"address","internalType":"address"}],"outputs":[],"stateMutability":"nonpayable"},{"type":"function","name":"upgradeToAndCall","inputs":[{"name":"newImplementation","type":"address","internalType":"address"},{"name":"data","type":"bytes","internalType":"bytes"}],"outputs":[],"stateMutability":"payable"},{"type":"event","name":"AskFulfilled","inputs":[{"name":"hour","type":"uint256","indexed":true,"internalType":"uint256"},{"name":"seller","type":"address","indexed":true,"internalType":"address"},{"name":"id","type":"uint256","indexed":true,"internalType":"uint256"},{"name":"amount","type":"uint256","indexed":false,"internalType":"uint256"},{"name":"price","type":"uint256","indexed":false,"internalType":"uint256"}],"anonymous":false},{"type":"event","name":"AskPartiallyFulfilled","inputs":[{"name":"hour","type":"uint256","indexed":true,"internalType":"uint256"},{"name":"seller","type":"address","indexed":true,"internalType":"address"},{"name":"id","type":"uint256","indexed":true,"internalType":"uint256"},{"name":"amount","type":"uint256","indexed":false,"internalType":"uint256"},{"name":"price","type":"uint256","indexed":false,"internalType":"uint256"}],"anonymous":false},{"type":"event","name":"AskPlaced","inputs":[{"name":"seller","type":"address","indexed":true,"internalType":"address"},{"name":"hour","type":"uint256","indexed":false,"internalType":"uint256"},{"name":"amount","type":"uint256","indexed":false,"internalType":"uint256"}],"anonymous":false},{"type":"event","name":"BidFulfilled","inputs":[{"name":"hour","type":"uint256","indexed":true,"internalType":"uint256"},{"name":"id","type":"uint256","indexed":true,"internalType":"uint256"},{"name":"bidder","type":"address","indexed":true,"internalType":"address"},{"name":"amount","type":"uint256","indexed":false,"internalType":"uint256"},{"name":"price","type":"uint256","indexed":false,"internalType":"uint256"}],"anonymous":false},{"type":"event","name":"BidPlaced","inputs":[{"name":"bidder","type":"address","indexed":true,"internalType":"address"},{"name":"hour","type":"uint256","indexed":false,"internalType":"uint256"},{"name":"amount","type":"uint256","indexed":false,"internalType":"uint256"},{"name":"price","type":"uint256","indexed":false,"internalType":"uint256"}],"anonymous":false},{"type":"event","name":"Initialized","inputs":[{"name":"version","type":"uint64","indexed":false,"internalType":"uint64"}],"anonymous":false},{"type":"event","name":"MarketCleared","inputs":[{"name":"hour","type":"uint256","indexed":false,"internalType":"uint256"},{"name":"clearingPrice","type":"uint256","indexed":false,"internalType":"uint256"}],"anonymous":false},{"type":"event","name":"OwnershipTransferred","inputs":[{"name":"previousOwner","type":"address","indexed":true,"internalType":"address"},{"name":"newOwner","type":"address","indexed":true,"internalType":"address"}],"anonymous":false},{"type":"event","name":"SettlementDone","inputs":[{"name":"hour","type":"uint256","indexed":false,"internalType":"uint256"},{"name":"user","type":"address","indexed":false,"internalType":"address"},{"name":"amount","type":"uint256","indexed":false,"internalType":"uint256"},{"name":"isBid","type":"bool","indexed":false,"internalType":"bool"}],"anonymous":false},{"type":"event","name":"Upgraded","inputs":[{"name":"implementation","type":"address","indexed":true,"internalType":"address"}],"anonymous":false},{"type":"error","name":"AddressEmptyCode","inputs":[{"name":"target","type":"address","internalType":"address"}]},{"type":"error","name":"ERC1967InvalidImplementation","inputs":[{"name":"implementation","type":"address","internalType":"address"}]},{"type":"error","name":"ERC1967NonPayable","inputs":[]},{"type":"error","name":"EnergyBiddingMarket__AmountCannotBeZero","inputs":[]},{"type":"error","name":"EnergyBiddingMarket__BidMinimumPriceNotMet","inputs":[{"name":"price","type":"uint256","internalType":"uint256"},{"name":"minimumPrice","type":"uint256","internalType":"uint256"}]},{"type":"error","name":"EnergyBiddingMarket__MarketAlreadyClearedForThisHour","inputs":[{"name":"hour","type":"uint256","internalType":"uint256"}]},{"type":"error","name":"EnergyBiddingMarket__NoBidsOrAsksForThisHour","inputs":[{"name":"hour","type":"uint256","internalType":"uint256"}]},{"type":"error","name":"EnergyBiddingMarket__NoClaimableBalance","inputs":[{"name":"user","type":"address","internalType":"address"}]},{"type":"error","name":"EnergyBiddingMarket__WrongHourProvided","inputs":[{"name":"hour","type":"uint256","internalType":"uint256"}]},{"type":"error","name":"EnergyBiddingMarket__WrongHoursProvided","inputs":[{"name":"beginHour","type":"uint256","internalType":"uint256"},{"name":"endHour","type":"uint256","internalType":"uint256"}]},{"type":"error","name":"FailedInnerCall","inputs":[]},{"type":"error","name":"InvalidInitialization","inputs":[]},{"type":"error","name":"NotInitializing","inputs":[]},{"type":"error","name":"OwnableInvalidOwner","inputs":[{"name":"owner","type":"address","internalType":"address"}]},{"type":"error","name":"OwnableUnauthorizedAccount","inputs":[{"name":"account","type":"address","internalType":"address"}]},{"type":"error","name":"UUPSUnauthorizedCallContext","inputs":[]},{"type":"error","name":"UUPSUnsupportedProxiableUUID","inputs":[{"name":"slot","type":"bytes32","internalType":"bytes32"}]}],"bytecode":{"object":"0x60a06040523060805234801561001457600080fd5b5060805161257461003e60003960008181611c7c01528181611ca50152611deb01526125746000f3fe6080604052600436106101815760003560e01c80637ebb29e0116100d1578063ad3cb1cc1161008a578063cc253ed211610064578063cc253ed214610556578063d94c32af14610583578063f2fde38b146105a3578063fe4d7324146105c357600080fd5b8063ad3cb1cc146104df578063ad9f20a61461051d578063c4d66de81461053657600080fd5b80637ebb29e0146103415780638672cf58146103c75780638da5cb5b146103f457806394578ac61461043b57806397e33ea414610468578063a5f74cba1461048857600080fd5b80634f1ef2861161013e57806360f3309b1161011857806360f3309b146102a957806370a08231146102d6578063715018a61461030c57806375a8b7021461032157600080fd5b80634f1ef2861461026e57806352d1902d1461028157806357c90de51461029657600080fd5b806312f3a69c1461018657806313bc9f66146101bc5780631b543623146101d1578063213acfd81461020c5780632714f3221461023957806330509bca14610259575b600080fd5b34801561019257600080fd5b506101a66101a1366004612153565b610603565b6040516101b3919061217f565b60405180910390f35b6101cf6101ca3660046121f6565b6107b9565b005b3480156101dd57600080fd5b506101fe6101ec366004612222565b60009081526004602052604090205490565b6040519081526020016101b3565b34801561021857600080fd5b506101fe610227366004612222565b60036020526000908152604090205481565b34801561024557600080fd5b506101cf610254366004612222565b6108d1565b34801561026557600080fd5b506101cf610db8565b6101cf61027c366004612251565b610e2a565b34801561028d57600080fd5b506101fe610e45565b6101cf6102a4366004612313565b610e62565b3480156102b557600080fd5b506101fe6102c4366004612335565b60076020526000908152604090205481565b3480156102e257600080fd5b506101fe6102f1366004612335565b6001600160a01b031660009081526007602052604090205490565b34801561031857600080fd5b506101cf610ed0565b34801561032d57600080fd5b506101cf61033c366004612313565b610ee4565b34801561034d57600080fd5b5061039b61035c366004612313565b6001602081815260009384526040808520909152918352912080549181015460028201546003909201546001600160a01b039093169290919060ff1684565b604080516001600160a01b039095168552602085019390935291830152151560608201526080016101b3565b3480156103d357600080fd5b506103e76103e2366004612153565b6110a6565b6040516101b39190612350565b34801561040057600080fd5b507f9016d09d72d40fdae2fd8ceac6b6234c7706214fd39c1cd1e609a0528c199300546040516001600160a01b0390911681526020016101b3565b34801561044757600080fd5b506101fe610456366004612222565b60026020526000908152604090205481565b34801561047457600080fd5b506101a6610483366004612222565b61124b565b34801561049457600080fd5b5061039b6104a3366004612313565b600060208181529281526040808220909352908152208054600182015460028301546003909301546001600160a01b0390921692909160ff1684565b3480156104eb57600080fd5b50610510604051806040016040528060058152602001640352e302e360dc1b81525081565b6040516101b391906123df565b34801561052957600080fd5b506101fe64e8d4a5100081565b34801561054257600080fd5b506101cf610551366004612335565b611366565b34801561056257600080fd5b506101fe610571366004612222565b60046020526000908152604090205481565b34801561058f57600080fd5b506103e761059e366004612222565b61147a565b3480156105af57600080fd5b506101cf6105be366004612335565b61158c565b3480156105cf57600080fd5b506105f36105de366004612222565b60066020526000908152604090205460ff1681565b60405190151581526020016101b3565b600082815260036020526040812054606091805b8281101561066b5760008681526001602090815260408083208484529091529020546001600160a01b03808716911603610659578161065581612428565b9250505b8061066381612428565b915050610617565b5060008167ffffffffffffffff8111156106875761068761223b565b6040519080825280602002602001820160405280156106d957816020015b6040805160808101825260008082526020808301829052928201819052606082015282526000199092019101816106a55790505b5090506000915060005b838110156107ad5760008781526001602090815260408083208484529091529020546001600160a01b0380881691160361079b576000878152600160208181526040808420858552825292839020835160808101855281546001600160a01b03168152928101549183019190915260028101549282019290925260039091015460ff1615156060820152825183908590811061078157610781612441565b6020026020010181905250828061079790612428565b9350505b806107a581612428565b9150506106e3565b50925050505b92915050565b826107c6610e108261246d565b156107ec576040516305186e1960e31b8152600481018290526024015b60405180910390fd5b826107f9610e108261246d565b1561081a576040516305186e1960e31b8152600481018290526024016107e3565b8260000361083b5760405163b4983d9960e01b815260040160405180910390fd5b8361084886610e10612481565b11156108715760405163062710c560e51b815260048101869052602481018590526044016107e3565b6000610e106108808787612494565b61088a90866124a7565b61089491906124be565b61089e90346124be565b9050855b858110156108c8576108b58186846115ca565b6108c1610e1082612481565b90506108a2565b50505050505050565b806108de610e108261246d565b156108ff576040516305186e1960e31b8152600481018290526024016107e3565b4261090c83610e10612481565b111561092e576040516305186e1960e31b8152600481018390526024016107e3565b600082815260026020526040812054900361095f57604051630df2bda760e31b8152600481018390526024016107e3565b60008281526006602052604090205460ff1615610992576040516330a70c2d60e11b8152600481018390526024016107e3565b61099b82611769565b600082815260026020908152604080832054600390925282205490916109c085611b88565b6000868152600460205260408120829055909150805b84811015610d535760008781526020818152604080832084845290915290206002810154841180610a05575083155b15610a9957815b86811015610a925760008981526020818152604080832084845290915290206002810154600190910154610a4091906124a7565b60008a8152602081815260408083208584528252808320546001600160a01b03168352600790915281208054909190610a7a908490612481565b90915550819050610a8a81612428565b915050610a0c565b5050610d53565b6000835b86811015610c915760008a81526001602081815260408084208585529091528220600281015491810154909291610ad391612494565b6001860154909150610ae58286612481565b11610bb55760038201805460ff191660019081179091558201546002830155610b0e8185612481565b9350610b1a88826124a7565b82546001600160a01b031660009081526007602052604081208054909190610b43908490612481565b9091555050815460408051838152602081018b905285926001600160a01b0316918f917fbeeb0e068b38584599ecdad61d683ab506f0715af81d0c38f7159a5d16a7b9b5910160405180910390a486610b9b81612428565b97505084600101548403610bb0575050610c91565b610c7c565b838560010154610bc59190612494565b826002016000828254610bd89190612481565b909155505060018501548890610bef908690612494565b610bf991906124a7565b82546001600160a01b031660009081526007602052604081208054909190610c22908490612481565b90915550508154600183015460408051918252602082018b905285926001600160a01b0316918f917fd9ad2e163200cd40563fd17099f6e140b91a088ee6af02a2a4ccd35ae136105c910160405180910390a45050610c91565b50508080610c8990612428565b915050610a9d565b5060038201805460ff191660011790556002820154610cb1908690612494565b8260010154610cc091906124a7565b82546001600160a01b031660009081526007602052604081208054909190610ce9908490612481565b90915550508154600183015460408051918252602082018890526001600160a01b039092169185918c917fd99f82a7ae313af230ab5df0770c9b0f04e4fbb630e685f3a3566ad44b97ef0b910160405180910390a450508080610d4b90612428565b9150506109d6565b5060008681526006602052604090819020805460ff19166001179055517f515dc8352afddcfc4899a638cc6fcb94e434e2c1e703a124ebee89b6c454146e90610da89088908590918252602082015260400190565b60405180910390a1505050505050565b3360009081526007602052604081205490819003610deb5760405163af9d8c8560e01b81523360048201526024016107e3565b336000818152600760205260408082208290555183156108fc0291849190818181858888f19350505050158015610e26573d6000803e3d6000fd5b5050565b610e32611c71565b610e3b82611d16565b610e268282611d1e565b6000610e4f611de0565b5060008051602061251f83398151915290565b81610e6f610e108261246d565b15610e90576040516305186e1960e31b8152600481018290526024016107e3565b81600003610eb15760405163b4983d9960e01b815260040160405180910390fd5b6000610ebd83346124be565b9050610eca8484836115ca565b50505050565b610ed8611e29565b610ee26000611e84565b565b81610ef1610e108261246d565b15610f12576040516305186e1960e31b8152600481018290526024016107e3565b4283101580610f2c575042610f2984610e10612481565b11155b15610f4d576040516305186e1960e31b8152600481018490526024016107e3565b60008381526006602052604090205460ff1615610f80576040516330a70c2d60e11b8152600481018490526024016107e3565b81600003610fa15760405163b4983d9960e01b815260040160405180910390fd5b600083815260036020818152604080842080548251608081018452338152808501898152818501888152606083018981528c8a526001808952878b20868c528952968a20935184546001600160a01b0319166001600160a01b03909116178455915195830195909555935160028201559251928501805460ff191693151593909317909255878552929091528154909290919061103d83612428565b909155505060008481526005602052604081208054859290611060908490612481565b9091555050604080518581526020810185905233917f3d4436d553336892c92b8e854d102f0a3c1b1d60968acc1d262ed8bc6072706c910160405180910390a250505050565b600082815260026020526040812054606091805b8281101561110c576000868152602081815260408083208484529091529020546001600160a01b038087169116036110fa57816110f681612428565b9250505b8061110481612428565b9150506110ba565b5060008167ffffffffffffffff8111156111285761112861223b565b60405190808252806020026020018201604052801561117a57816020015b6040805160808101825260008082526020808301829052928201819052606082015282526000199092019101816111465790505b5090506000915060005b838110156107ad576000878152602081815260408083208484529091529020546001600160a01b0380881691160361123957600087815260208181526040808320848452825291829020825160808101845281546001600160a01b0316815260018201549281019290925260028101549282019290925260039091015460ff1615156060820152825183908590811061121f5761121f612441565b6020026020010181905250828061123590612428565b9350505b8061124381612428565b915050611184565b6000818152600360205260408120546060918167ffffffffffffffff8111156112765761127661223b565b6040519080825280602002602001820160405280156112c857816020015b6040805160808101825260008082526020808301829052928201819052606082015282526000199092019101816112945790505b50905060005b8281101561135e576000858152600160208181526040808420858552825292839020835160808101855281546001600160a01b03168152928101549183019190915260028101549282019290925260039091015460ff1615156060820152825183908390811061134057611340612441565b6020026020010181905250808061135690612428565b9150506112ce565b509392505050565b7ff0c57e16840df040f15088dc2f81fe391c3923bec73e23a9662efc9c229c6a008054600160401b810460ff16159067ffffffffffffffff166000811580156113ac5750825b905060008267ffffffffffffffff1660011480156113c95750303b155b9050811580156113d7575080155b156113f55760405163f92ee8a960e01b815260040160405180910390fd5b845467ffffffffffffffff19166001178555831561141f57845460ff60401b1916600160401b1785555b61142886611ef5565b611430611f06565b831561147257845460ff60401b19168555604051600181527fc7f505b2f371ae2175ee4913f4499e1f2633a7b5936321eed1cdaeb6115181d290602001610da8565b505050505050565b6000818152600260205260408120546060918167ffffffffffffffff8111156114a5576114a561223b565b6040519080825280602002602001820160405280156114f757816020015b6040805160808101825260008082526020808301829052928201819052606082015282526000199092019101816114c35790505b50905060005b8281101561135e57600085815260208181526040808320848452825291829020825160808101845281546001600160a01b0316815260018201549281019290925260028101549282019290925260039091015460ff1615156060820152825183908390811061156e5761156e612441565b6020026020010181905250808061158490612428565b9150506114fd565b611594611e29565b6001600160a01b0381166115be57604051631e4fbdf760e01b8152600060048201526024016107e3565b6115c781611e84565b50565b826115d7610e108261246d565b156115f8576040516305186e1960e31b8152600481018290526024016107e3565b42841161161b576040516305186e1960e31b8152600481018590526024016107e3565b64e8d4a5100082101561164f57604051630100bf8960e31b81526004810183905264e8d4a5100060248201526044016107e3565b60008481526006602052604090205460ff1615611682576040516330a70c2d60e11b8152600481018590526024016107e3565b6000848152600260208181526040808420805482516080810184523381528085018a81528185018a8152606083018981528d8a52898852868a20858b528852958920925183546001600160a01b0319166001600160a01b0390911617835590516001830155518187015592516003909301805460ff191693151593909317909255888552929091528154909290919061171a83612428565b9091555050604080518681526020810186905290810184905233907fb46d776cdb48d081a0c7d3ff32dc2792e4e8fbce788723207515723628020d329060600160405180910390a25050505050565b600081815260026020526040812054908167ffffffffffffffff8111156117925761179261223b565b6040519080825280602002602001820160405280156117bb578160200160208202803683370190505b50905060005b828110156117f957808282815181106117dc576117dc612441565b6020908102919091010152806117f181612428565b9150506117c1565b5060015b815181101561196057600082828151811061181a5761181a612441565b60209081029190910181015160008781528083526040808220838352845290819020815160808101835281546001600160a01b031681526001820154948101949094526002810154918401919091526003015460ff16151560608301529150825b6000811180156118d35750604080830151600089815260208190529182209091876118a7600186612494565b815181106118b7576118b7612441565b6020026020010151815260200190815260200160002060020154105b1561192b57846118e4600183612494565b815181106118f4576118f4612441565b602002602001015185828151811061190e5761190e612441565b602090810291909101015280611923816124d2565b91505061187b565b8285828151811061193e5761193e612441565b602002602001018181525050505050808061195890612428565b9150506117fd565b5060005b8151811015610eca578082828151811061198057611980612441565b602002602001015114611b7657600084815260208181526040808320848452808352818420825160808101845281546001600160a01b031681526001820154818601526002820154938101939093526003015460ff16151560608301528784529183905284519092908590859081106119fb576119fb612441565b60209081029190910181015182528181019290925260409081016000908120888252818452828220868352808552928220815481546001600160a01b0319166001600160a01b0390911617815560018083015490820155600280830154908201556003918201549101805460ff909216151560ff19909216919091179055878152918290528451839290869086908110611a9757611a97612441565b60209081029190910181015182528181019290925260409081016000908120845181546001600160a01b0319166001600160a01b039091161781559284015160018401559083015160028301556060909201516003909101805460ff19169115159190911790558351849084908110611b1257611b12612441565b60200260200101519050838181518110611b2e57611b2e612441565b6020026020010151848481518110611b4857611b48612441565b60200260200101818152505080848281518110611b6757611b67612441565b60200260200101818152505050505b80611b8081612428565b915050611964565b60008181526002602090815260408083205460059092528220548290815b83811015611c3a57600086815260208181526040808320848452909152902060010154611bd39084612481565b925081831115611c285780600003611bf15750600095945050505050565b600086815260208190526040812090611c0b600184612494565b815260200190815260200160002060020154945050505050919050565b80611c3281612428565b915050611ba6565b50600085815260208190526040812090611c55600186612494565b8152602001908152602001600020600201549350505050919050565b306001600160a01b037f0000000000000000000000000000000000000000000000000000000000000000161480611cf857507f00000000000000000000000000000000000000000000000000000000000000006001600160a01b0316611cec60008051602061251f833981519152546001600160a01b031690565b6001600160a01b031614155b15610ee25760405163703e46dd60e11b815260040160405180910390fd5b6115c7611e29565b816001600160a01b03166352d1902d6040518163ffffffff1660e01b8152600401602060405180830381865afa925050508015611d78575060408051601f3d908101601f19168201909252611d75918101906124e9565b60015b611da057604051634c9c8ce360e01b81526001600160a01b03831660048201526024016107e3565b60008051602061251f8339815191528114611dd157604051632a87526960e21b8152600481018290526024016107e3565b611ddb8383611f0e565b505050565b306001600160a01b037f00000000000000000000000000000000000000000000000000000000000000001614610ee25760405163703e46dd60e11b815260040160405180910390fd5b33611e5b7f9016d09d72d40fdae2fd8ceac6b6234c7706214fd39c1cd1e609a0528c199300546001600160a01b031690565b6001600160a01b031614610ee25760405163118cdaa760e01b81523360048201526024016107e3565b7f9016d09d72d40fdae2fd8ceac6b6234c7706214fd39c1cd1e609a0528c19930080546001600160a01b031981166001600160a01b03848116918217845560405192169182907f8be0079c531659141344cd1fd0a4f28419497f9722a3daafe3b4186f6b6457e090600090a3505050565b611efd611f64565b6115c781611fad565b610ee2611f64565b611f1782611fb5565b6040516001600160a01b038316907fbc7cd75a20ee27fd9adebab32041f755214dbc6bffa90cc0225b39da2e5c2d3b90600090a2805115611f5c57611ddb828261201a565b610e26612090565b7ff0c57e16840df040f15088dc2f81fe391c3923bec73e23a9662efc9c229c6a0054600160401b900460ff16610ee257604051631afcd79f60e31b815260040160405180910390fd5b611594611f64565b806001600160a01b03163b600003611feb57604051634c9c8ce360e01b81526001600160a01b03821660048201526024016107e3565b60008051602061251f83398151915280546001600160a01b0319166001600160a01b0392909216919091179055565b6060600080846001600160a01b0316846040516120379190612502565b600060405180830381855af49150503d8060008114612072576040519150601f19603f3d011682016040523d82523d6000602084013e612077565b606091505b50915091506120878583836120af565b95945050505050565b3415610ee25760405163b398979f60e01b815260040160405180910390fd5b6060826120c4576120bf8261210e565b612107565b81511580156120db57506001600160a01b0384163b155b1561210457604051639996b31560e01b81526001600160a01b03851660048201526024016107e3565b50805b9392505050565b80511561211e5780518082602001fd5b604051630a12f52160e11b815260040160405180910390fd5b80356001600160a01b038116811461214e57600080fd5b919050565b6000806040838503121561216657600080fd5b8235915061217660208401612137565b90509250929050565b6020808252825182820181905260009190848201906040850190845b818110156121ea576121d783855180516001600160a01b0316825260208082015190830152604080820151908301526060908101511515910152565b928401926080929092019160010161219b565b50909695505050505050565b60008060006060848603121561220b57600080fd5b505081359360208301359350604090920135919050565b60006020828403121561223457600080fd5b5035919050565b634e487b7160e01b600052604160045260246000fd5b6000806040838503121561226457600080fd5b61226d83612137565b9150602083013567ffffffffffffffff8082111561228a57600080fd5b818501915085601f83011261229e57600080fd5b8135818111156122b0576122b061223b565b604051601f8201601f19908116603f011681019083821181831017156122d8576122d861223b565b816040528281528860208487010111156122f157600080fd5b8260208601602083013760006020848301015280955050505050509250929050565b6000806040838503121561232657600080fd5b50508035926020909101359150565b60006020828403121561234757600080fd5b61210782612137565b6020808252825182820181905260009190848201906040850190845b818110156121ea576123a883855180516001600160a01b0316825260208082015190830152604080820151908301526060908101511515910152565b928401926080929092019160010161236c565b60005b838110156123d65781810151838201526020016123be565b50506000910152565b60208152600082518060208401526123fe8160408501602087016123bb565b601f01601f19169190910160400192915050565b634e487b7160e01b600052601160045260246000fd5b60006001820161243a5761243a612412565b5060010190565b634e487b7160e01b600052603260045260246000fd5b634e487b7160e01b600052601260045260246000fd5b60008261247c5761247c612457565b500690565b808201808211156107b3576107b3612412565b818103818111156107b3576107b3612412565b80820281158282048414176107b3576107b3612412565b6000826124cd576124cd612457565b500490565b6000816124e1576124e1612412565b506000190190565b6000602082840312156124fb57600080fd5b5051919050565b600082516125148184602087016123bb565b919091019291505056fe360894a13ba1a3210667c828492db98dca3e2076cc3735a920a3ca505d382bbca2646970667358221220df69e81ed790384f5701146ec5ee41d32ac85fe64ddde47c8360e3f046c08a3264736f6c63430008150033","linkReferences":{}},"methodIdentifiers":{"MIN_PRICE()":"ad9f20a6","UPGRADE_INTERFACE_VERSION()":"ad3cb1cc","asksByHour(uint256,uint256)":"7ebb29e0","balanceOf(address)":"70a08231","bidsByHour(uint256,uint256)":"a5f74cba","claimBalance()":"30509bca","claimableBalance(address)":"60f3309b","clearMarket(uint256)":"2714f322","clearingPricePerHour(uint256)":"cc253ed2","getAsksByAddress(uint256,address)":"12f3a69c","getAsksByHour(uint256)":"97e33ea4","getBidsByAddress(uint256,address)":"8672cf58","getBidsByHour(uint256)":"d94c32af","getClearingPrice(uint256)":"1b543623","initialize(address)":"c4d66de8","isMarketCleared(uint256)":"fe4d7324","owner()":"8da5cb5b","placeAsk(uint256,uint256)":"75a8b702","placeBid(uint256,uint256)":"57c90de5","placeMultipleBids(uint256,uint256,uint256)":"13bc9f66","proxiableUUID()":"52d1902d","renounceOwnership()":"715018a6","totalAsksByHour(uint256)":"213acfd8","totalBidsByHour(uint256)":"94578ac6","transferOwnership(address)":"f2fde38b","upgradeToAndCall(address,bytes)":"4f1ef286"},"storageLayout":{"storage":[{"astId":48602,"contract":"src/EnergyBiddingMarket.sol:EnergyBiddingMarket","label":"bidsByHour","offset":0,"slot":"0","type":"t_mapping(t_uint256,t_mapping(t_uint256,t_struct(Bid)48583_storage))"},{"astId":48609,"contract":"src/EnergyBiddingMarket.sol:EnergyBiddingMarket","label":"asksByHour","offset":0,"slot":"1","type":"t_mapping(t_uint256,t_mapping(t_uint256,t_struct(Ask)48592_storage))"},{"astId":48613,"contract":"src/EnergyBiddingMarket.sol:EnergyBiddingMarket","label":"totalBidsByHour","offset":0,"slot":"2","type":"t_mapping(t_uint256,t_uint256)"},{"astId":48617,"contract":"src/EnergyBiddingMarket.sol:EnergyBiddingMarket","label":"totalAsksByHour","offset":0,"slot":"3","type":"t_mapping(t_uint256,t_uint256)"},{"astId":48621,"contract":"src/EnergyBiddingMarket.sol:EnergyBiddingMarket","label":"clearingPricePerHour","offset":0,"slot":"4","type":"t_mapping(t_uint256,t_uint256)"},{"astId":48625,"contract":"src/EnergyBiddingMarket.sol:EnergyBiddingMarket","label":"totalAvailableEnergyByHour","offset":0,"slot":"5","type":"t_mapping(t_uint256,t_uint256)"},{"astId":48629,"contract":"src/EnergyBiddingMarket.sol:EnergyBiddingMarket","label":"isMarketCleared","offset":0,"slot":"6","type":"t_mapping(t_uint256,t_bool)"},{"astId":48633,"contract":"src/EnergyBiddingMarket.sol:EnergyBiddingMarket","label":"claimableBalance","offset":0,"slot":"7","type":"t_mapping(t_address,t_uint256)"}],"types":{"t_address":{"encoding":"inplace","label":"address","numberOfBytes":"20"},"t_bool":{"encoding":"inplace","label":"bool","numberOfBytes":"1"},"t_mapping(t_address,t_uint256)":{"encoding":"mapping","key":"t_address","label":"mapping(address => uint256)","numberOfBytes":"32","value":"t_uint256"},"t_mapping(t_uint256,t_bool)":{"encoding":"mapping","key":"t_uint256","label":"mapping(uint256 => bool)","numberOfBytes":"32","value":"t_bool"},"t_mapping(t_uint256,t_mapping(t_uint256,t_struct(Ask)48592_storage))":{"encoding":"mapping","key":"t_uint256","label":"mapping(uint256 => mapping(uint256 => struct EnergyBiddingMarket.Ask))","numberOfBytes":"32","value":"t_mapping(t_uint256,t_struct(Ask)48592_storage)"},"t_mapping(t_uint256,t_mapping(t_uint256,t_struct(Bid)48583_storage))":{"encoding":"mapping","key":"t_uint256","label":"mapping(uint256 => mapping(uint256 => struct EnergyBiddingMarket.Bid))","numberOfBytes":"32","value":"t_mapping(t_uint256,t_struct(Bid)48583_storage)"},"t_mapping(t_uint256,t_struct(Ask)48592_storage)":{"encoding":"mapping","key":"t_uint256","label":"mapping(uint256 => struct EnergyBiddingMarket.Ask)","numberOfBytes":"32","value":"t_struct(Ask)48592_storage"},"t_mapping(t_uint256,t_struct(Bid)48583_storage)":{"encoding":"mapping","key":"t_uint256","label":"mapping(uint256 => struct EnergyBiddingMarket.Bid)","numberOfBytes":"32","value":"t_struct(Bid)48583_storage"},"t_mapping(t_uint256,t_uint256)":{"encoding":"mapping","key":"t_uint256","label":"mapping(uint256 => uint256)","numberOfBytes":"32","value":"t_uint256"},"t_struct(Ask)48592_storage":{"encoding":"inplace","label":"struct EnergyBiddingMarket.Ask","numberOfBytes":"128","members":[{"astId":48585,"contract":"src/EnergyBiddingMarket.sol:EnergyBiddingMarket","label":"seller","offset":0,"slot":"0","type":"t_address"},{"astId":48587,"contract":"src/EnergyBiddingMarket.sol:EnergyBiddingMarket","label":"amount","offset":0,"slot":"1","type":"t_uint256"},{"astId":48589,"contract":"src/EnergyBiddingMarket.sol:EnergyBiddingMarket","label":"matchedAmount","offset":0,"slot":"2","type":"t_uint256"},{"astId":48591,"contract":"src/EnergyBiddingMarket.sol:EnergyBiddingMarket","label":"settled","offset":0,"slot":"3","type":"t_bool"}]},"t_struct(Bid)48583_storage":{"encoding":"inplace","label":"struct EnergyBiddingMarket.Bid","numberOfBytes":"128","members":[{"astId":48576,"contract":"src/EnergyBiddingMarket.sol:EnergyBiddingMarket","label":"bidder","offset":0,"slot":"0","type":"t_address"},{"astId":48578,"contract":"src/EnergyBiddingMarket.sol:EnergyBiddingMarket","label":"amount","offset":0,"slot":"1","type":"t_uint256"},{"astId":48580,"contract":"src/EnergyBiddingMarket.sol:EnergyBiddingMarket","label":"price","offset":0,"slot":"2","type":"t_uint256"},{"astId":48582,"contract":"src/EnergyBiddingMarket.sol:EnergyBiddingMarket","label":"settled","offset":0,"slot":"3","type":"t_bool"}]},"t_uint256":{"encoding":"inplace","label":"uint256","numberOfBytes":"32"}}},"id":58}