{"abi":[{"type":"constructor","inputs":[{"name":"_eurcTokenAddress","type":"address","internalType":"address"}],"stateMutability":"nonpayable"},{"type":"function","name":"EURC","inputs":[],"outputs":[{"name":"","type":"address","internalType":"contract IERC20"}],"stateMutability":"view"},{"type":"function","name":"MIN_PRICE","inputs":[],"outputs":[{"name":"","type":"uint256","internalType":"uint256"}],"stateMutability":"view"},{"type":"function","name":"PRICE_DECIMALS","inputs":[],"outputs":[{"name":"","type":"uint8","internalType":"uint8"}],"stateMutability":"view"},{"type":"function","name":"asksByHour","inputs":[{"name":"","type":"uint256","internalType":"uint256"},{"name":"","type":"uint256","internalType":"uint256"}],"outputs":[{"name":"seller","type":"address","internalType":"address"},{"name":"amount","type":"uint256","internalType":"uint256"},{"name":"matchedAmount","type":"uint256","internalType":"uint256"},{"name":"settled","type":"bool","internalType":"bool"}],"stateMutability":"view"},{"type":"function","name":"balanceOf","inputs":[{"name":"user","type":"address","internalType":"address"}],"outputs":[{"name":"","type":"uint256","internalType":"uint256"}],"stateMutability":"view"},{"type":"function","name":"bidsByHour","inputs":[{"name":"","type":"uint256","internalType":"uint256"},{"name":"","type":"uint256","internalType":"uint256"}],"outputs":[{"name":"bidder","type":"address","internalType":"address"},{"name":"amount","type":"uint256","internalType":"uint256"},{"name":"price","type":"uint256","internalType":"uint256"},{"name":"settled","type":"bool","internalType":"bool"}],"stateMutability":"view"},{"type":"function","name":"claimBalance","inputs":[],"outputs":[],"stateMutability":"nonpayable"},{"type":"function","name":"claimableBalance","inputs":[{"name":"","type":"address","internalType":"address"}],"outputs":[{"name":"","type":"uint256","internalType":"uint256"}],"stateMutability":"view"},{"type":"function","name":"clearMarket","inputs":[{"name":"hour","type":"uint256","internalType":"uint256"}],"outputs":[],"stateMutability":"nonpayable"},{"type":"function","name":"isMarketCleared","inputs":[{"name":"","type":"uint256","internalType":"uint256"}],"outputs":[{"name":"","type":"bool","internalType":"bool"}],"stateMutability":"view"},{"type":"function","name":"placeAsk","inputs":[{"name":"hour","type":"uint256","internalType":"uint256"},{"name":"amount","type":"uint256","internalType":"uint256"}],"outputs":[],"stateMutability":"nonpayable"},{"type":"function","name":"placeBid","inputs":[{"name":"hour","type":"uint256","internalType":"uint256"},{"name":"amount","type":"uint256","internalType":"uint256"},{"name":"price","type":"uint256","internalType":"uint256"}],"outputs":[],"stateMutability":"nonpayable"},{"type":"event","name":"AskFulfilled","inputs":[{"name":"hour","type":"uint256","indexed":true,"internalType":"uint256"},{"name":"seller","type":"address","indexed":true,"internalType":"address"},{"name":"id","type":"uint256","indexed":true,"internalType":"uint256"},{"name":"amount","type":"uint256","indexed":false,"internalType":"uint256"},{"name":"price","type":"uint256","indexed":false,"internalType":"uint256"}],"anonymous":false},{"type":"event","name":"AskPartiallyFulfilled","inputs":[{"name":"hour","type":"uint256","indexed":true,"internalType":"uint256"},{"name":"seller","type":"address","indexed":true,"internalType":"address"},{"name":"id","type":"uint256","indexed":true,"internalType":"uint256"},{"name":"amount","type":"uint256","indexed":false,"internalType":"uint256"},{"name":"price","type":"uint256","indexed":false,"internalType":"uint256"}],"anonymous":false},{"type":"event","name":"AskPlaced","inputs":[{"name":"seller","type":"address","indexed":true,"internalType":"address"},{"name":"hour","type":"uint256","indexed":false,"internalType":"uint256"},{"name":"amount","type":"uint256","indexed":false,"internalType":"uint256"}],"anonymous":false},{"type":"event","name":"BidFulfilled","inputs":[{"name":"hour","type":"uint256","indexed":true,"internalType":"uint256"},{"name":"id","type":"uint256","indexed":true,"internalType":"uint256"},{"name":"bidder","type":"address","indexed":true,"internalType":"address"},{"name":"amount","type":"uint256","indexed":false,"internalType":"uint256"},{"name":"price","type":"uint256","indexed":false,"internalType":"uint256"}],"anonymous":false},{"type":"event","name":"BidPlaced","inputs":[{"name":"bidder","type":"address","indexed":true,"internalType":"address"},{"name":"hour","type":"uint256","indexed":false,"internalType":"uint256"},{"name":"amount","type":"uint256","indexed":false,"internalType":"uint256"},{"name":"price","type":"uint256","indexed":false,"internalType":"uint256"}],"anonymous":false},{"type":"event","name":"MarketCleared","inputs":[{"name":"hour","type":"uint256","indexed":false,"internalType":"uint256"},{"name":"clearingPrice","type":"uint256","indexed":false,"internalType":"uint256"}],"anonymous":false},{"type":"event","name":"SettlementDone","inputs":[{"name":"hour","type":"uint256","indexed":false,"internalType":"uint256"},{"name":"user","type":"address","indexed":false,"internalType":"address"},{"name":"amount","type":"uint256","indexed":false,"internalType":"uint256"},{"name":"isBid","type":"bool","indexed":false,"internalType":"bool"}],"anonymous":false},{"type":"error","name":"AddressEmptyCode","inputs":[{"name":"target","type":"address","internalType":"address"}]},{"type":"error","name":"AddressInsufficientBalance","inputs":[{"name":"account","type":"address","internalType":"address"}]},{"type":"error","name":"EnergyBiddingMarket__AmountCannotBeZero","inputs":[]},{"type":"error","name":"EnergyBiddingMarket__BidMinimumPriceNotMet","inputs":[{"name":"price","type":"uint256","internalType":"uint256"},{"name":"minimumPrice","type":"uint256","internalType":"uint256"}]},{"type":"error","name":"EnergyBiddingMarket__MarketAlreadyClearedForThisHour","inputs":[{"name":"hour","type":"uint256","internalType":"uint256"}]},{"type":"error","name":"EnergyBiddingMarket__NoBidFulfilled","inputs":[{"name":"hour","type":"uint256","internalType":"uint256"}]},{"type":"error","name":"EnergyBiddingMarket__NoBidsOrAsksForThisHour","inputs":[{"name":"hour","type":"uint256","internalType":"uint256"}]},{"type":"error","name":"EnergyBiddingMarket__NoClaimableBalance","inputs":[{"name":"user","type":"address","internalType":"address"}]},{"type":"error","name":"EnergyBiddingMarket__WrongHourProvided","inputs":[{"name":"hour","type":"uint256","internalType":"uint256"}]},{"type":"error","name":"FailedInnerCall","inputs":[]},{"type":"error","name":"SafeERC20FailedOperation","inputs":[{"name":"token","type":"address","internalType":"address"}]}],"bytecode":{"object":"0x608060405234801561001057600080fd5b5060405161126338038061126383398101604081905261002f91610054565b600080546001600160a01b0319166001600160a01b0392909216919091179055610084565b60006020828403121561006657600080fd5b81516001600160a01b038116811461007d57600080fd5b9392505050565b6111d0806100936000396000f3fe608060405234801561001057600080fd5b50600436106100b45760003560e01c80637ebb29e0116100715780637ebb29e014610158578063a5f74cba14610197578063aabfa37d146101aa578063ad9f20a6146101d5578063f1a640f8146101de578063fe4d7324146101f857600080fd5b80632714f322146100b957806330509bca146100ce5780635e62be25146100d657806360f3309b146100e957806370a082311461011c57806375a8b70214610145575b600080fd5b6100cc6100c7366004610ffe565b61022b565b005b6100cc610655565b6100cc6100e4366004611017565b6106b4565b6101096100f7366004611043565b60056020526000908152604090205481565b6040519081526020015b60405180910390f35b61010961012a366004611043565b6001600160a01b031660009081526005602052604090205490565b6100cc61015336600461106c565b610861565b61016b61016636600461106c565b6109d7565b604080516001600160a01b03909516855260208501939093529183015215156060820152608001610113565b61016b6101a536600461106c565b610a2a565b6000546101bd906001600160a01b031681565b6040516001600160a01b039091168152602001610113565b61010961271081565b6101e6600681565b60405160ff9091168152602001610113565b61021b610206366004610ffe565b60046020526000908152604090205460ff1681565b6040519015158152602001610113565b60008181526001602052604090205415806102525750600081815260026020526040902054155b1561027857604051630df2bda760e31b8152600481018290526024015b60405180910390fd5b60008181526004602052604090205460ff16156102ab576040516330a70c2d60e11b81526004810182905260240161026f565b60008181526001602052604090206102c281610a46565b60006102cd83610c3e565b90506000805b83548110156105f25760008482815481106102f0576102f061108e565b90600052602060002090600402019050838160020154101561031257506105f2565b6000835b60008881526002602052604090205481101561053057600088815260026020526040812080548390811061034c5761034c61108e565b9060005260206000209060040201905060008160020154826001015461037291906110ba565b600186015490915061038482866110cd565b116104545760038201805460ff1916600190811790915582015460028301556103ad81856110cd565b93506103b988826110e0565b82546001600160a01b0316600090815260056020526040812080549091906103e29084906110cd565b9091555050815460408051838152602081018b905285926001600160a01b0316918d917fbeeb0e068b38584599ecdad61d683ab506f0715af81d0c38f7159a5d16a7b9b5910160405180910390a48661043a816110f7565b9750508460010154840361044f575050610530565b61051b565b83856001015461046491906110ba565b82600201600082825461047791906110cd565b90915550506001850154889061048e9086906110ba565b61049891906110e0565b82546001600160a01b0316600090815260056020526040812080549091906104c19084906110cd565b90915550508154600183015460408051918252602082018b905285926001600160a01b0316918d917fd9ad2e163200cd40563fd17099f6e140b91a088ee6af02a2a4ccd35ae136105c910160405180910390a45050610530565b50508080610528906110f7565b915050610316565b5060038201805460ff1916600117905560028201546105509086906110ba565b826001015461055f91906110e0565b82546001600160a01b0316600090815260056020526040812080549091906105889084906110cd565b90915550508154600183015460408051918252602082018890526001600160a01b039092169185918a917fd99f82a7ae313af230ab5df0770c9b0f04e4fbb630e685f3a3566ad44b97ef0b910160405180910390a4505080806105ea906110f7565b9150506102d3565b5060008481526004602052604090819020805460ff19166001179055517f515dc8352afddcfc4899a638cc6fcb94e434e2c1e703a124ebee89b6c454146e906106479086908590918252602082015260400190565b60405180910390a150505050565b33600090815260056020526040812054908190036106885760405163af9d8c8560e01b815233600482015260240161026f565b336000818152600560205260408120819055546106b1916001600160a01b039091169083610dbd565b50565b6106c0610e1084611110565b1515806106cd5750428311155b156106ee576040516305186e1960e31b81526004810184905260240161026f565b61271081101561071c57604051630100bf8960e31b815260048101829052612710602482015260440161026f565b8160000361073d5760405163b4983d9960e01b815260040160405180910390fd5b60008381526004602052604090205460ff1615610770576040516330a70c2d60e11b81526004810184905260240161026f565b610793333061077f84866110e0565b6000546001600160a01b0316929190610e21565b600083815260016020818152604080842081516080810183523380825281850189815282850189815260608085018a81528654808b018855968b52998890209451600490960290940180546001600160a01b0319166001600160a01b039096169590951785559051968401969096559451600283015594516003909101805460ff19169115159190911790558051878152918201869052810184905290917fb46d776cdb48d081a0c7d3ff32dc2792e4e8fbce788723207515723628020d32910160405180910390a2505050565b61086d610e1083611110565b15158061087a5750428211155b1561089b576040516305186e1960e31b81526004810183905260240161026f565b60008281526004602052604090205460ff16156108ce576040516330a70c2d60e11b81526004810183905260240161026f565b806000036108ef5760405163b4983d9960e01b815260040160405180910390fd5b6000828152600260208181526040808420815160808101835233815280840187815281840187815260608301888152845460018082018755958a52878a209451600490910290940180546001600160a01b0319166001600160a01b03909516949094178455915193830193909355915194810194909455516003938401805460ff1916911515919091179055858452919052812080548392906109939084906110cd565b9091555050604080518381526020810183905233917f3d4436d553336892c92b8e854d102f0a3c1b1d60968acc1d262ed8bc6072706c910160405180910390a25050565b600260205281600052604060002081815481106109f357600080fd5b600091825260209091206004909102018054600182015460028301546003909301546001600160a01b039092169450925060ff1684565b600160205281600052604060002081815481106109f357600080fd5b60015b8154811015610c3a576000828281548110610a6657610a6661108e565b600091825260209182902060408051608081018252600490930290910180546001600160a01b0316835260018101549383019390935260028301549082015260039091015460ff16151560608201529050815b600081118015610af95750604082015184610ad56001846110ba565b81548110610ae557610ae561108e565b906000526020600020906004020160020154105b15610bac5783610b0a6001836110ba565b81548110610b1a57610b1a61108e565b9060005260206000209060040201848281548110610b3a57610b3a61108e565b60009182526020909120825460049092020180546001600160a01b0319166001600160a01b0390921691909117815560018083015490820155600280830154908201556003918201549101805460ff909216151560ff1990921691909117905580610ba481611132565b915050610ab9565b828114610c255781848281548110610bc657610bc661108e565b600091825260209182902083516004929092020180546001600160a01b0319166001600160a01b03909216919091178155908201516001820155604082015160028201556060909101516003909101805460ff19169115159190911790555b50508080610c32906110f7565b915050610a49565b5050565b600081815260016020908152604080832080548251818502810185019093528083528493849084015b82821015610cc9576000848152602090819020604080516080810182526004860290920180546001600160a01b03168352600180820154848601526002820154928401929092526003015460ff16151560608301529083529092019101610c67565b505050600085815260036020526040812054929350919050815b8351811015610d8757838181518110610cfe57610cfe61108e565b60200260200101516020015183610d1591906110cd565b9250818310610d755780600003610d425760405163f8f3d44160e01b81526004810187905260240161026f565b83610d4e6001836110ba565b81518110610d5e57610d5e61108e565b602002602001015160400151945050505050919050565b80610d7f816110f7565b915050610ce3565b508260018451610d9791906110ba565b81518110610da757610da761108e565b6020026020010151604001519350505050919050565b6040516001600160a01b03838116602483015260448201839052610e1c91859182169063a9059cbb906064015b604051602081830303815290604052915060e01b6020820180516001600160e01b038381831617835250505050610e60565b505050565b6040516001600160a01b038481166024830152838116604483015260648201839052610e5a9186918216906323b872dd90608401610dea565b50505050565b6000610e756001600160a01b03841683610ec3565b90508051600014158015610e9a575080806020019051810190610e989190611149565b155b15610e1c57604051635274afe760e01b81526001600160a01b038416600482015260240161026f565b6060610ed183836000610eda565b90505b92915050565b606081471015610eff5760405163cd78605960e01b815230600482015260240161026f565b600080856001600160a01b03168486604051610f1b919061116b565b60006040518083038185875af1925050503d8060008114610f58576040519150601f19603f3d011682016040523d82523d6000602084013e610f5d565b606091505b5091509150610f6d868383610f79565b925050505b9392505050565b606082610f8e57610f8982610fd5565b610f72565b8151158015610fa557506001600160a01b0384163b155b15610fce57604051639996b31560e01b81526001600160a01b038516600482015260240161026f565b5080610f72565b805115610fe55780518082602001fd5b604051630a12f52160e11b815260040160405180910390fd5b60006020828403121561101057600080fd5b5035919050565b60008060006060848603121561102c57600080fd5b505081359360208301359350604090920135919050565b60006020828403121561105557600080fd5b81356001600160a01b0381168114610f7257600080fd5b6000806040838503121561107f57600080fd5b50508035926020909101359150565b634e487b7160e01b600052603260045260246000fd5b634e487b7160e01b600052601160045260246000fd5b81810381811115610ed457610ed46110a4565b80820180821115610ed457610ed46110a4565b8082028115828204841417610ed457610ed46110a4565b600060018201611109576111096110a4565b5060010190565b60008261112d57634e487b7160e01b600052601260045260246000fd5b500690565b600081611141576111416110a4565b506000190190565b60006020828403121561115b57600080fd5b81518015158114610f7257600080fd5b6000825160005b8181101561118c5760208186018101518583015201611172565b50600092019182525091905056fea2646970667358221220a31722e7b951d77702a837032b2f1ca259fa174d2583c9f02e4c35fd916683f764736f6c63430008150033","linkReferences":{}},"methodIdentifiers":{"EURC()":"aabfa37d","MIN_PRICE()":"ad9f20a6","PRICE_DECIMALS()":"f1a640f8","asksByHour(uint256,uint256)":"7ebb29e0","balanceOf(address)":"70a08231","bidsByHour(uint256,uint256)":"a5f74cba","claimBalance()":"30509bca","claimableBalance(address)":"60f3309b","clearMarket(uint256)":"2714f322","isMarketCleared(uint256)":"fe4d7324","placeAsk(uint256,uint256)":"75a8b702","placeBid(uint256,uint256,uint256)":"5e62be25"},"id":30}