{"abi":[{"type":"function","name":"MIN_PRICE","inputs":[],"outputs":[{"name":"","type":"uint256","internalType":"uint256"}],"stateMutability":"view"},{"type":"function","name":"UPGRADE_INTERFACE_VERSION","inputs":[],"outputs":[{"name":"","type":"string","internalType":"string"}],"stateMutability":"view"},{"type":"function","name":"asksByHour","inputs":[{"name":"","type":"uint256","internalType":"uint256"},{"name":"","type":"uint256","internalType":"uint256"}],"outputs":[{"name":"seller","type":"address","internalType":"address"},{"name":"amount","type":"uint256","internalType":"uint256"},{"name":"matchedAmount","type":"uint256","internalType":"uint256"},{"name":"settled","type":"bool","internalType":"bool"}],"stateMutability":"view"},{"type":"function","name":"balanceOf","inputs":[{"name":"user","type":"address","internalType":"address"}],"outputs":[{"name":"","type":"uint256","internalType":"uint256"}],"stateMutability":"view"},{"type":"function","name":"bidsByHour","inputs":[{"name":"","type":"uint256","internalType":"uint256"},{"name":"","type":"uint256","internalType":"uint256"}],"outputs":[{"name":"bidder","type":"address","internalType":"address"},{"name":"amount","type":"uint256","internalType":"uint256"},{"name":"price","type":"uint256","internalType":"uint256"},{"name":"settled","type":"bool","internalType":"bool"}],"stateMutability":"view"},{"type":"function","name":"claimBalance","inputs":[],"outputs":[],"stateMutability":"nonpayable"},{"type":"function","name":"claimableBalance","inputs":[{"name":"","type":"address","internalType":"address"}],"outputs":[{"name":"","type":"uint256","internalType":"uint256"}],"stateMutability":"view"},{"type":"function","name":"clearMarket","inputs":[{"name":"hour","type":"uint256","internalType":"uint256"}],"outputs":[],"stateMutability":"nonpayable"},{"type":"function","name":"clearingPricePerHour","inputs":[{"name":"","type":"uint256","internalType":"uint256"}],"outputs":[{"name":"","type":"uint256","internalType":"uint256"}],"stateMutability":"view"},{"type":"function","name":"getAsksByAddress","inputs":[{"name":"hour","type":"uint256","internalType":"uint256"},{"name":"user","type":"address","internalType":"address"}],"outputs":[{"name":"","type":"tuple[]","internalType":"struct EnergyBiddingMarket.Ask[]","components":[{"name":"seller","type":"address","internalType":"address"},{"name":"amount","type":"uint256","internalType":"uint256"},{"name":"matchedAmount","type":"uint256","internalType":"uint256"},{"name":"settled","type":"bool","internalType":"bool"}]}],"stateMutability":"view"},{"type":"function","name":"getAsksByHour","inputs":[{"name":"hour","type":"uint256","internalType":"uint256"}],"outputs":[{"name":"","type":"tuple[]","internalType":"struct EnergyBiddingMarket.Ask[]","components":[{"name":"seller","type":"address","internalType":"address"},{"name":"amount","type":"uint256","internalType":"uint256"},{"name":"matchedAmount","type":"uint256","internalType":"uint256"},{"name":"settled","type":"bool","internalType":"bool"}]}],"stateMutability":"view"},{"type":"function","name":"getBidsByAddress","inputs":[{"name":"hour","type":"uint256","internalType":"uint256"},{"name":"user","type":"address","internalType":"address"}],"outputs":[{"name":"","type":"tuple[]","internalType":"struct EnergyBiddingMarket.Bid[]","components":[{"name":"bidder","type":"address","internalType":"address"},{"name":"amount","type":"uint256","internalType":"uint256"},{"name":"price","type":"uint256","internalType":"uint256"},{"name":"settled","type":"bool","internalType":"bool"}]}],"stateMutability":"view"},{"type":"function","name":"getBidsByHour","inputs":[{"name":"hour","type":"uint256","internalType":"uint256"}],"outputs":[{"name":"","type":"tuple[]","internalType":"struct EnergyBiddingMarket.Bid[]","components":[{"name":"bidder","type":"address","internalType":"address"},{"name":"amount","type":"uint256","internalType":"uint256"},{"name":"price","type":"uint256","internalType":"uint256"},{"name":"settled","type":"bool","internalType":"bool"}]}],"stateMutability":"view"},{"type":"function","name":"getClearingPrice","inputs":[{"name":"hour","type":"uint256","internalType":"uint256"}],"outputs":[{"name":"","type":"uint256","internalType":"uint256"}],"stateMutability":"view"},{"type":"function","name":"initialize","inputs":[{"name":"owner","type":"address","internalType":"address"}],"outputs":[],"stateMutability":"nonpayable"},{"type":"function","name":"isMarketCleared","inputs":[{"name":"","type":"uint256","internalType":"uint256"}],"outputs":[{"name":"","type":"bool","internalType":"bool"}],"stateMutability":"view"},{"type":"function","name":"owner","inputs":[],"outputs":[{"name":"","type":"address","internalType":"address"}],"stateMutability":"view"},{"type":"function","name":"placeAsk","inputs":[{"name":"hour","type":"uint256","internalType":"uint256"},{"name":"amount","type":"uint256","internalType":"uint256"}],"outputs":[],"stateMutability":"nonpayable"},{"type":"function","name":"placeBid","inputs":[{"name":"hour","type":"uint256","internalType":"uint256"},{"name":"amount","type":"uint256","internalType":"uint256"}],"outputs":[],"stateMutability":"payable"},{"type":"function","name":"placeMultipleBids","inputs":[{"name":"beginHour","type":"uint256","internalType":"uint256"},{"name":"endHour","type":"uint256","internalType":"uint256"},{"name":"amount","type":"uint256","internalType":"uint256"}],"outputs":[],"stateMutability":"payable"},{"type":"function","name":"placeMultipleBids","inputs":[{"name":"biddingHours","type":"uint256[]","internalType":"uint256[]"},{"name":"amount","type":"uint256","internalType":"uint256"}],"outputs":[],"stateMutability":"payable"},{"type":"function","name":"proxiableUUID","inputs":[],"outputs":[{"name":"","type":"bytes32","internalType":"bytes32"}],"stateMutability":"view"},{"type":"function","name":"renounceOwnership","inputs":[],"outputs":[],"stateMutability":"nonpayable"},{"type":"function","name":"totalAsksByHour","inputs":[{"name":"","type":"uint256","internalType":"uint256"}],"outputs":[{"name":"","type":"uint256","internalType":"uint256"}],"stateMutability":"view"},{"type":"function","name":"totalBidsByHour","inputs":[{"name":"","type":"uint256","internalType":"uint256"}],"outputs":[{"name":"","type":"uint256","internalType":"uint256"}],"stateMutability":"view"},{"type":"function","name":"transferOwnership","inputs":[{"name":"newOwner","type":"address","internalType":"address"}],"outputs":[],"stateMutability":"nonpayable"},{"type":"function","name":"upgradeToAndCall","inputs":[{"name":"newImplementation","type":"address","internalType":"address"},{"name":"data","type":"bytes","internalType":"bytes"}],"outputs":[],"stateMutability":"payable"},{"type":"event","name":"AskFulfilled","inputs":[{"name":"hour","type":"uint256","indexed":true,"internalType":"uint256"},{"name":"seller","type":"address","indexed":true,"internalType":"address"},{"name":"id","type":"uint256","indexed":true,"internalType":"uint256"},{"name":"amount","type":"uint256","indexed":false,"internalType":"uint256"},{"name":"price","type":"uint256","indexed":false,"internalType":"uint256"}],"anonymous":false},{"type":"event","name":"AskPartiallyFulfilled","inputs":[{"name":"hour","type":"uint256","indexed":true,"internalType":"uint256"},{"name":"seller","type":"address","indexed":true,"internalType":"address"},{"name":"id","type":"uint256","indexed":true,"internalType":"uint256"},{"name":"amount","type":"uint256","indexed":false,"internalType":"uint256"},{"name":"price","type":"uint256","indexed":false,"internalType":"uint256"}],"anonymous":false},{"type":"event","name":"AskPlaced","inputs":[{"name":"seller","type":"address","indexed":true,"internalType":"address"},{"name":"hour","type":"uint256","indexed":false,"internalType":"uint256"},{"name":"amount","type":"uint256","indexed":false,"internalType":"uint256"}],"anonymous":false},{"type":"event","name":"BidFulfilled","inputs":[{"name":"hour","type":"uint256","indexed":true,"internalType":"uint256"},{"name":"id","type":"uint256","indexed":true,"internalType":"uint256"},{"name":"bidder","type":"address","indexed":true,"internalType":"address"},{"name":"amount","type":"uint256","indexed":false,"internalType":"uint256"},{"name":"price","type":"uint256","indexed":false,"internalType":"uint256"}],"anonymous":false},{"type":"event","name":"BidPlaced","inputs":[{"name":"bidder","type":"address","indexed":true,"internalType":"address"},{"name":"hour","type":"uint256","indexed":false,"internalType":"uint256"},{"name":"amount","type":"uint256","indexed":false,"internalType":"uint256"},{"name":"price","type":"uint256","indexed":false,"internalType":"uint256"}],"anonymous":false},{"type":"event","name":"Initialized","inputs":[{"name":"version","type":"uint64","indexed":false,"internalType":"uint64"}],"anonymous":false},{"type":"event","name":"MarketCleared","inputs":[{"name":"hour","type":"uint256","indexed":false,"internalType":"uint256"},{"name":"clearingPrice","type":"uint256","indexed":false,"internalType":"uint256"}],"anonymous":false},{"type":"event","name":"OwnershipTransferred","inputs":[{"name":"previousOwner","type":"address","indexed":true,"internalType":"address"},{"name":"newOwner","type":"address","indexed":true,"internalType":"address"}],"anonymous":false},{"type":"event","name":"SettlementDone","inputs":[{"name":"hour","type":"uint256","indexed":false,"internalType":"uint256"},{"name":"user","type":"address","indexed":false,"internalType":"address"},{"name":"amount","type":"uint256","indexed":false,"internalType":"uint256"},{"name":"isBid","type":"bool","indexed":false,"internalType":"bool"}],"anonymous":false},{"type":"event","name":"Upgraded","inputs":[{"name":"implementation","type":"address","indexed":true,"internalType":"address"}],"anonymous":false},{"type":"error","name":"AddressEmptyCode","inputs":[{"name":"target","type":"address","internalType":"address"}]},{"type":"error","name":"ERC1967InvalidImplementation","inputs":[{"name":"implementation","type":"address","internalType":"address"}]},{"type":"error","name":"ERC1967NonPayable","inputs":[]},{"type":"error","name":"EnergyBiddingMarket__AmountCannotBeZero","inputs":[]},{"type":"error","name":"EnergyBiddingMarket__BidMinimumPriceNotMet","inputs":[{"name":"price","type":"uint256","internalType":"uint256"},{"name":"minimumPrice","type":"uint256","internalType":"uint256"}]},{"type":"error","name":"EnergyBiddingMarket__MarketAlreadyClearedForThisHour","inputs":[{"name":"hour","type":"uint256","internalType":"uint256"}]},{"type":"error","name":"EnergyBiddingMarket__NoBidsOrAsksForThisHour","inputs":[{"name":"hour","type":"uint256","internalType":"uint256"}]},{"type":"error","name":"EnergyBiddingMarket__NoClaimableBalance","inputs":[{"name":"user","type":"address","internalType":"address"}]},{"type":"error","name":"EnergyBiddingMarket__WrongHourProvided","inputs":[{"name":"hour","type":"uint256","internalType":"uint256"}]},{"type":"error","name":"EnergyBiddingMarket__WrongHoursProvided","inputs":[{"name":"beginHour","type":"uint256","internalType":"uint256"},{"name":"endHour","type":"uint256","internalType":"uint256"}]},{"type":"error","name":"FailedInnerCall","inputs":[]},{"type":"error","name":"InvalidInitialization","inputs":[]},{"type":"error","name":"NotInitializing","inputs":[]},{"type":"error","name":"OwnableInvalidOwner","inputs":[{"name":"owner","type":"address","internalType":"address"}]},{"type":"error","name":"OwnableUnauthorizedAccount","inputs":[{"name":"account","type":"address","internalType":"address"}]},{"type":"error","name":"UUPSUnauthorizedCallContext","inputs":[]},{"type":"error","name":"UUPSUnsupportedProxiableUUID","inputs":[{"name":"slot","type":"bytes32","internalType":"bytes32"}]}],"bytecode":{"object":"0x60a060405230608052348015601357600080fd5b5060805161266661003d60003960008181611c9a01528181611cc30152611e0901526126666000f3fe60806040526004361061019c5760003560e01c806375a8b702116100ec578063ad3cb1cc1161008a578063cc253ed211610064578063cc253ed214610584578063d94c32af146105b1578063f2fde38b146105d1578063fe4d7324146105f157600080fd5b8063ad3cb1cc1461050d578063ad9f20a61461054b578063c4d66de81461056457600080fd5b80638da5cb5b116100c65780638da5cb5b1461042257806394578ac61461046957806397e33ea414610496578063a5f74cba146104b657600080fd5b806375a8b7021461034f5780637ebb29e01461036f5780638672cf58146103f557600080fd5b80634f1ef28611610159578063604d031511610133578063604d0315146102c457806360f3309b146102d757806370a0823114610304578063715018a61461033a57600080fd5b80634f1ef2861461028957806352d1902d1461029c57806357c90de5146102b157600080fd5b806312f3a69c146101a157806313bc9f66146101d75780631b543623146101ec578063213acfd8146102275780632714f3221461025457806330509bca14610274575b600080fd5b3480156101ad57600080fd5b506101c16101bc366004612171565b610631565b6040516101ce919061219d565b60405180910390f35b6101ea6101e5366004612214565b6107d3565b005b3480156101f857600080fd5b50610219610207366004612240565b60009081526004602052604090205490565b6040519081526020016101ce565b34801561023357600080fd5b50610219610242366004612240565b60036020526000908152604090205481565b34801561026057600080fd5b506101ea61026f366004612240565b6108eb565b34801561028057600080fd5b506101ea610db1565b6101ea6102973660046122a0565b610e23565b3480156102a857600080fd5b50610219610e3e565b6101ea6102bf36600461234b565b610e5b565b6101ea6102d236600461236d565b610ec9565b3480156102e357600080fd5b506102196102f2366004612426565b60076020526000908152604090205481565b34801561031057600080fd5b5061021961031f366004612426565b6001600160a01b031660009081526007602052604090205490565b34801561034657600080fd5b506101ea610f42565b34801561035b57600080fd5b506101ea61036a36600461234b565b610f56565b34801561037b57600080fd5b506103c961038a36600461234b565b6001602081815260009384526040808520909152918352912080549181015460028201546003909201546001600160a01b039093169290919060ff1684565b604080516001600160a01b039095168552602085019390935291830152151560608201526080016101ce565b34801561040157600080fd5b50610415610410366004612171565b611118565b6040516101ce9190612441565b34801561042e57600080fd5b507f9016d09d72d40fdae2fd8ceac6b6234c7706214fd39c1cd1e609a0528c199300546040516001600160a01b0390911681526020016101ce565b34801561047557600080fd5b50610219610484366004612240565b60026020526000908152604090205481565b3480156104a257600080fd5b506101c16104b1366004612240565b6112a9565b3480156104c257600080fd5b506103c96104d136600461234b565b600060208181529281526040808220909352908152208054600182015460028301546003909301546001600160a01b0390921692909160ff1684565b34801561051957600080fd5b5061053e604051806040016040528060058152602001640352e302e360dc1b81525081565b6040516101ce91906124d1565b34801561055757600080fd5b5061021964e8d4a5100081565b34801561057057600080fd5b506101ea61057f366004612426565b6113b9565b34801561059057600080fd5b5061021961059f366004612240565b60046020526000908152604090205481565b3480156105bd57600080fd5b506104156105cc366004612240565b6114cd565b3480156105dd57600080fd5b506101ea6105ec366004612426565b6115d4565b3480156105fd57600080fd5b5061062161060c366004612240565b60066020526000908152604090205460ff1681565b60405190151581526020016101ce565b600082815260036020526040812054606091805b8281101561068f5760008681526001602090815260408083208484529091529020546001600160a01b0380871691160361068757816106838161251a565b9250505b600101610645565b5060008167ffffffffffffffff8111156106ab576106ab612259565b6040519080825280602002602001820160405280156106fd57816020015b6040805160808101825260008082526020808301829052928201819052606082015282526000199092019101816106c95790505b5090506000915060005b838110156107c75760008781526001602090815260408083208484529091529020546001600160a01b038088169116036107bf576000878152600160208181526040808420858552825292839020835160808101855281546001600160a01b03168152928101549183019190915260028101549282019290925260039091015460ff161515606082015282518390859081106107a5576107a5612533565b602002602001018190525082806107bb9061251a565b9350505b600101610707565b50925050505b92915050565b826107e0610e108261255f565b15610806576040516305186e1960e31b8152600481018290526024015b60405180910390fd5b82610813610e108261255f565b15610834576040516305186e1960e31b8152600481018290526024016107fd565b826000036108555760405163b4983d9960e01b815260040160405180910390fd5b8361086286610e10612573565b111561088b5760405163062710c560e51b815260048101869052602481018590526044016107fd565b6000610e1061089a8787612586565b6108a49086612599565b6108ae91906125b0565b6108b890346125b0565b9050855b858110156108e2576108cf818684611612565b6108db610e1082612573565b90506108bc565b50505050505050565b806108f8610e108261255f565b15610919576040516305186e1960e31b8152600481018290526024016107fd565b4261092683610e10612573565b1115610948576040516305186e1960e31b8152600481018390526024016107fd565b600082815260026020526040812054900361097957604051630df2bda760e31b8152600481018390526024016107fd565b60008281526006602052604090205460ff16156109ac576040516330a70c2d60e11b8152600481018390526024016107fd565b6109b5826117b1565b600082815260026020908152604080832054600390925282205490916109da85611bb0565b6000868152600460205260408120829055909150805b84811015610d4c5760008781526020818152604080832084845290915290206002810154841180610a1f575083155b15610aa857815b86811015610aa15760008981526020818152604080832084845290915290206002810154600190910154610a5a9190612599565b60008a8152602081815260408083208584528252808320546001600160a01b03168352600790915281208054909190610a94908490612573565b9091555050600101610a26565b5050610d4c565b6000835b86811015610c955760008a81526001602081815260408084208585529091528220600281015491810154909291610ae291612586565b6001860154909150610af48286612573565b11610bc45760038201805460ff191660019081179091558201546002830155610b1d8185612573565b9350610b298882612599565b82546001600160a01b031660009081526007602052604081208054909190610b52908490612573565b9091555050815460408051838152602081018b905285926001600160a01b0316918f917fbeeb0e068b38584599ecdad61d683ab506f0715af81d0c38f7159a5d16a7b9b5910160405180910390a486610baa8161251a565b97505084600101548403610bbf575050610c95565b610c8b565b838560010154610bd49190612586565b826002016000828254610be79190612573565b909155505060018501548890610bfe908690612586565b610c089190612599565b82546001600160a01b031660009081526007602052604081208054909190610c31908490612573565b90915550508154600183015460408051918252602082018b905285926001600160a01b0316918f917fd9ad2e163200cd40563fd17099f6e140b91a088ee6af02a2a4ccd35ae136105c910160405180910390a45050610c95565b5050600101610aac565b5060038201805460ff191660011790556002820154610cb5908690612586565b8260010154610cc49190612599565b82546001600160a01b031660009081526007602052604081208054909190610ced908490612573565b90915550508154600183015460408051918252602082018890526001600160a01b039092169185918c917fd99f82a7ae313af230ab5df0770c9b0f04e4fbb630e685f3a3566ad44b97ef0b910160405180910390a450506001016109f0565b5060008681526006602052604090819020805460ff19166001179055517f515dc8352afddcfc4899a638cc6fcb94e434e2c1e703a124ebee89b6c454146e90610da19088908590918252602082015260400190565b60405180910390a1505050505050565b3360009081526007602052604081205490819003610de45760405163af9d8c8560e01b81523360048201526024016107fd565b336000818152600760205260408082208290555183156108fc0291849190818181858888f19350505050158015610e1f573d6000803e3d6000fd5b5050565b610e2b611c8f565b610e3482611d34565b610e1f8282611d3c565b6000610e48611dfe565b5060008051602061261183398151915290565b81610e68610e108261255f565b15610e89576040516305186e1960e31b8152600481018290526024016107fd565b81600003610eaa5760405163b4983d9960e01b815260040160405180910390fd5b6000610eb683346125b0565b9050610ec3848483611612565b50505050565b80600003610eea5760405163b4983d9960e01b815260040160405180910390fd5b81516000610ef88284612599565b610f0290346125b0565b905060005b82811015610f3b57610f33858281518110610f2457610f24612533565b60200260200101518584611612565b600101610f07565b5050505050565b610f4a611e47565b610f546000611ea2565b565b81610f63610e108261255f565b15610f84576040516305186e1960e31b8152600481018290526024016107fd565b4283101580610f9e575042610f9b84610e10612573565b11155b15610fbf576040516305186e1960e31b8152600481018490526024016107fd565b60008381526006602052604090205460ff1615610ff2576040516330a70c2d60e11b8152600481018490526024016107fd565b816000036110135760405163b4983d9960e01b815260040160405180910390fd5b600083815260036020818152604080842080548251608081018452338152808501898152818501888152606083018981528c8a526001808952878b20868c528952968a20935184546001600160a01b0319166001600160a01b03909116178455915195830195909555935160028201559251928501805460ff19169315159390931790925587855292909152815490929091906110af8361251a565b9091555050600084815260056020526040812080548592906110d2908490612573565b9091555050604080518581526020810185905233917f3d4436d553336892c92b8e854d102f0a3c1b1d60968acc1d262ed8bc6072706c910160405180910390a250505050565b600082815260026020526040812054606091805b82811015611174576000868152602081815260408083208484529091529020546001600160a01b0380871691160361116c57816111688161251a565b9250505b60010161112c565b5060008167ffffffffffffffff81111561119057611190612259565b6040519080825280602002602001820160405280156111e257816020015b6040805160808101825260008082526020808301829052928201819052606082015282526000199092019101816111ae5790505b5090506000915060005b838110156107c7576000878152602081815260408083208484529091529020546001600160a01b038088169116036112a157600087815260208181526040808320848452825291829020825160808101845281546001600160a01b0316815260018201549281019290925260028101549282019290925260039091015460ff1615156060820152825183908590811061128757611287612533565b6020026020010181905250828061129d9061251a565b9350505b6001016111ec565b6000818152600360205260408120546060918167ffffffffffffffff8111156112d4576112d4612259565b60405190808252806020026020018201604052801561132657816020015b6040805160808101825260008082526020808301829052928201819052606082015282526000199092019101816112f25790505b50905060005b828110156113b1576000858152600160208181526040808420858552825292839020835160808101855281546001600160a01b03168152928101549183019190915260028101549282019290925260039091015460ff1615156060820152825183908390811061139e5761139e612533565b602090810291909101015260010161132c565b509392505050565b7ff0c57e16840df040f15088dc2f81fe391c3923bec73e23a9662efc9c229c6a008054600160401b810460ff16159067ffffffffffffffff166000811580156113ff5750825b905060008267ffffffffffffffff16600114801561141c5750303b155b90508115801561142a575080155b156114485760405163f92ee8a960e01b815260040160405180910390fd5b845467ffffffffffffffff19166001178555831561147257845460ff60401b1916600160401b1785555b61147b86611f13565b611483611f24565b83156114c557845460ff60401b19168555604051600181527fc7f505b2f371ae2175ee4913f4499e1f2633a7b5936321eed1cdaeb6115181d290602001610da1565b505050505050565b6000818152600260205260408120546060918167ffffffffffffffff8111156114f8576114f8612259565b60405190808252806020026020018201604052801561154a57816020015b6040805160808101825260008082526020808301829052928201819052606082015282526000199092019101816115165790505b50905060005b828110156113b157600085815260208181526040808320848452825291829020825160808101845281546001600160a01b0316815260018201549281019290925260028101549282019290925260039091015460ff161515606082015282518390839081106115c1576115c1612533565b6020908102919091010152600101611550565b6115dc611e47565b6001600160a01b03811661160657604051631e4fbdf760e01b8152600060048201526024016107fd565b61160f81611ea2565b50565b8261161f610e108261255f565b15611640576040516305186e1960e31b8152600481018290526024016107fd565b428411611663576040516305186e1960e31b8152600481018590526024016107fd565b64e8d4a5100082101561169757604051630100bf8960e31b81526004810183905264e8d4a5100060248201526044016107fd565b60008481526006602052604090205460ff16156116ca576040516330a70c2d60e11b8152600481018590526024016107fd565b6000848152600260208181526040808420805482516080810184523381528085018a81528185018a8152606083018981528d8a52898852868a20858b528852958920925183546001600160a01b0319166001600160a01b0390911617835590516001830155518187015592516003909301805460ff19169315159390931790925588855292909152815490929091906117628361251a565b9091555050604080518681526020810186905290810184905233907fb46d776cdb48d081a0c7d3ff32dc2792e4e8fbce788723207515723628020d329060600160405180910390a25050505050565b600081815260026020526040812054908167ffffffffffffffff8111156117da576117da612259565b604051908082528060200260200182016040528015611803578160200160208202803683370190505b50905060005b82811015611837578082828151811061182457611824612533565b6020908102919091010152600101611809565b5060015b815181101561199257600082828151811061185857611858612533565b60209081029190910181015160008781528083526040808220838352845290819020815160808101835281546001600160a01b031681526001820154948101949094526002810154918401919091526003015460ff16151560608301529150825b6000811180156119115750604080830151600089815260208190529182209091876118e5600186612586565b815181106118f5576118f5612533565b6020026020010151815260200190815260200160002060020154105b156119695784611922600183612586565b8151811061193257611932612533565b602002602001015185828151811061194c5761194c612533565b602090810291909101015280611961816125c4565b9150506118b9565b8285828151811061197c5761197c612533565b602090810291909101015250505060010161183b565b5060005b8151811015610ec357808282815181106119b2576119b2612533565b602002602001015114611ba857600084815260208181526040808320848452808352818420825160808101845281546001600160a01b031681526001820154818601526002820154938101939093526003015460ff1615156060830152878452918390528451909290859085908110611a2d57611a2d612533565b60209081029190910181015182528181019290925260409081016000908120888252818452828220868352808552928220815481546001600160a01b0319166001600160a01b0390911617815560018083015490820155600280830154908201556003918201549101805460ff909216151560ff19909216919091179055878152918290528451839290869086908110611ac957611ac9612533565b60209081029190910181015182528181019290925260409081016000908120845181546001600160a01b0319166001600160a01b039091161781559284015160018401559083015160028301556060909201516003909101805460ff19169115159190911790558351849084908110611b4457611b44612533565b60200260200101519050838181518110611b6057611b60612533565b6020026020010151848481518110611b7a57611b7a612533565b60200260200101818152505080848281518110611b9957611b99612533565b60200260200101818152505050505b600101611996565b60008181526002602090815260408083205460059092528220548290815b83811015611c5857600086815260208181526040808320848452909152902060010154611bfb9084612573565b925081831115611c505780600003611c195750600095945050505050565b600086815260208190526040812090611c33600184612586565b815260200190815260200160002060020154945050505050919050565b600101611bce565b50600085815260208190526040812090611c73600186612586565b8152602001908152602001600020600201549350505050919050565b306001600160a01b037f0000000000000000000000000000000000000000000000000000000000000000161480611d1657507f00000000000000000000000000000000000000000000000000000000000000006001600160a01b0316611d0a600080516020612611833981519152546001600160a01b031690565b6001600160a01b031614155b15610f545760405163703e46dd60e11b815260040160405180910390fd5b61160f611e47565b816001600160a01b03166352d1902d6040518163ffffffff1660e01b8152600401602060405180830381865afa925050508015611d96575060408051601f3d908101601f19168201909252611d93918101906125db565b60015b611dbe57604051634c9c8ce360e01b81526001600160a01b03831660048201526024016107fd565b6000805160206126118339815191528114611def57604051632a87526960e21b8152600481018290526024016107fd565b611df98383611f2c565b505050565b306001600160a01b037f00000000000000000000000000000000000000000000000000000000000000001614610f545760405163703e46dd60e11b815260040160405180910390fd5b33611e797f9016d09d72d40fdae2fd8ceac6b6234c7706214fd39c1cd1e609a0528c199300546001600160a01b031690565b6001600160a01b031614610f545760405163118cdaa760e01b81523360048201526024016107fd565b7f9016d09d72d40fdae2fd8ceac6b6234c7706214fd39c1cd1e609a0528c19930080546001600160a01b031981166001600160a01b03848116918217845560405192169182907f8be0079c531659141344cd1fd0a4f28419497f9722a3daafe3b4186f6b6457e090600090a3505050565b611f1b611f82565b61160f81611fcb565b610f54611f82565b611f3582611fd3565b6040516001600160a01b038316907fbc7cd75a20ee27fd9adebab32041f755214dbc6bffa90cc0225b39da2e5c2d3b90600090a2805115611f7a57611df98282612038565b610e1f6120ae565b7ff0c57e16840df040f15088dc2f81fe391c3923bec73e23a9662efc9c229c6a0054600160401b900460ff16610f5457604051631afcd79f60e31b815260040160405180910390fd5b6115dc611f82565b806001600160a01b03163b60000361200957604051634c9c8ce360e01b81526001600160a01b03821660048201526024016107fd565b60008051602061261183398151915280546001600160a01b0319166001600160a01b0392909216919091179055565b6060600080846001600160a01b03168460405161205591906125f4565b600060405180830381855af49150503d8060008114612090576040519150601f19603f3d011682016040523d82523d6000602084013e612095565b606091505b50915091506120a58583836120cd565b95945050505050565b3415610f545760405163b398979f60e01b815260040160405180910390fd5b6060826120e2576120dd8261212c565b612125565b81511580156120f957506001600160a01b0384163b155b1561212257604051639996b31560e01b81526001600160a01b03851660048201526024016107fd565b50805b9392505050565b80511561213c5780518082602001fd5b604051630a12f52160e11b815260040160405180910390fd5b80356001600160a01b038116811461216c57600080fd5b919050565b6000806040838503121561218457600080fd5b8235915061219460208401612155565b90509250929050565b602080825282518282018190526000918401906040840190835b81811015612209576121f383855180516001600160a01b0316825260208082015190830152604080820151908301526060908101511515910152565b60209390930192608092909201916001016121b7565b509095945050505050565b60008060006060848603121561222957600080fd5b505081359360208301359350604090920135919050565b60006020828403121561225257600080fd5b5035919050565b634e487b7160e01b600052604160045260246000fd5b604051601f8201601f1916810167ffffffffffffffff8111828210171561229857612298612259565b604052919050565b600080604083850312156122b357600080fd5b6122bc83612155565b9150602083013567ffffffffffffffff8111156122d857600080fd5b8301601f810185136122e957600080fd5b803567ffffffffffffffff81111561230357612303612259565b612316601f8201601f191660200161226f565b81815286602083850101111561232b57600080fd5b816020840160208301376000602083830101528093505050509250929050565b6000806040838503121561235e57600080fd5b50508035926020909101359150565b6000806040838503121561238057600080fd5b823567ffffffffffffffff81111561239757600080fd5b8301601f810185136123a857600080fd5b803567ffffffffffffffff8111156123c2576123c2612259565b8060051b6123d26020820161226f565b918252602081840181019290810190888411156123ee57600080fd5b6020850194505b83851015612414578435808352602095860195909350909101906123f5565b98602097909701359750505050505050565b60006020828403121561243857600080fd5b61212582612155565b602080825282518282018190526000918401906040840190835b818110156122095761249783855180516001600160a01b0316825260208082015190830152604080820151908301526060908101511515910152565b602093909301926080929092019160010161245b565b60005b838110156124c85781810151838201526020016124b0565b50506000910152565b60208152600082518060208401526124f08160408501602087016124ad565b601f01601f19169190910160400192915050565b634e487b7160e01b600052601160045260246000fd5b60006001820161252c5761252c612504565b5060010190565b634e487b7160e01b600052603260045260246000fd5b634e487b7160e01b600052601260045260246000fd5b60008261256e5761256e612549565b500690565b808201808211156107cd576107cd612504565b818103818111156107cd576107cd612504565b80820281158282048414176107cd576107cd612504565b6000826125bf576125bf612549565b500490565b6000816125d3576125d3612504565b506000190190565b6000602082840312156125ed57600080fd5b5051919050565b600082516126068184602087016124ad565b919091019291505056fe360894a13ba1a3210667c828492db98dca3e2076cc3735a920a3ca505d382bbca2646970667358221220d1794c9e15848b9bec8d5f350805bf9902b4a5b884f0b1127de63d22bd5e455f64736f6c634300081a0033","linkReferences":{}},"methodIdentifiers":{"MIN_PRICE()":"ad9f20a6","UPGRADE_INTERFACE_VERSION()":"ad3cb1cc","asksByHour(uint256,uint256)":"7ebb29e0","balanceOf(address)":"70a08231","bidsByHour(uint256,uint256)":"a5f74cba","claimBalance()":"30509bca","claimableBalance(address)":"60f3309b","clearMarket(uint256)":"2714f322","clearingPricePerHour(uint256)":"cc253ed2","getAsksByAddress(uint256,address)":"12f3a69c","getAsksByHour(uint256)":"97e33ea4","getBidsByAddress(uint256,address)":"8672cf58","getBidsByHour(uint256)":"d94c32af","getClearingPrice(uint256)":"1b543623","initialize(address)":"c4d66de8","isMarketCleared(uint256)":"fe4d7324","owner()":"8da5cb5b","placeAsk(uint256,uint256)":"75a8b702","placeBid(uint256,uint256)":"57c90de5","placeMultipleBids(uint256,uint256,uint256)":"13bc9f66","placeMultipleBids(uint256[],uint256)":"604d0315","proxiableUUID()":"52d1902d","renounceOwnership()":"715018a6","totalAsksByHour(uint256)":"213acfd8","totalBidsByHour(uint256)":"94578ac6","transferOwnership(address)":"f2fde38b","upgradeToAndCall(address,bytes)":"4f1ef286"},"storageLayout":{"storage":[{"astId":44803,"contract":"src/EnergyBiddingMarket.sol:EnergyBiddingMarket","label":"bidsByHour","offset":0,"slot":"0","type":"t_mapping(t_uint256,t_mapping(t_uint256,t_struct(Bid)44784_storage))"},{"astId":44810,"contract":"src/EnergyBiddingMarket.sol:EnergyBiddingMarket","label":"asksByHour","offset":0,"slot":"1","type":"t_mapping(t_uint256,t_mapping(t_uint256,t_struct(Ask)44793_storage))"},{"astId":44814,"contract":"src/EnergyBiddingMarket.sol:EnergyBiddingMarket","label":"totalBidsByHour","offset":0,"slot":"2","type":"t_mapping(t_uint256,t_uint256)"},{"astId":44818,"contract":"src/EnergyBiddingMarket.sol:EnergyBiddingMarket","label":"totalAsksByHour","offset":0,"slot":"3","type":"t_mapping(t_uint256,t_uint256)"},{"astId":44822,"contract":"src/EnergyBiddingMarket.sol:EnergyBiddingMarket","label":"clearingPricePerHour","offset":0,"slot":"4","type":"t_mapping(t_uint256,t_uint256)"},{"astId":44826,"contract":"src/EnergyBiddingMarket.sol:EnergyBiddingMarket","label":"totalAvailableEnergyByHour","offset":0,"slot":"5","type":"t_mapping(t_uint256,t_uint256)"},{"astId":44830,"contract":"src/EnergyBiddingMarket.sol:EnergyBiddingMarket","label":"isMarketCleared","offset":0,"slot":"6","type":"t_mapping(t_uint256,t_bool)"},{"astId":44834,"contract":"src/EnergyBiddingMarket.sol:EnergyBiddingMarket","label":"claimableBalance","offset":0,"slot":"7","type":"t_mapping(t_address,t_uint256)"}],"types":{"t_address":{"encoding":"inplace","label":"address","numberOfBytes":"20"},"t_bool":{"encoding":"inplace","label":"bool","numberOfBytes":"1"},"t_mapping(t_address,t_uint256)":{"encoding":"mapping","key":"t_address","label":"mapping(address => uint256)","numberOfBytes":"32","value":"t_uint256"},"t_mapping(t_uint256,t_bool)":{"encoding":"mapping","key":"t_uint256","label":"mapping(uint256 => bool)","numberOfBytes":"32","value":"t_bool"},"t_mapping(t_uint256,t_mapping(t_uint256,t_struct(Ask)44793_storage))":{"encoding":"mapping","key":"t_uint256","label":"mapping(uint256 => mapping(uint256 => struct EnergyBiddingMarket.Ask))","numberOfBytes":"32","value":"t_mapping(t_uint256,t_struct(Ask)44793_storage)"},"t_mapping(t_uint256,t_mapping(t_uint256,t_struct(Bid)44784_storage))":{"encoding":"mapping","key":"t_uint256","label":"mapping(uint256 => mapping(uint256 => struct EnergyBiddingMarket.Bid))","numberOfBytes":"32","value":"t_mapping(t_uint256,t_struct(Bid)44784_storage)"},"t_mapping(t_uint256,t_struct(Ask)44793_storage)":{"encoding":"mapping","key":"t_uint256","label":"mapping(uint256 => struct EnergyBiddingMarket.Ask)","numberOfBytes":"32","value":"t_struct(Ask)44793_storage"},"t_mapping(t_uint256,t_struct(Bid)44784_storage)":{"encoding":"mapping","key":"t_uint256","label":"mapping(uint256 => struct EnergyBiddingMarket.Bid)","numberOfBytes":"32","value":"t_struct(Bid)44784_storage"},"t_mapping(t_uint256,t_uint256)":{"encoding":"mapping","key":"t_uint256","label":"mapping(uint256 => uint256)","numberOfBytes":"32","value":"t_uint256"},"t_struct(Ask)44793_storage":{"encoding":"inplace","label":"struct EnergyBiddingMarket.Ask","numberOfBytes":"128","members":[{"astId":44786,"contract":"src/EnergyBiddingMarket.sol:EnergyBiddingMarket","label":"seller","offset":0,"slot":"0","type":"t_address"},{"astId":44788,"contract":"src/EnergyBiddingMarket.sol:EnergyBiddingMarket","label":"amount","offset":0,"slot":"1","type":"t_uint256"},{"astId":44790,"contract":"src/EnergyBiddingMarket.sol:EnergyBiddingMarket","label":"matchedAmount","offset":0,"slot":"2","type":"t_uint256"},{"astId":44792,"contract":"src/EnergyBiddingMarket.sol:EnergyBiddingMarket","label":"settled","offset":0,"slot":"3","type":"t_bool"}]},"t_struct(Bid)44784_storage":{"encoding":"inplace","label":"struct EnergyBiddingMarket.Bid","numberOfBytes":"128","members":[{"astId":44777,"contract":"src/EnergyBiddingMarket.sol:EnergyBiddingMarket","label":"bidder","offset":0,"slot":"0","type":"t_address"},{"astId":44779,"contract":"src/EnergyBiddingMarket.sol:EnergyBiddingMarket","label":"amount","offset":0,"slot":"1","type":"t_uint256"},{"astId":44781,"contract":"src/EnergyBiddingMarket.sol:EnergyBiddingMarket","label":"price","offset":0,"slot":"2","type":"t_uint256"},{"astId":44783,"contract":"src/EnergyBiddingMarket.sol:EnergyBiddingMarket","label":"settled","offset":0,"slot":"3","type":"t_bool"}]},"t_uint256":{"encoding":"inplace","label":"uint256","numberOfBytes":"32"}}},"id":52}